:100000000C945C000C9479000C9479000C947900A9
:100010000C9479000C9479000C9479000C9479007C
:100020000C9479000C9479000C9479000C9479006C
:100030000C943D090C9479000C9479000C9479008F
:100040000C9479000C9479000C94F10B0C947900C9
:100050000C9479000C947F090C9479000C9479002D
:100060000C9479000C9479000C9479000C9479002C
:100070000C9479000C9479000C9479000C9479001C
:100080000C9479000C9479000C947900A207AA07CB
:10009000B207BA07C207C707CC07CF07D207D507F1
:1000A000D807250825081C08A10BD209120A590AED
:1000B000A00AE00A200B600B11241FBECFEFD0E195
:1000C000DEBFCDBF14E0A0E0B1E0E8E9F0E202C09D
:1000D00005900D92A832B107D9F725E0A8E2B4E067
:1000E00001C01D92A038B207E1F70E9425070C94C9
:1000F0004A100C940000CF93DF9300D0CDB7DEB749
:100100009A8389838BE290E0FC0110828AE290E07E
:1001100028E9FC01208385E990E026E0FC012083AA
:1001200080E990E029813A81232F3327FC01208345
:1001300089E290E02981FC01208300000F900F905C
:10014000DF91CF910895CF93DF9300D0CDB7DEB785
:100150009A838983109231042AC000008BE290E0D8
:10016000FC018081882F90E080729927892BB1F360
:100170008CE290E020913104222F30E049815A81B5
:10018000240F351FF9012081FC0120838091310467
:10019000882F90E029813A81820F931FFC01808192
:1001A0008A3091F0809131048F5F80933104809187
:1001B0003104882F90E029813A81820F931FFC013E
:1001C0008081882351F601C0000000000F900F903D
:1001D000DF91CF910895CF93DF93CDB7DEB78BE852
:1001E00090E021E8FC0120838AE890E029E0FC010E
:1001F00020838CE890E0FC01108286E890E02FE7F5
:1002000030E0FC01318320830000DF91CF9108951D
:10021000CF93DF931F92CDB7DEB719828AE390E0C8
:100220002981FC01208384E390E02981FC01208363
:1002300087E390E02981FC01208381E690E0298119
:10024000FC0120838BE390E02FEFFC01208388E307
:1002500090E02FEFFC01208388E1898384E690E021
:100260002981FC0120838AEE898382E290E0298142
:10027000FC01208300000F90DF91CF910895CF9370
:10028000DF931F92CDB7DEB785E690E0FC01808159
:100290008983998180E18927898385E690E0298196
:1002A000FC01208300000F90DF91CF910895CF9340
:1002B000DF93CDB7DEB787E290E020E4FC01208336
:1002C00086E290E02FECFC0120830000DF91CF91CB
:1002D0000895CF93DF9300D0CDB7DEB78A8383E252
:1002E00090E0FC018081898389818F7D89838A8167
:1002F000813019F489818062898383E290E02981C9
:10030000FC01208300000F900F90DF91CF910895A2
:10031000CF93DF931F92CDB7DEB783E290E0FC016D
:100320008081898389818072898381E09981992381
:1003300009F480E00F90DF91CF910895CF93DF9380
:1003400000D0CDB7DEB78A8383E290E0FC018081E4
:10035000898389818F7789838A81813019F48981A2
:100360008068898383E290E02981FC01208300007A
:100370000F900F90DF91CF910895CF93DF931F924D
:10038000CDB7DEB783E290E0FC018081898389816B
:100390008078898381E09981992309F480E00F9026
:1003A000DF91CF910895CF93DF9300D0CDB7DEB723
:1003B0009A83898346E850E089819A81969587954A
:1003C000969587959C01ABE7B4E10E94030D969545
:1003D0008795982F8827969587959C01ABE7B4E180
:1003E0000E94030D96958795FA0191838083000002
:1003F0000F900F90DF91CF910895CF93DF93CDB7FA
:10040000DEB781E080932A040000DF91CF91089548
:10041000CF93DF93CDB7DEB780912A04813029F4E2
:1004200010922A0481E080932B040000DF91CF9189
:100430000895CF93DF93CDB7DEB7C456D1090FB679
:10044000F894DEBF0FBECDBF1C821B8289E390E013
:10045000FC018081282F30E083E390E0FC01808163
:10046000882F90E08F709927982F8827820F931FED
:100470009C838B83CE01059629E0E8E8F2E0DC015D
:1004800001900D922A95E1F71A82198243C081E00A
:1004900090E0098002C0880F991F0A94E2F79C013E
:1004A0008B819C8182239323892BC1F4CE010596F5
:1004B0009C01F90101900020E9F7CF010197821B0F
:1004C000930B9E012B5F3F4F820F931F20E330E27F
:1004D000FC0131832083FC01128217C0CE010596F6
:1004E0009C01F90101900020E9F7CF010197821BDF
:1004F000930B9E012B5F3F4F820F931F21E330E24E
:10050000FC0131832083FC01128289819A8101964A
:100510009A83898389819A810C9708F4B8CFCE0198
:1005200005969C01F90101900020E9F7CF010197A0
:10053000821B930B9E012B5F3F4F820F931F2BE378
:100540003DE0FC01318320832AE030E0FC0133836D
:100550002283CE0105960E94A3000000CC59DF4FF4
:100560000FB6F894DEBF0FBECDBFDF91CF910895D7
:10057000CF93DF93CDB7DEB7C456D1090FB6F89449
:10058000DEBF0FBECDBF1C821B8283E390E0FC0167
:10059000808182958F70282F30E086E390E0FC0107
:1005A0008081882F90E082959295907F9827807F18
:1005B0009827822B932B9C838B83CE01059629E071
:1005C000E1E9F2E0DC0101900D922A95E1F71A824F
:1005D000198243C081E090E0098002C0880F991F12
:1005E0000A94E2F79C018B819C8182239323892BBF
:1005F000C1F4CE0105969C01F90101900020E9F7B4
:10060000CF010197821B930B9E012B5F3F4F820FFF
:10061000931F20E330E2FC0131832083FC0112822E
:1006200017C0CE0105969C01F90101900020E9F761
:10063000CF010197821B930B9E012B5F3F4F820FCF
:10064000931F21E330E2FC0131832083FC011282FD
:1006500089819A8101969A83898389819A810C97ED
:1006600008F4B8CFCE0105969C01F9010190002055
:10067000E9F7CF010197821B930B9E012B5F3F4F40
:10068000820F931F2BE33DE0FC01318320832AE09E
:1006900030E0FC0133832283CE0105960E94A30043
:1006A0000000CC59DF4F0FB6F894DEBF0FBECDBFB0
:1006B000DF91CF910895CF93DF93CDB7DEB7C156C9
:1006C000D1090FB6F894DEBF0FBECDBF8091700583
:1006D0009091710524E630E0B9010E94C70C89832E
:1006E00099818DEC989F812D11248695869586950C
:1006F000880F282F220F220F820F292F281B822FCD
:10070000E82FF0E099818DEC989F812D112486953A
:1007100086958695282F30E080917005909171051F
:1007200044E650E0BA010E94C70CCB014F2F4F9313
:100730004E2F4F93432F4F932F93292F2F938F9308
:100740008AE992E0892F8F938AE992E08F93CE0114
:100750000296292F2F938F930E94600D8DB79EB71D
:100760000A960FB6F894DEBF0FBECDBFCE0102963B
:100770009C01F90101900020E9F7CF010197821B4C
:10078000930B9E012E5F3F4F820F931F2BE339E0A7
:10079000FC0131832083FC011282CE0102960E946B
:1007A000A30080917C0590917D0524E630E0B9019D
:1007B0000E94C70C898399818DEC989F812D11240B
:1007C000869586958695880F282F220F220F820FF7
:1007D000F92FF81B8F2FE82FF0E099818DEC989F6F
:1007E000812D1124869586958695282F30E080915D
:1007F0007C0590917D0544E650E0BA010E94C70C4B
:10080000CB014F2F4F934E2F4F93432F4F932F9347
:10081000292F2F938F9389EA92E0892F8F9389EA6A
:1008200092E08F93CE010296292F2F938F930E94EF
:10083000600D8DB79EB70A960FB6F894DEBF0FBE57
:10084000CDBFCE0102969C01F90101900020E9F78D
:10085000CF010197821B930B9E012E5F3F4F820FAA
:10086000931F2BE339E0FC0131832083FC011282CA
:10087000CE0102960E94A3008091720590917305AB
:1008800024E630E0B9010E94C70C898399818DEC80
:10089000989F812D1124869586958695880F282FFF
:1008A000220F220F820FF92FF81B8F2FE82FF0E075
:1008B00099818DEC989F812D11248695869586953A
:1008C000282F30E0809172059091730544E650E046
:1008D000BA010E94C70CCB014F2F4F934E2F4F935D
:1008E000432F4F932F93292F2F938F9388EB92E0D1
:1008F000892F8F9388EB92E08F93CE010296292F58
:100900002F938F930E94600D8DB79EB70A960FB6F6
:10091000F894DEBF0FBECDBFCE0102969C01F90157
:1009200001900020E9F7CF010197821B930B9E01F4
:100930002E5F3F4F820F931F2BE339E0FC01318381
:100940002083FC011282CE0102960E94A3008091B6
:100950007E0590917F0524E630E0B9010E94C70C26
:10096000898399818DEC989F812D11248695869598
:100970008695880F282F220F220F820FF92FF81B40
:100980008F2FE82FF0E099818DEC989F812D112415
:10099000869586958695282F30E080917E059091EA
:1009A0007F0544E650E0BA010E94C70CCB014F2FEF
:1009B0004F934E2F4F93432F4F932F93292F2F93C6
:1009C0008F9387EC92E0892F8F9387EC92E08F933F
:1009D000CE010296292F2F938F930E94600D8DB721
:1009E0009EB70A960FB6F894DEBF0FBECDBFCE01FC
:1009F00002969C01F90101900020E9F7CF010197CF
:100A0000821B930B9E012E5F3F4F820F931F2BE3A0
:100A100039E0FC0131832083FC011282CE01029671
:100A20000E94A300809156059091570524E630E07E
:100A3000B9010E94C70C898399818DEC989F812D03
:100A40001124869586958695880F282F220F220FD0
:100A5000820FF92FF81B8F2FE82FF0E099818DEC92
:100A6000989F812D1124869586958695282F30E0B4
:100A7000809156059091570544E650E0BA010E94D6
:100A8000C70CCB014F2F4F934E2F4F93432F4F93B4
:100A90002F93292F2F938F9386ED92E0892F8F9399
:100AA00086ED92E08F93CE010296292F2F938F939C
:100AB0000E94600D8DB79EB70A960FB6F894DEBF00
:100AC0000FBECDBFCE0102969C01F901019000201E
:100AD000E9F7CF010197821B930B9E012E5F3F4FD9
:100AE000820F931F2BE33DE0FC01318320832AE03A
:100AF00030E0FC0133832283CE0102960E94A300E2
:100B00000000CF59DF4F0FB6F894DEBF0FBECDBF48
:100B1000DF91CF910895CF93DF93CDB7DEB7C15664
:100B2000D1090FB6F894DEBF0FBECDBF8091780516
:100B30009091790524E630E0B9010E94C70C8983C1
:100B400099818DEC989F812D1124869586958695A7
:100B5000880F282F220F220F820F292F281B822F68
:100B6000E82FF0E099818DEC989F812D11248695D6
:100B700086958695282F30E08091780590917905AB
:100B800044E650E0BA010E94C70CCB014F2F4F93AF
:100B90004E2F4F93432F4F932F93292F2F938F93A4
:100BA00085EE92E0892F8F9385EE92E08F93CE01B0
:100BB0000296292F2F938F930E94600D8DB79EB7B9
:100BC0000A960FB6F894DEBF0FBECDBFCE010296D7
:100BD0009C01F90101900020E9F7CF010197821BE8
:100BE000930B9E012E5F3F4F820F931F2BE339E043
:100BF000FC0131832083FC011282CE0102960E9407
:100C0000A300809176059091770524E630E0B90144
:100C10000E94C70C898399818DEC989F812D1124A6
:100C2000869586958695880F282F220F220F820F92
:100C3000F92FF81B8F2FE82FF0E099818DEC989F0A
:100C4000812D1124869586958695282F30E08091F8
:100C500076059091770544E650E0BA010E94C70CF2
:100C6000CB014F2F4F934E2F4F93432F4F932F93E3
:100C7000292F2F938F9384EF92E0892F8F9384EF06
:100C800092E08F93CE010296292F2F938F930E948B
:100C9000600D8DB79EB70A960FB6F894DEBF0FBEF3
:100CA000CDBFCE0102969C01F90101900020E9F729
:100CB000CF010197821B930B9E012E5F3F4F820F46
:100CC000931F2BE33DE0FC01318320832AE030E0D9
:100CD000FC0133832283CE0102960E94A300000010
:100CE000CF59DF4F0FB6F894DEBF0FBECDBFDF91F7
:100CF000CF910895CF93DF9300D01F92CDB7DEB789
:100D000089837B836A8383E093E00E94A3008981C7
:100D1000882F90E0880F991F80509F4FFC018081A1
:100D200091810E94A3008A819B81892B59F089813E
:100D3000882F90E0039709F005C08A819B810E946B
:100D4000A300000085E093E00E94A30000000F9044
:100D50000F900F90DF91CF910895CF93DF9300D044
:100D6000CDB7DEB79A83898380913901882361F0FA
:100D700089E093E00E94A30089819A810E94A300E8
:100D80008BE093E00E94A30000000F900F90DF9192
:100D9000CF910895CF93DF9300D0CDB7DEB79A837C
:100DA000898380913901882361F089E093E00E9472
:100DB000A30089819A810E94A3008DE093E00E94A4
:100DC000A30000000F900F90DF91CF910895CF9373
:100DD000DF93CDB7DEB760E070E080E00E947A0676
:100DE00080E00E949E0180E00E94690180EA9FE00D
:100DF0000E94D3010000DF91CF910895CF93DF933C
:100E000000D0CDB7DEB79A83898380912F0490916B
:100E1000300401969093300480932F0480912F0426
:100E20009091300403972CF060E070E085E00E9420
:100E30007A0680E00E949E0180E00E946901000025
:100E40000F900F90DF91CF910895CF93DF93CDB79F
:100E5000DEB7C157D1090FB6F894DEBF0FBECDBFC4
:100E6000CE0182599F4F2BE1FC012083CE01825994
:100E70009F4F2BE5FC012183CE0182599F4F21E436
:100E8000FC012283CE0182599F4FFC0113820E94F4
:100E900008010E94EB000E943F0180E090E00E9468
:100EA0007B000E94570186E290E026E230E0F901E3
:100EB00020812064FC0120830E94E70678948091C1
:100EC0002F049091300403970CF0D5C18091290430
:100ED000813009F0E5C01A821982BEC029813A81A9
:100EE000C901880F991F820F931F845F9E4FFC01D9
:100EF00080819181BC0182E394E00E944F0D892B97
:100F000009F0A5C029813A81C901880F991F820F74
:100F1000931F825F9E4FFC018081882F90E0092EF5
:100F2000000CAA0BBB0B40E050E02DE030E0841B2E
:100F3000950B2817390708F486C08A5B9F4FFC0180
:100F40000C94FD0C81E00E94690181E193E00E9414
:100F5000CA067CC080E00E94690181E393E00E94A0
:100F6000CA0674C081E00E949E018DE393E00E9456
:100F7000CA066CC080E00E949E018DE593E00E944D
:100F8000CA0664C08CE793E00E94A3005FC08EE8AD
:100F900093E00E94A3005AC00E94190257C00E9409
:100FA000B80254C00E945B0351C00E948B054EC022
:100FB00089E993E00E94AD0682E394E09C838B83F1
:100FC00005C08B819C8101969C838B838B819C8146
:100FD000FC0180818823A9F78B819C8101969C83E9
:100FE0008B838B819C810E94CA068B819C810E948D
:100FF000310D9987888789858F9388858F938AEAB1
:1010000093E0892F8F938AEA93E08F93CE010E9617
:10101000292F2F938F930E94600D0F900F900F90A8
:101020000F900F900F90CE010E960E94CA068885F1
:1010300099850E94D3010AC083EB93E00E94CA06FF
:101040000E94FD0103C0000016C0000014C0898189
:101050009A8101969A83898329813A81C901880FEF
:10106000991F820F931F845F9E4FFC0180819181A5
:10107000892B09F033CF29813A81C901880F991F43
:10108000820F931F845F9E4FFC0180819181892B89
:1010900029F460E070E084E00E947A06109229044E
:1010A0000E948801813029F00E94BD01813009F041
:1010B000A6C01F8289E390E0FC018081282F30E0E8
:1010C00083E390E0FC018081882F90E08F70992766
:1010D000982F8827820F931F9B878A8783E390E04E
:1010E000FC01808182958F70282F30E086E390E0AC
:1010F000FC018081882F90E082959295907F9827BF
:10110000807F9827822B932B9D878C871E821D8240
:1011100069C081E090E00D8002C0880F991F0A9499
:10112000E2F79C018A859B8582239323892B19F5FD
:101130008D818F5F8F838F81882F90E0292F2F9350
:101140008F938DEC93E0892F8F938DEC93E08F93A9
:10115000CE010E96292F2F938F930E94600D0F9032
:101160000F900F900F900F900F90CE010E96BC0134
:1011700083E00E947A0681E090E00D8002C0880F33
:10118000991F0A94E2F79C018C859D858223932305
:10119000892B19F58D818F5F8F838F81882F90E048
:1011A000292F2F938F9382ED93E0892F8F9382EDD8
:1011B00093E08F93CE010E96292F2F938F930E9449
:1011C000600D0F900F900F900F900F900F90CE0129
:1011D0000E96BC0183E00E947A068D819E81019665
:1011E0009E838D838D819E810C970CF492CF8F818D
:1011F000882329F080E090E00E94FE063DC08091A7
:101200002B048130B1F410922B0487ED93E00E94FF
:10121000A30087ED93E00E94A30087ED93E00E9476
:10122000A30087ED93E00E94A30087ED93E00E9466
:10123000A30080912A04813009F041CE0E94190256
:101240000E94B8020E948B050E945B03CE01825966
:101250009F4F0E94A300CE0182599F4F0E94A3007E
:10126000CE0182599F4F0E94A300CE0182599F4F09
:101270000E94A30024CE000022CE1F920F92009065
:101280005F000F9211242F933F934F935F936F93BF
:101290007F938F939F93AF93BF93EF93FF93CF93DE
:1012A000DF93CDB7DEB780913A0190913B01019772
:1012B00090933B0180933A0180913A0190913B01D8
:1012C000892B41F40E943F0184EF91E090933B0110
:1012D00080933A010000DF91CF91FF91EF91BF9190
:1012E000AF919F918F917F916F915F914F913F91BE
:1012F0002F910F9000925F000F901F9018951F92F2
:101300000F9200905F000F9211242F933F934F9301
:101310005F936F937F938F939F93AF93BF93EF935D
:10132000FF93CF93DF9300D000D0CDB7DEB784E238
:1013300090E0FC018081882F90E0A0E0B0E08983FC
:101340009A83AB83BC8385E290E0FC018081882F87
:1013500090E0982F8827092E000CAA0BBB0B29813F
:101360003A814B815C81822B932BA42BB52B8983F3
:101370009A83AB83BC8380912E04882F90E0092E42
:10138000000CAA0BBB0B40E050E027E030E0841BD0
:10139000950B2817390708F4D2C18C5A9F4FFC01CE
:1013A0000C94FD0C29813A814B815C8184EF91E0A2
:1013B000DC010E94120DDC01CB012FEF33E040E095
:1013C00050E0BC01CD010E94DB0CDA01C901909311
:1013D0007905809378058091780590917905292F7A
:1013E0002F938F938AED93E0892F8F938AED93E06B
:1013F0008F9382E994E0892F8F9382E994E08F9311
:101400000E94600D0F900F900F900F900F900F9013
:1014100080912804882309F496C182E994E00E940F
:10142000A30091C129813A814B815C8184EF91E0D5
:10143000DC010E94120DDC01CB012FEF33E040E014
:1014400050E0BC01CD010E94DB0CDA01C9019C0116
:1014500044E1429FC001439F900D11249093710578
:10146000809370058091700590917105292F2F93BD
:101470008F9385EE93E0892F8F9385EE93E08F9382
:1014800082E994E0892F8F9382E994E08F930E9400
:10149000600D0F900F900F900F900F900F90809114
:1014A0002804882309F451C182E994E00E94A30032
:1014B0004CC129813A814B815C8184EF91E0DC0150
:1014C0000E94120DDC01CB012FEF33E040E050E031
:1014D000BC01CD010E94DB0CDA01C9019C0144E191
:1014E000429FC001439F900D1124909377058093F4
:1014F00076058091760590917705292F2F938F930C
:1015000080EF93E0892F8F9380EF93E08F9382E9B0
:1015100094E0892F8F9382E994E08F930E94600D6D
:101520000F900F900F900F900F900F9080912804C4
:10153000882309F40CC182E994E00E94A30007C14A
:1015400029813A814B815C8184EF91E0DC010E942A
:10155000120DDC01CB012FEF33E040E050E0BC0185
:10156000CD010E94DB0CDA01C901909357058093ED
:1015700056058091560590915705292F2F938F93EB
:101580008BEF93E0892F8F938BEF93E08F9382E91A
:1015900094E0892F8F9382E994E08F930E94600DED
:1015A0000F900F900F900F900F900F908091280444
:1015B000882309F4CEC082E994E00E94A300C9C048
:1015C00029813A814B815C8184EF91E0DC010E94AA
:1015D000120DDC01CB012FEF33E040E050E0BC0105
:1015E000CD010E94DB0CDA01C90190937F05809345
:1015F0007E0580917E0590917F05292F2F938F93F3
:1016000086E094E0892F8F9386E094E08F9382E9BF
:1016100094E0892F8F9382E994E08F930E94600D6C
:101620000F900F900F900F900F900F9080912804C3
:10163000882309F490C082E994E00E94A3008BC043
:1016400029813A814B815C8184EF91E0DC010E9429
:10165000120DDC01CB012FEF33E040E050E0BC0184
:10166000CD010E94DB0CDA01C901909373058093D0
:1016700072058091720590917305292F2F938F9396
:1016800081E194E0892F8F9381E194E08F9382E947
:1016900094E0892F8F9382E994E08F930E94600DEC
:1016A0000F900F900F900F900F900F908091280443
:1016B000882309F452C082E994E00E94A3004DC03F
:1016C00029813A814B815C8184EF91E0DC010E94A9
:1016D000120DDC01CB012FEF33E040E050E0BC0104
:1016E000CD010E94DB0CDA01C90190937D05809346
:1016F0007C0580917C0590917D05292F2F938F93F8
:101700008CE194E0892F8F938CE194E08F9382E9B0
:1017100094E0892F8F9382E994E08F930E94600D6B
:101720000F900F900F900F900F900F9080912804C2
:101730008823A9F082E994E00E94A30010C0000071
:101740000FC000000DC000000BC0000009C0000069
:1017500007C0000005C0000003C0000001C0000079
:1017600080912E048F5F80932E0480912E04883008
:1017700010F010922E0487E290E027E230E0F901A9
:101780002081287FFC01208387E290E027E230E07F
:10179000F901308120912E04232BFC01208386E265
:1017A00090E026E230E0F90120812064FC012083F2
:1017B00000000F900F900F900F90DF91CF91FF914D
:1017C000EF91BF91AF919F918F917F916F915F91B9
:1017D0004F913F912F910F9000925F000F901F90BB
:1017E00018951F920F9200905F000F9211242F9373
:1017F0003F934F935F936F937F938F939F93AF9399
:10180000BF93EF93FF93CF93DF9300D01F92CDB799
:10181000DEB78CE290E0FC0180818B838B81882F86
:1018200090E08B31910539F08F37910509F45AC05A
:101830000D9721F06CC00E94080291C080912C0489
:1018400090912D04892B29F487ED93E00E94A30049
:1018500086C080912C0490912D048E509B4FFC01EA
:1018600010821A8219821FC089819A818E509B4FE3
:10187000FC01208189819A818E5C9B4FFC01208331
:1018800089819A818E5C9B4FFC018081803231F48A
:1018900089819A818E5C9B4FFC01108289819A819B
:1018A00001969A83898389819A818E509B4FFC018E
:1018B0008081882329F089819A8180369105A0F260
:1018C00089819A818E5C9B4FFC01108210922D04BD
:1018D00010922C0487ED93E00E94A30081E0809396
:1018E00029043DC080912C0490912D04892B49F04E
:1018F00080912C0490912D04019790932D04809356
:101900002C048CE290E02B81FC01208328C0809184
:101910002C0490912D048E509B4F2B81FC01208331
:1019200080912C0490912D04019690932D04809326
:101930002C0480912C0490912D048136910548F05F
:1019400080912C0490912D04019790932D04809305
:101950002C048CE290E02B81FC012083000000002D
:101960000F900F900F90DF91CF91FF91EF91BF916A
:10197000AF919F918F917F916F915F914F913F9127
:101980002F910F9000925F000F901F90189597FB7A
:10199000072E16F4009407D077FD09D00E941D0D84
:1019A00007FC05D03EF4909581959F4F0895709562
:1019B00061957F4F0895A1E21A2EAA1BBB1BFD0162
:1019C0000DC0AA1FBB1FEE1FFF1FA217B307E4071E
:1019D000F50720F0A21BB30BE40BF50B661F771F76
:1019E000881F991F1A9469F7609570958095909556
:1019F0009B01AC01BD01CF010895EE0FFF1F0590C3
:101A0000F491E02D0994A29FB001B39FC001A39F60
:101A1000700D811D1124911DB29F700D811D112427
:101A2000911D08950E94030DA59F900DB49F900DE8
:101A3000A49F800D911D11240895AA1BBB1B51E189
:101A400007C0AA1FBB1FA617B70710F0A61BB70B2E
:101A5000881F991F5A95A9F780959095BC01CD01D3
:101A60000895FC0188279927E89421912032E9F311
:101A7000293010F02E30C8F32B3241F02D3239F4DA
:101A8000689404C00E94580D820F911D219120532B
:101A90002A30C0F31EF4909581959F4F0895FB0165
:101AA000DC018D91019080190110D9F3990B0895F3
:101AB0007AE0979F902D879F802D910D1124089596
:101AC000AEE0B0E0E6E6FDE00C9421100D891E8941
:101AD00086E08C831A8309838FEF9FE79E838D8333
:101AE000AE01475E5F4F6F89788DCE0101960E94EF
:101AF000820DEF81F885E00FF11F10822E96E4E051
:101B00000C943D10ABE0B0E0E8E8FDE00C9413105D
:101B10006C017B018A01FC0117821682838181FF9F
:101B2000CCC1CE0101963C01F6019381F70193FDF2
:101B3000859193FF81917F01882309F4BAC1853291
:101B400039F493FD859193FF81917F01853229F4CA
:101B5000B60190E00E94790FE7CF912C212C312C17
:101B6000FFE1F315D8F08B3279F038F4803279F058
:101B70008332A1F4232D20611DC08D3261F08033AA
:101B800069F4232D216016C0832D8260382EE32D49
:101B9000E4603E2E2AC0F32DF8601DC037FC2DC036
:101BA00020ED280F2A3040F08E32B9F436FC81C186
:101BB000232D2064322E19C036FE06C08AE0989E7E
:101BC000200D1124922E11C0EAE02E9E200D11242A
:101BD000222EF32DF0623F2E08C08C3621F4832D87
:101BE0008068382E02C0883641F4F70193FD859154
:101BF00093FF81917F018111B3CF982F9F7D9554E1
:101C0000933028F40C5F1F4F9FE399830DC08336F8
:101C100031F0833771F0833509F059C021C0F801E4
:101C2000808189830E5F1F4F88248394912C5301F8
:101C300013C02801F2E04F0E511CF801A080B180C2
:101C400036FE03C0692D70E002C06FEF7FEFC50163
:101C50000E946E0F4C018201F32DFF773F2E16C0BC
:101C6000280122E0420E511CF801A080B18036FE0E
:101C700003C0692D70E002C06FEF7FEFC5010E94C5
:101C8000630F4C01F32DF0683F2E820133FC1BC023
:101C9000822D90E088169906B0F4B60180E290E0BB
:101CA0000E94790F2A94F4CFF50137FC859137FE15
:101CB00081915F01B60190E00E94790F21102A9472
:101CC00021E0821A91088114910471F7E8C08436EA
:101CD00011F0893641F5F80137FE07C06081718146
:101CE000828193810C5F1F4F08C060817181072E34
:101CF000000C880B990B0E5F1F4FF32DFF763F2EC4
:101D000097FF09C090958095709561957F4F8F4F93
:101D10009F4FF0683F2E2AE030E0A3010E94B50FEC
:101D2000882E861845C0853731F4232D2F7EB22E9C
:101D30002AE030E025C0932D997FB92E8F36C1F06F
:101D400018F4883579F0B5C0803719F0883721F05C
:101D5000B0C0E92FE061BE2EB4FE0DC0FB2DF460D3
:101D6000BF2E09C034FE0AC0292F2660B22E06C03D
:101D700028E030E005C020E130E002C020E132E0A0
:101D8000F801B7FE07C060817181828193810C5F89
:101D90001F4F06C06081718180E090E00E5F1F4F91
:101DA000A3010E94B50F882E8618FB2DFF773F2ECA
:101DB00036FE0DC0232D2E7FA22E891458F434FE3A
:101DC0000BC032FC09C0832D8E7EA82E05C0B82C16
:101DD000A32C03C0B82C01C0B92CA4FE0FC0FE0177
:101DE000E80DF11D8081803321F49A2D997EA92E72
:101DF00009C0A2FE06C0B394B39404C08A2D8678AD
:101E000009F0B394A3FC11C0A0FE06C0B21488F47C
:101E1000280C922C9B180EC0B21460F4B60180E21C
:101E200090E00E94790FB394F7CFB21418F42B18F6
:101E300002C0982C212CA4FE10C0B60180E390E0D3
:101E40000E94790FA2FE17C0A1FC03C088E790E0B2
:101E500002C088E590E0B6010CC08A2D867859F062
:101E6000A1FE02C08BE201C080E2A7FC8DE2B601B8
:101E700090E00E94790F891438F4B60180E390E075
:101E80000E94790F9A94F7CF8A94F301E80DF11D1F
:101E90008081B60190E00E94790F8110F5CF222059
:101EA00009F442CEB60180E290E00E94790F2A94B4
:101EB000F6CFF6018681978102C08FEF9FEF2B96B8
:101EC000E2E10C942F10FC0105906150704001106C
:101ED000D8F7809590958E0F9F1F0895FC01615053
:101EE000704001900110D8F7809590958E0F9F1F3C
:101EF00008950F931F93CF93DF93FB01238121FD5F
:101F000003C08FEF9FEF2CC022FF16C04681578180
:101F1000248135814217530744F4A081B1819D018A
:101F20002F5F3F4F318320838C93268137812F5F32
:101F30003F4F3783268314C08B01EC01FB010084E3
:101F4000F185E02D0995892BE1F6D80116968D9142
:101F50009C911797019617969C938E931697CE0196
:101F6000DF91CF911F910F910895FA01AA27283090
:101F700051F1203181F1E8946F936E7F6E5F7F4F56
:101F80008F4F9F4FAF4FB1E03ED0B4E03CD0670FD2
:101F9000781F891F9A1FA11D680F791F8A1F911D25
:101FA000A11D6A0F711D811D911DA11D20D009F475
:101FB00068943F912AE0269F11243019305D3193B7
:101FC000DEF6CF010895462F4770405D4193B3E0A0
:101FD0000FD0C9F7F6CF462F4F70405D4A3318F047
:101FE000495D31FD4052419302D0A9F7EACFB4E0F8
:101FF000A6959795879577956795BA95C9F70097B0
:102000006105710508959B01AC010A2E0694579550
:10201000479537952795BA95C9F7620F731F841FA7
:10202000951FA01D08952F923F924F925F926F923D
:102030007F928F929F92AF92BF92CF92DF92EF9258
:10204000FF920F931F93CF93DF93CDB7DEB7CA1BD9
:10205000DB0B0FB6F894DEBF0FBECDBF09942A8804
:10206000398848885F846E847D848C849B84AA84AC
:10207000B984C884DF80EE80FD800C811B81AA8139
:10208000B981CE0FD11D0FB6F894DEBF0FBECDBF04
:08209000ED010895F894FFCF63
:102098003C014A016C019001B401DE010602000F07
:1020A80002011702022002032802043002053D0241
:1020B800064602074F020858020961020A69020B24
:1020C80072020C7C020D00000E01F401303020D0A9
:1020D80093D09ED0A2D09ED09200303120D09DD0F7
:1020E80095D098D0A1D09FD0A0D090D092D09DD09C
:1020F800A1D0A2D0AC20D098D0A22100303220D0DC
:102108009DD095D098D0A1D09FD0A0D090D092D07B
:102118009DD09ED0A1D0A2D0AC20D097D0A3210032
:10212800303320D09DD095D098D0A1D09FD0A0D0CA
:1021380090D092D09DD09ED0A1D0A2D0AC20D090EB
:10214800D0912000303420D09DD095D098D097D011
:1021580092D095D0A1D0A2D09DD090D0AF20D09AC7
:10216800D09ED09CD090D09DD094D0902100303576
:1021780020D0A1D098D0A1D0A2D095D09CD090202A
:10218800D09DD095D098D0A1D09FD0A0D090D092FB
:10219800D09DD090210073746172742D697400739E
:1021A800746F702D69740073746172742D7A750080
:1021B80073746F702D7A750076657273696F6E002F
:1021C8006765742D626F6172642D69640067657458
:1021D8002D62617431006765742D62617432006725
:1021E80065742D756F7374006765742D756F736EE4
:1021F800007365742D757A740075737469722D6F28
:102208006E0075737469722D6F66660073746172FF
:10221800742D646961676E004042415431203D204D
:10222800004042415432203D200040556F737431C4
:102238003D25642E256425640040556F7374323D36
:1022480025642E256425640040556F7374333D253D
:10225800642E256425640040556F7374343D2564ED
:102268002E256425640040556F7374353D25642E12
:10227800256425640040556F736E313D25642E2515
:102288006425640040556F736E323D25642E2564C5
:102298002564002200220D0A005B005D005D0D0A26
:1022A80000434D445F53544152545F495420D0B2C7
:1022B800D18BD0BFD0BED0BBD0BDD0B5D0BDD0BEE5
:1022C80000434D445F53544F505F495400434D44BD
:1022D8005F53544152545F5A5520D0B2D18BD0BF6E
:1022E800D0BED0BBD0BDD0B5D0BDD0BE00434D44CC
:1022F8005F53544F505F5A5520D0B2D18BD0BFD0C6
:10230800BED0BBD0BDD0B5D0BDD0BE004056455222
:102318003D323031392E30332E32360D0A004049E5
:10232800443D303030310D0A0053657474696E676E
:1023380020557A7420746F3A200076616C75653D7B
:102348002564005374617274696E672064696167FB
:102358006E6F73746963206D6F64652100313A256F
:102368006400323A2564000D0A00556F736E313DE2
:1023780025640D0A00556F7374313D25640D0A00FC
:10238800556F736E323D25640D0A00556F737435B1
:102398003D25640D0A00556F7374343D25640D0A9C
:1023A80000556F7374333D25640D0A00556F7374BF
:0823B800323D25640D0A00000E
:00000001FF
