:100000000C945C000C9479000C9479000C947900A9
:100010000C9479000C9479000C9479000C9479007C
:100020000C9479000C9479000C9479000C9479006C
:100030000C94F10B0C9479000C9479000C947900D9
:100040000C9479000C9479000C94A90F0C9479000D
:100050000C9479000C94800C0C9479000C94790029
:100060000C9479000C9479000C9479000C9479002C
:100070000C9479000C9479000C9479000C9479001C
:100080000C9479000C9479000C94790033093B09A5
:1000900043094B09530958095D0960096309660959
:1000A0006909B609B609AD09590FD30CF90E280D27
:1000B0007D0DDC0D3B0E9A0E11241FBECFEFD0E15B
:1000C000DEBFCDBF15E0A0E0B1E0E8E0F8E202C09D
:1000D00005900D92A230B107D9F726E0A2E0B5E075
:1000E00001C01D92A138B207E1F70E9434080C94B8
:1000F00002140C940000CF93DF9300D0CDB7DEB78D
:100100009A8389838BE290E0FC0110828AE290E07E
:1001100028E9FC01208385E990E026E0FC012083AA
:1001200080E990E029813A81232F3327FC01208345
:1001300089E290E02981FC01208300000F900F905C
:10014000DF91CF910895CF93DF9300D0CDB7DEB785
:100150009A838983109230052AC000008BE290E0D8
:10016000FC018081882F90E080729927892BB1F360
:100170008CE290E020913005222F30E049815A81B5
:10018000240F351FF9012081FC0120838091300567
:10019000882F90E029813A81820F931FFC01808192
:1001A0008A3091F0809130058F5F80933005809187
:1001B0003005882F90E029813A81820F931FFC013E
:1001C0008081882351F601C0000000000F900F903D
:1001D000DF91CF910895CF93DF93CDB7DEB78FE452
:1001E00090E0FC0110828EE490E02CE0FC01208382
:1001F00087E590E020E1FC0120838AE490E021E79C
:1002000032E0FC01318320830000DF91CF9108951B
:10021000CF93DF93CDB7DEB78BE890E021E8FC0108
:1002200020838AE890E029E0FC0120838CE890E0BC
:10023000FC01108286E890E02FE730E0FC0131837A
:1002400020830000DF91CF910895CF93DF931F9219
:10025000CDB7DEB719828AE390E02981FC012083C3
:1002600084E390E02981FC01208387E390E02981E9
:10027000FC01208381E690E02981FC0120838BE34F
:1002800090E02FEFFC01208388E390E02FEFFC014A
:10029000208385E390E02FEFFC01208385E690E04A
:1002A0002FEFFC01208388E1898384E690E0298197
:1002B000FC0120838AEE898382E290E02981FC019F
:1002C000208300000F90DF91CF910895CF93DF93AB
:1002D0001F92CDB7DEB785E690E0FC01808189836F
:1002E000998188E08927898385E690E02981FC014E
:1002F000208300000F90DF91CF910895CF93DF937B
:100300001F92CDB7DEB785E690E0FC01808189833E
:10031000998180E18927898385E690E02981FC0124
:10032000208300000F90DF91CF910895CF93DF934A
:10033000CDB7DEB787E290E020E4FC01208386E2BF
:1003400090E02FECFC0120830000DF91CF91089515
:10035000CF93DF9300D0CDB7DEB78A8383E290E0FE
:10036000FC018081898389818F7D89838A818130A5
:1003700019F489818062898383E290E02981FC01FC
:10038000208300000F900F90DF91CF910895CF93BD
:10039000DF931F92CDB7DEB783E290E0FC0180814E
:1003A000898389818072898381E09981992309F405
:1003B00080E00F90DF91CF910895CF93DF9300D02D
:1003C000CDB7DEB78A8383E290E0FC018081898328
:1003D00089818F7789838A81813019F48981806846
:1003E000898383E290E02981FC01208300000F9043
:1003F0000F90DF91CF910895CF93DF931F92CDB7E8
:10040000DEB783E290E0FC01808189838981807876
:10041000898381E09981992309F480E00F90DF912D
:10042000CF910895CF93DF9300D0CDB7DEB79A83F5
:10043000898389819A81909374068093730646E834
:1004400050E089819A8196958795969587959C012C
:10045000ABE7B4E10E94BB1096958795982F88274B
:10046000969587959C01ABE7B4E10E94BB109695E9
:100470008795FA019183808300000F900F90DF91A0
:10048000CF910895CF93DF93CDB7DEB781E080930E
:1004900004050000DF91CF910895CF93DF93CDB78E
:1004A000DEB780910405813029F41092040581E0C3
:1004B000809305050000DF91CF910895CF93DF93DE
:1004C000CDB7DEB7C456D1090FB6F894DEBF0FBE64
:1004D000CDBF1C821B8289E390E0FC018081282F24
:1004E00030E083E390E0FC018081882F90E08F7002
:1004F0009927982F8827820F931F9C838B83CE0187
:10050000059629E0EAEBF2E0DC0101900D922A95D4
:10051000E1F71A82198243C081E090E0098002C0AD
:10052000880F991F0A94E2F79C018B819C8182239A
:100530009323892BC1F4CE0105969C01F90101900A
:100540000020E9F7CF010197821B930B9E012B5FDF
:100550003F4F820F931F20E330E2FC013183208361
:10056000FC01128217C0CE0105969C01F901019091
:100570000020E9F7CF010197821B930B9E012B5FAF
:100580003F4F820F931F21E330E2FC013183208330
:10059000FC01128289819A8101969A8389838981DB
:1005A0009A810C9708F4B8CFCE0105969C01F90109
:1005B00001900020E9F7CF010197821B930B9E0168
:1005C0002B5F3F4F820F931F2BE33DE0FC013183F4
:1005D00020832AE030E0FC0133832283CE0105969C
:1005E0000E94A3000000CC59DF4F0FB6F894DEBF85
:1005F0000FBECDBFDF91CF910895CF93DF93CDB7DD
:10060000DEB7C456D1090FB6F894DEBF0FBECDBF1A
:100610001C821B8283E390E0FC01808182958F70B5
:10062000282F30E086E390E0FC018081882F90E065
:10063000817F992782959295907F9827807F982730
:10064000282B392B83E690E0FC018081882F90E0F5
:10065000880F991F82959295907F9827807F982781
:100660009927822B932B9C838B83CE01059629E0BF
:10067000E3ECF2E0DC0101900D922A95E1F71A8299
:10068000198243C081E090E0098002C0880F991F61
:100690000A94E2F79C018B819C8182239323892B0E
:1006A000C1F4CE0105969C01F90101900020E9F703
:1006B000CF010197821B930B9E012B5F3F4F820F4F
:1006C000931F20E330E2FC0131832083FC0112827E
:1006D00017C0CE0105969C01F90101900020E9F7B1
:1006E000CF010197821B930B9E012B5F3F4F820F1F
:1006F000931F21E330E2FC0131832083FC0112824D
:1007000089819A8101969A83898389819A810C973C
:1007100008F4B8CFCE0105969C01F90101900020A4
:10072000E9F7CF010197821B930B9E012B5F3F4F8F
:10073000820F931F2BE33DE0FC01318320832AE0ED
:1007400030E0FC0133832283CE0105960E94A30092
:100750000000CC59DF4F0FB6F894DEBF0FBECDBFFF
:10076000DF91CF9108950F931F93CF93DF93CDB770
:10077000DEB7C156D1090FB6F894DEBF0FBECDBFAC
:10078000809118059091190524E630E0B9010E9486
:100790007F10898399818DEC989F812D11248695F6
:1007A00086958695880F282F220F220F820F292FDA
:1007B000281B822FE82FF0E099818DEC989F812DE6
:1007C0001124869586958695282F30E0809118050E
:1007D0009091190544E650E0BA010E947F10CB01C8
:1007E0004F2F4F934E2F4F93432F4F932F93292FDC
:1007F0002F938F938CEC92E0892F8F938CEC92E067
:100800008F93CE010296292F2F938F930E94181158
:100810008DB79EB70A960FB6F894DEBF0FBECDBF58
:10082000CE0102969C01F90101900020E9F7CF0169
:100830000197821B930B9E012E5F3F4F820F931FE8
:1008400025E0EDEDF2E0DC0101900D922A95E1F753
:10085000CE0102960E94A30080911A0590911B057B
:1008600024E630E0B9010E947F10898399818DECE4
:10087000989F812D1124869586958695880F282F1F
:10088000220F220F820FF92FF81B8F2FE82FF0E095
:1008900099818DEC989F812D11248695869586955A
:1008A000282F30E080911A0590911B0544E650E016
:1008B000BA010E947F10CB014F2F4F934E2F4F93C1
:1008C000432F4F932F93292F2F938F9382EE92E0F4
:1008D000892F8F9382EE92E08F93CE010296292F7B
:1008E0002F938F930E9418118DB79EB70A960FB65B
:1008F000F894DEBF0FBECDBFCE0102969C01F90178
:1009000001900020E9F7CF010197821B930B9E0114
:100910002E5F3F4F820F931F25E0EDEDF2E0DC01EB
:1009200001900D922A95E1F7CE0102960E94A30054
:1009300080911C0590911D0524E630E0B9010E94CC
:100940007F10898399818DEC989F812D1124869544
:1009500086958695880F282F220F220F820FF92F58
:10096000F81B8F2FE82FF0E099818DEC989F812D57
:100970001124869586958695282F30E080911C0558
:1009800090911D0544E650E0BA010E947F10CB0112
:100990004F2F4F934E2F4F93432F4F932F93292F2A
:1009A0002F938F938FEE92E0892F8F938FEE92E0AB
:1009B0008F93CE010296292F2F938F930E941811A7
:1009C0008DB79EB70A960FB6F894DEBF0FBECDBFA7
:1009D000CE0102969C01F90101900020E9F7CF01B8
:1009E0000197821B930B9E012E5F3F4F820F931F37
:1009F00025E0EDEDF2E0DC0101900D922A95E1F7A2
:100A0000CE0102960E94A30080911E0590911F05C1
:100A100024E630E0B9010E947F10898399818DEC32
:100A2000989F812D1124869586958695880F282F6D
:100A3000220F220F820FF92FF81B8F2FE82FF0E0E3
:100A400099818DEC989F812D1124869586958695A8
:100A5000282F30E080911E0590911F0544E650E05C
:100A6000BA010E947F10CB014F2F4F934E2F4F930F
:100A7000432F4F932F93292F2F938F938CEF92E037
:100A8000892F8F938CEF92E08F93CE010296292FBE
:100A90002F938F930E9418118DB79EB70A960FB6A9
:100AA000F894DEBF0FBECDBFCE0102969C01F901C6
:100AB00001900020E9F7CF010197821B930B9E0163
:100AC0002E5F3F4F820F931F25E0EDEDF2E0DC013A
:100AD00001900D922A95E1F7CE0102960E94A300A3
:100AE00020911A0530911B0580911C0590911D05E0
:100AF000280F391F80911E0590911F05820F931FAB
:100B000024E630E0B9010E947F10898399818DEC41
:100B1000989F812D1124869586958695880F282F7C
:100B2000220F220F820FF92FF81B8F2F082F10E0B2
:100B300099818DEC989F812D1124869586958695B7
:100B4000E82FF0E020911A0530911B0580911C05DB
:100B500090911D05280F391F80911E0590911F054A
:100B6000820F931F24E630E0B9010E947F10CB0171
:100B7000212F2F93202F2F932F2F2F932E2F2F9313
:100B8000292F2F938F9389E093E0892F8F9389E00A
:100B900093E08F93CE010296292F2F938F930E947B
:100BA00018118DB79EB70A960FB6F894DEBF0FBE28
:100BB000CDBFCE0102969C01F90101900020E9F71A
:100BC000CF010197821B930B9E012E5F3F4F820F37
:100BD000931F25E0EDEDF2E0DC0101900D922A95E6
:100BE000E1F7CE0102960E94A3008091200590912A
:100BF000210524E630E0B9010E947F1089839981A4
:100C00008DEC989F812D1124869586958695880F69
:100C1000282F220F220F820FF92FF81B8F2FE82F7A
:100C2000F0E099818DEC989F812D11248695869511
:100C30008695282F30E0809120059091210544E68B
:100C400050E0BA010E947F10CB014F2F4F934E2FDF
:100C50004F93432F4F932F93292F2F938F938CE1F3
:100C600093E0892F8F938CE193E08F93CE010296CE
:100C7000292F2F938F930E9418118DB79EB70A9634
:100C80000FB6F894DEBF0FBECDBFCE0102969C0119
:100C9000F90101900020E9F7CF010197821B930B26
:100CA0009E012E5F3F4F820F931F28E0EDE2F3E09D
:100CB000DC0101900D922A95E1F7CE0102960E9487
:100CC000A3000000CF59DF4F0FB6F894DEBF0FBE70
:100CD000CDBFDF91CF911F910F910895CF93DF93F7
:100CE000CDB7DEB7C156D1090FB6F894DEBF0FBE3F
:100CF000CDBF80910A0590910B0524E630E0B90143
:100D00000E947F10898399818DEC989F812D1124F9
:100D1000869586958695880F282F220F220F820FA1
:100D2000292F281B822FE82FF0E099818DEC989FC6
:100D3000812D1124869586958695282F30E0809107
:100D40000A0590910B0544E650E0BA010E947F101D
:100D5000CB014F2F4F934E2F4F93432F4F932F93F2
:100D6000292F2F938F9385E393E0892F8F9385E32A
:100D700093E08F93CE010296292F2F938F930E9499
:100D800018118DB79EB70A960FB6F894DEBF0FBE46
:100D9000CDBFCE0102969C01F90101900020E9F738
:100DA000CF010197821B930B9E012E5F3F4F820F55
:100DB000931F25E0EDEDF2E0DC0101900D922A9504
:100DC000E1F7CE0102960E94A30080910C0590915C
:100DD0000D0524E630E0B9010E947F1089839981D6
:100DE0008DEC989F812D1124869586958695880F88
:100DF000282F220F220F820FF92FF81B8F2FE82F99
:100E0000F0E099818DEC989F812D1124869586952F
:100E10008695282F30E080910C0590910D0544E6D1
:100E200050E0BA010E947F10CB014F2F4F934E2FFD
:100E30004F93432F4F932F93292F2F938F9384E416
:100E400093E0892F8F9384E493E08F93CE010296F1
:100E5000292F2F938F930E9418118DB79EB70A9652
:100E60000FB6F894DEBF0FBECDBFCE0102969C0137
:100E7000F90101900020E9F7CF010197821B930B44
:100E80009E012E5F3F4F820F931F27E0E7E5F3E0BF
:100E9000DC0101900D922A95E1F7CE0102960E94A5
:100EA000A3000000CF59DF4F0FB6F894DEBF0FBE8E
:100EB000CDBFDF91CF910895CF93DF9300D01F92E4
:100EC000CDB7DEB789837B836A838EE593E00E948A
:100ED000A3008981882F90E0880F991F80509F4F31
:100EE000FC01808191810E94A3008A819B81892BD2
:100EF00059F08981882F90E0039709F005C08A8115
:100F00009B810E94A300000080E693E00E94A30062
:100F100000000F900F900F90DF91CF910895CF9325
:100F2000DF9300D0CDB7DEB79A83898380913B01F0
:100F3000882361F084E693E00E94A30089819A816E
:100F40000E94A30086E693E00E94A30000000F9099
:100F50000F90DF91CF910895CF93DF9300D0CDB75D
:100F6000DEB79A83898380913B01882361F084E610
:100F700093E00E94A30089819A810E94A30088E6E1
:100F800093E00E94A30000000F900F90DF91CF919B
:100F90000895CF93DF93CDB7DEB760E070E080E0D7
:100FA0000E945C0780E00E94DD0180E00E94A801B1
:100FB00080EA9FE00E9412020000DF91CF91089525
:100FC000CF93DF93CDB7DEB7C256D1090FB6F894F1
:100FD000DEBF0FBECDBF9E012F593F4FF901918358
:100FE0008083CE018F599F4FFC0121812F93FC01FB
:100FF00080818F938CE693E0892F8F938CE693E02A
:101000008F93CE0101969F938F930E9418110F909A
:101010000F900F900F900F900F90CE0101960E94AD
:10102000AC07CE018F599F4FFC01808191819C01BB
:10103000ADECBCEC0E94BB10969587959695879574
:1010400096958795909329058093280581E0809354
:1010500006050000CE59DF4F0FB6F894DEBF0FBE75
:10106000CDBFDF91CF910895CF93DF93CDB7DEB79A
:10107000C157D1090FB6F894DEBF0FBECDBFCE0168
:1010800082599F4F2BE1FC012083CE0182599F4F53
:101090002BE5FC012183CE0182599F4F21E4FC0105
:1010A0002283CE0182599F4FFC0113820E942501A9
:1010B0000E9408010E94EB000E947E0180E090E007
:1010C0000E947B000E94960186E290E026E230E0DA
:1010D000F90120812064FC0120830E94C9077894D3
:1010E0008CE291E0909327058093260586E893E0B3
:1010F0000E94AC07809124059091250503970CF080
:101100006EC380912605909127058436910549F19B
:101110008536910518F4019791F13FC0883C9105FF
:1011200091F08C32914009F038C08CE993E00E9434
:10113000AC0780912605909127050197909327058C
:10114000809326052AC082EA93E00E94AC07809132
:1011500026059091270501979093270580932605F2
:101160001CC088EA93E00E94AC078091260590910C
:101170002705019790932705809326050EC08EEAD8
:1011800093E00E94AC078091260590912705019776
:1011900090932705809326050000809106058130F5
:1011A00031F58091280590912905892B01F584EB73
:1011B00093E00E94AC07809124059091250501964B
:1011C0009093250580932405809124059091250511
:1011D00003972CF060E070E085E00E945C0780E0FF
:1011E0000E94DD0180E00E94A80110920605809116
:1011F0000305813009F0E5C01A821982BEC0298139
:101200003A81C901880F991F820F931F825F9E4FF9
:10121000FC0180819181BC0181E395E00E9407116E
:10122000892B09F0A5C029813A81C901880F991F2E
:10123000820F931F805F9E4FFC018081882F90E07A
:10124000092E000CAA0BBB0B40E050E02DE030E073
:10125000841B950B2817390708F486C08A5B9F4FBB
:10126000FC010C94B51081E00E94A80186EC93E08B
:101270000E94AC077CC080E00E94A80186EE93E04B
:101280000E94AC0774C081E00E94DD0182EF93E010
:101290000E94AC076CC080E00E94DD0182E194E016
:1012A0000E94AC0764C081E394E00E94A3005FC089
:1012B00083E494E00E94A3005AC00E945E0257C0DB
:1012C0000E94FD0254C00E94B30351C00E946E06EA
:1012D0004EC08EE494E00E948F0781E395E09C83EA
:1012E0008B8305C08B819C8101969C838B838B8132
:1012F0009C81FC0180818823A9F78B819C810196C8
:101300009C838B838B819C810E94AC078B819C8109
:101310000E94E9109987888789858F9388858F93A4
:101320008FE594E0892F8F938FE594E08F93CE0122
:101330000E96292F2F938F930E9418110F900F90C4
:101340000F900F900F900F90CE010E960E94AC0759
:10135000888599850E9412020AC088E694E00E945E
:10136000AC070E94420203C0000016C0000014C077
:1013700089819A8101969A83898329813A81C90159
:10138000880F991F820F931F825F9E4FFC018081FF
:101390009181892B09F033CF29813A81C901880FC6
:1013A000991F820F931F825F9E4FFC018081918164
:1013B000892B29F460E070E084E00E945C071092C1
:1013C00003050E94C701813029F00E94FC01813091
:1013D00009F0CAC01F8289E390E0FC018081282FB8
:1013E00030E083E390E0FC018081882F90E08F70F3
:1013F0009927982F8827820F931F9B878A8783E3DB
:1014000090E0FC01808182958F70282F30E086E388
:1014100090E0FC018081882F90E082959295907FEA
:101420009827807F9827822B932B9D878C871E82FD
:101430001D828DC081E090E00D8002C0880F991F51
:101440000A94E2F79C018A859B8582239323892B4A
:1014500099F580912205909123050196909323059B
:101460008093220580912205909123058133954731
:1014700018F18D818F5F8F838F81882F90E0292FC6
:101480002F938F9382E894E0892F8F9382E894E0E2
:101490008F93CE010E96292F2F938F930E941811B0
:1014A0000F900F900F900F900F900F90CE010E960F
:1014B000BC0183E00E945C0781E090E00D8002C0E7
:1014C000880F991F0A94E2F79C018C859D858223E1
:1014D0009323892B99F580912205909123050196FC
:1014E00090932305809322058091220590912305F6
:1014F0008133954718F18D818F5F8F838F81882F7E
:1015000090E0292F2F938F9387E894E0892F8F9372
:1015100087E894E08F93CE010E96292F2F938F9317
:101520000E9418110F900F900F900F900F900F9036
:10153000CE010E96BC0183E00E945C071092230549
:10154000109222058D819E8101969E838D838D81CF
:101550009E810C970CF46ECF8F81882329F080E058
:1015600090E00E94E0073CC10E94C701813001F574
:1015700080910E0590910F05833C9140CCF48091B1
:10158000100590911105833C914094F480911205CF
:1015900090911305833C91405CF4809114059091E7
:1015A0001505833C914024F4809116059091170510
:1015B0000E94FC01813009F08FC080910A05909152
:1015C0000B0580349F410CF048C0809173069091C8
:1015D00074068D3291400CF440C080910E059091BC
:1015E0000F0584309140CCF560E070E082E00E940D
:1015F0005C0740910E0550910F05209173063091C4
:10160000740680910A0590910B05652F6F934F9397
:10161000432F4F932F93292F2F938F938CE894E090
:10162000892F8F938CE894E08F93CE010E96292F0B
:101630002F938F930E9418118DB79EB70A960FB6FD
:10164000F894DEBF0FBECDBFCE010E960E94AC0750
:1016500080E090E00E94E0073FC080910E059091ED
:101660000F05833C9140C4F160E070E082E00E948D
:101670005C0740910E0550910F0520917306309143
:10168000740680910A0590910B05652F6F934F9317
:10169000432F4F932F93292F2F938F938CE894E010
:1016A000892F8F938CE894E08F93CE010E96292F8B
:1016B0002F938F930E9418118DB79EB70A960FB67D
:1016C000F894DEBF0FBECDBFCE010E960E94AC07D0
:1016D00080E090E00E94E0070E94C7018130B1F5F0
:1016E00080910C0590910D05803A9F403CF08091CF
:1016F0000C0590910D058137974144F160E070E051
:1017000086E00E945C0780910A0590910B05292FC5
:101710002F938F9389EA94E0892F8F9389EA94E03D
:101720008F93CE010E96292F2F938F930E9418111D
:101730000F900F900F900F900F900F90CE010E967C
:101740000E94AC0780E090E00E94E00780910505D0
:101750008130B1F41092050582EB94E00E94A30061
:1017600082EB94E00E94A30082EB94E00E94A3002D
:1017700082EB94E00E94A30082EB94E00E94A3001D
:1017800080910405813009F0B5CC80912A059091B3
:101790002B05892B09F0AECC82E390E090932B05CA
:1017A00080932A050E945E020E94FD020E946E063E
:1017B0000E94B303CE0182599F4F0E94A300CE0125
:1017C00082599F4F0E94A300CE0182599F4F0E94D1
:1017D000A300CE0182599F4F0E94A3008BCC000032
:1017E00089CC1F920F9200905F000F9211242F93CB
:1017F0003F934F935F936F937F938F939F93AF9399
:10180000BF93EF93FF93CF93DF93CDB7DEB7809174
:101810003C0190913D01019790933D0180933C01E3
:1018200080913C0190913D01892B51F40E947E01F1
:101830000E94660184E690E090933D0180933C0114
:101840008091260590912705892B49F080912605E6
:101850009091270501979093270580932605809105
:10186000280590912905892B49F0809128059091B0
:1018700029050197909329058093280580912A05D1
:1018800090912B05892B49F080912A0590912B0589
:10189000019790932B0580932A0580912C059091B8
:1018A0002D05892B49F080912C0590912D050197EC
:1018B00090932D0580932C0580912E0590912F05F6
:1018C000892B49F080912E0590912F0501979093D7
:1018D0002F0580932E050000DF91CF91FF91EF91AE
:1018E000BF91AF919F918F917F916F915F914F9138
:1018F0003F912F910F9000925F000F901F901895CD
:101900001F920F9200905F000F9211242F933F932C
:101910004F935F936F937F938F939F93AF93BF93F7
:10192000EF93FF93CF93DF9300D000D0CDB7DEB716
:1019300084E290E0FC018081882F90E0A0E0B0E09C
:1019400089839A83AB83BC8385E290E0FC0180812C
:10195000882F90E0982F8827092E000CAA0BBB0B2C
:1019600029813A814B815C81822B932BA42BB52B4F
:1019700089839A83AB83BC8380910905882F90E08B
:10198000092E000CAA0BBB0B40E050E027E030E032
:10199000841B950B2817390708F489C28C5A9F4F6E
:1019A000FC010C94B51029813A814B815C8184EF54
:1019B00091E0DC010E94CA10DC01CB012FEF33E083
:1019C00040E050E0BC01CD010E949310DA01C90152
:1019D00090937A06809379068091790690917A06A1
:1019E0002AE030E0B9010E947F10CB019C014FEC4E
:1019F000429FC001439F900D112490930B0580934B
:101A00000A058091790690917A06292F2F938F935A
:101A100085EB94E0892F8F9385EB94E08F9381E998
:101A200095E0892F8F9381E995E08F930E9418119B
:101A30000F900F900F900F900F900F9080910205D4
:101A4000882309F438C281E995E00E948F0733C2E8
:101A500029813A814B815C8184EF91E0DC010E9415
:101A6000CA10DC01CB012FEF33E040E050E0BC01B5
:101A7000CD010E949310DA01C901909378068093FA
:101A8000770680917706909178062AE030E0B901D8
:101A90000E947F10CB019C014FEC429FC001439FED
:101AA000900D112490930D0580930C05809177067D
:101AB00090917806292F2F938F9380EC94E0892FB3
:101AC0008F9380EC94E08F9381E995E0892F8F9339
:101AD00081E995E08F930E9418110F900F900F905D
:101AE0000F900F900F9080910205882309F4E5C1B3
:101AF00081E995E00E948F07E0C129813A814B81FD
:101B00005C8184EF91E0DC010E94CA10DC01CB0112
:101B10002FEF33E040E050E0BC01CD010E94931074
:101B2000DA01C901909356068093550680915506B7
:101B3000909156068A5F9109909317058093160538
:101B400080911605909117052AE030E0B9010E94B6
:101B50007F10CB019C0142E4429FC001439F900D46
:101B60001124909321058093200580915506909132
:101B70005606292F2F938F938BEC94E0892F8F9308
:101B80008BEC94E08F9381E995E0892F8F9381E925
:101B900095E08F930E9418110F900F900F900F9067
:101BA0000F900F9080910205882309F488C181E984
:101BB00095E00E948F0783C129813A814B815C8126
:101BC00084EF91E0DC010E94CA10DC01CB012FEF11
:101BD00033E040E050E0BC01CD010E949310DA01F7
:101BE000C9019093800680937F0680917F06909133
:101BF00080068A5F91099093150580931405809162
:101C00001405909115052AE030E0B9010E947F107B
:101C1000CB019C0141ED429FC001439F900D1124D7
:101C200090931F0580931E0580917F0690918006FA
:101C3000292F2F938F9386ED94E0892F8F9386ED34
:101C400094E08F9381E995E0892F8F9381E995E066
:101C50008F930E9418110F900F900F900F900F907C
:101C60000F9080910205882309F42BC181E995E04A
:101C70000E948F0726C129813A814B815C8184EFC4
:101C800091E0DC010E94CA10DC01CB012FEF33E0B0
:101C900040E050E0BC01CD010E949310DA01C9017F
:101CA00090937206809371068091710690917206EE
:101CB0008A5F910990931305809312058091120514
:101CC000909113052AE030E0B9010E947F10CB010A
:101CD0009C0141ED429FC001439F900D11249093C0
:101CE0001D0580931C058091710690917206292F25
:101CF0002F938F9381EE94E0892F8F9381EE94E060
:101D00008F9381E995E0892F8F9381E995E08F93F7
:101D10000E9418110F900F900F900F900F900F903E
:101D200080910205882309F4CEC081E995E00E94E4
:101D30008F07C9C029813A814B815C8184EF91E092
:101D4000DC010E94CA10DC01CB012FEF33E040E040
:101D500050E0BC01CD010E949310DA01C9019093BB
:101D60007E0680937D0680917D0690917E068A5F37
:101D70009109909311058093100580911005909121
:101D800011052AE030E0B9010E947F10CB019C01CF
:101D900041ED429FC001439F900D112490931B057C
:101DA00080931A0580917D0690917E06292F2F93AE
:101DB0008F938CEE94E0892F8F938CEE94E08F9329
:101DC00081E995E0892F8F9381E995E08F930E94B7
:101DD00018110F900F900F900F900F900F9080910F
:101DE0000205882309F471C081E995E00E948F07FC
:101DF0006CC029813A814B815C8184EF91E0DC01E8
:101E00000E94CA10DC01CB012FEF33E040E050E02C
:101E1000BC01CD010E949310DA01C90190937006B4
:101E200080936F0680916F06909170068A5F91098A
:101E300090930F0580930E0580910E0590910F05EC
:101E40002AE030E0B9010E947F10CB019C0141E5FE
:101E5000429FC001439F900D1124909319058093D8
:101E6000180580916F0690917006292F2F938F93FC
:101E700087EF94E0892F8F9387EF94E08F9381E928
:101E800095E0892F8F9381E995E08F930E94181137
:101E90000F900F900F900F900F900F908091020570
:101EA0008823A9F081E995E00E948F0710C0000007
:101EB0000FC000000DC000000BC0000009C00000F2
:101EC00007C0000005C0000003C0000001C0000002
:101ED000809109058F5F80930905809109058830FD
:101EE00010F01092090587E290E027E230E0F90156
:101EF0002081287FFC01208387E290E027E230E008
:101F0000F901308120910905232BFC01208386E211
:101F100090E026E230E0F90120812064FC0120837A
:101F200000000F900F900F900F90DF91CF91FF91D5
:101F3000EF91BF91AF919F918F917F916F915F9141
:101F40004F913F912F910F9000925F000F901F9043
:101F500018951F920F9200905F000F9211242F93FB
:101F60003F934F935F936F937F938F939F93AF9321
:101F7000BF93EF93FF93CF93DF9300D01F92CDB722
:101F8000DEB78CE290E0FC0180818B838B81882F0F
:101F900090E08B31910539F08F37910509F45AC0E3
:101FA0000D9721F06CC00E944D0291C080910705F1
:101FB00090910805892B29F482EB94E00E94A300FC
:101FC00086C080910705909108058F509A4FFC01BB
:101FD00010821A8219821FC089819A818F509A4F6C
:101FE000FC01208189819A818F5C9A4FFC012083BA
:101FF00089819A818F5C9A4FFC018081803231F413
:1020000089819A818F5C9A4FFC01108289819A8123
:1020100001969A83898389819A818F509A4FFC0116
:102020008081882329F089819A8180369105A0F2E8
:1020300089819A818F5C9A4FFC0110821092080569
:102040001092070582EB94E00E94A30081E0809348
:1020500003053DC08091070590910805892B49F043
:10206000809107059091080501979093080580934A
:1020700007058CE290E02B81FC01208328C0809131
:102080000705909108058F509A4F2B81FC01208302
:10209000809107059091080501969093080580931B
:1020A000070580910705909108058136910548F054
:1020B00080910705909108050197909308058093FA
:1020C00007058CE290E02B81FC01208300000000DA
:1020D0000F900F900F90DF91CF91FF91EF91BF91F3
:1020E000AF919F918F917F916F915F914F913F91B0
:1020F0002F910F9000925F000F901F90189597FB03
:10210000072E16F4009407D077FD09D00E94D51051
:1021100007FC05D03EF4909581959F4F08957095EA
:1021200061957F4F0895A1E21A2EAA1BBB1BFD01EA
:102130000DC0AA1FBB1FEE1FFF1FA217B307E407A6
:10214000F50720F0A21BB30BE40BF50B661F771FFE
:10215000881F991F1A9469F76095709580959095DE
:102160009B01AC01BD01CF010895EE0FFF1F05904B
:10217000F491E02D0994A29FB001B39FC001A39FE9
:10218000700D811D1124911DB29F700D811D1124B0
:10219000911D08950E94BB10A59F900DB49F900DB6
:1021A000A49F800D911D11240895AA1BBB1B51E112
:1021B00007C0AA1FBB1FA617B70710F0A61BB70BB7
:1021C000881F991F5A95A9F780959095BC01CD015C
:1021D0000895FC0188279927E89421912032E9F39A
:1021E000293010F02E30C8F32B3241F02D3239F463
:1021F000689404C00E941011820F911D21912053F8
:102200002A30C0F31EF4909581959F4F0895FB01ED
:10221000DC018D91019080190110D9F3990B08957B
:102220007AE0979F902D879F802D910D112408951E
:10223000AEE0B0E0EEE1F1E10C94D9130D891E8916
:1022400086E08C831A8309838FEF9FE79E838D83BB
:10225000AE01475E5F4F6F89788DCE0101960E9477
:102260003A11EF81F885E00FF11F10822E96E4E01D
:102270000C94F513ABE0B0E0E0E4F1E10C94CB1387
:102280006C017B018A01FC0117821682838181FF28
:10229000CCC1CE0101963C01F6019381F70193FD7B
:1022A000859193FF81917F01882309F4BAC185321A
:1022B00039F493FD859193FF81917F01853229F453
:1022C000B60190E00E943113E7CF912C212C312CE4
:1022D000FFE1F315D8F08B3279F038F4803279F0E1
:1022E0008332A1F4232D20611DC08D3261F0803333
:1022F00069F4232D216016C0832D8260382EE32DD2
:10230000E4603E2E2AC0F32DF8601DC037FC2DC0BE
:1023100020ED280F2A3040F08E32B9F436FC81C10E
:10232000232D2064322E19C036FE06C08AE0989E06
:10233000200D1124922E11C0EAE02E9E200D1124B2
:10234000222EF32DF0623F2E08C08C3621F4832D0F
:102350008068382E02C0883641F4F70193FD8591DC
:1023600093FF81917F018111B3CF982F9F7D955469
:10237000933028F40C5F1F4F9FE399830DC0833681
:1023800031F0833771F0833509F059C021C0F8016D
:10239000808189830E5F1F4F88248394912C530181
:1023A00013C02801F2E04F0E511CF801A080B1804B
:1023B00036FE03C0692D70E002C06FEF7FEFC501EC
:1023C0000E9426134C018201F32DFF773F2E16C089
:1023D000280122E0420E511CF801A080B18036FE97
:1023E00003C0692D70E002C06FEF7FEFC5010E944E
:1023F0001B134C01F32DF0683F2E820133FC1BC0F0
:10240000822D90E088169906B0F4B60180E290E043
:102410000E9431132A94F4CFF50137FC859137FEE1
:1024200081915F01B60190E00E94311321102A943E
:1024300021E0821A91088114910471F7E8C0843672
:1024400011F0893641F5F80137FE07C060817181CE
:10245000828193810C5F1F4F08C060817181072EBC
:10246000000C880B990B0E5F1F4FF32DFF763F2E4C
:1024700097FF09C090958095709561957F4F8F4F1C
:102480009F4FF0683F2E2AE030E0A3010E946D13B9
:10249000882E861845C0853731F4232D2F7EB22E25
:1024A0002AE030E025C0932D997FB92E8F36C1F0F8
:1024B00018F4883579F0B5C0803719F0883721F0E5
:1024C000B0C0E92FE061BE2EB4FE0DC0FB2DF4605C
:1024D000BF2E09C034FE0AC0292F2660B22E06C0C6
:1024E00028E030E005C020E130E002C020E132E029
:1024F000F801B7FE07C060817181828193810C5F12
:102500001F4F06C06081718180E090E00E5F1F4F19
:10251000A3010E946D13882E8618FB2DFF773F2E96
:1025200036FE0DC0232D2E7FA22E891458F434FEC2
:102530000BC032FC09C0832D8E7EA82E05C0B82C9E
:10254000A32C03C0B82C01C0B92CA4FE0FC0FE01FF
:10255000E80DF11D8081803321F49A2D997EA92EFA
:1025600009C0A2FE06C0B394B39404C08A2D867835
:1025700009F0B394A3FC11C0A0FE06C0B21488F405
:10258000280C922C9B180EC0B21460F4B60180E2A5
:1025900090E00E943113B394F7CFB21418F42B18C3
:1025A00002C0982C212CA4FE10C0B60180E390E05C
:1025B0000E943113A2FE17C0A1FC03C088E790E07F
:1025C00002C088E590E0B6010CC08A2D867859F0EB
:1025D000A1FE02C08BE201C080E2A7FC8DE2B60141
:1025E00090E00E943113891438F4B60180E390E042
:1025F0000E9431139A94F7CF8A94F301E80DF11DEC
:102600008081B60190E00E9431138110F5CF222025
:1026100009F442CEB60180E290E00E9431132A9480
:10262000F6CFF6018681978102C08FEF9FEF2B9640
:10263000E2E10C94E713FC01059061507040011039
:10264000D8F7809590958E0F9F1F0895FC016150DB
:10265000704001900110D8F7809590958E0F9F1FC4
:1026600008950F931F93CF93DF93FB01238121FDE7
:1026700003C08FEF9FEF2CC022FF16C04681578109
:10268000248135814217530744F4A081B1819D0113
:102690002F5F3F4F318320838C93268137812F5FBB
:1026A0003F4F3783268314C08B01EC01FB0100846C
:1026B000F185E02D0995892BE1F6D80116968D91CB
:1026C0009C911797019617969C938E931697CE011F
:1026D000DF91CF911F910F910895FA01AA27283019
:1026E00051F1203181F1E8946F936E7F6E5F7F4FDF
:1026F0008F4F9F4FAF4FB1E03ED0B4E03CD0670F5B
:10270000781F891F9A1FA11D680F791F8A1F911DAD
:10271000A11D6A0F711D811D911DA11D20D009F4FD
:1027200068943F912AE0269F11243019305D31933F
:10273000DEF6CF010895462F4770405D4193B3E028
:102740000FD0C9F7F6CF462F4F70405D4A3318F0CF
:10275000495D31FD4052419302D0A9F7EACFB4E080
:10276000A6959795879577956795BA95C9F7009738
:102770006105710508959B01AC010A2E06945795D9
:10278000479537952795BA95C9F7620F731F841F30
:10279000951FA01D08952F923F924F925F926F92C6
:1027A0007F928F929F92AF92BF92CF92DF92EF92E1
:1027B000FF920F931F93CF93DF93CDB7DEB7CA1B62
:1027C000DB0B0FB6F894DEBF0FBECDBF09942A888D
:1027D000398848885F846E847D848C849B84AA8435
:1027E000B984C884DF80EE80FD800C811B81AA81C2
:1027F000B981CE0FD11D0FB6F894DEBF0FBECDBF8D
:08280000ED010895F894FFCFEB
:102808003E014C016E019201B601E0010802380256
:10281800004102014902025202035A0204620205FF
:102828006F02067802078102088A020993020A9B4E
:10283800020BA4020CAE020D00000E016400303041
:1028480020D093D09ED0A2D09ED09200303120D0FC
:102858009DD095D098D0A1D09FD0A0D090D092D024
:102868009DD0A1D0A2D0AC20D098D0A221003032E7
:1028780020D09DD095D098D0A1D09FD0A0D090D076
:1028880092D09DD09ED0A1D0A2D0AC20D097D0A37A
:102898002100303320D09DD095D098D0A1D09FD0A2
:1028A800A0D090D092D09DD09ED0A1D0A2D0AC2064
:1028B800D090D0912000303420D09DD095D098D0A1
:1028C80097D092D095D0A1D0A2D09DD090D0AF2053
:1028D800D09AD09ED09CD090D09DD094D0902100FA
:1028E800303520D0A1D098D0A1D0A2D095D09CD0FE
:1028F8009020D09DD095D098D0A1D09FD0A0D09036
:10290800D092D09DD0902100303620D09DD095D047
:1029180098D0A1D09FD0A0D090D092D09DD09ED05A
:10292800A1D0A2D0AC20D09DD090D093D0A0D0A3DD
:10293800D097D09AD098210073746172742D6974FD
:102948000073746F702D69740073746172742D7ADA
:10295800750073746F702D7A750076657273696F80
:102968006E006765742D626F6172642D696400671B
:1029780065742D62617431006765742D626174320B
:10298800006765742D756F7374006765742D756FB6
:10299800736E007365742D757A740075737469723B
:1029A8002D6F6E0075737469722D6F66660073748F
:1029B8006172742D646961676E0040424154312030
:1029C8003D20004042415432203D20004049D0B7CC
:1029D800D0B0D0B13D25642E25642564003B20206D
:1029E800090040496B313D25642E2564256400406B
:1029F800496B323D25642E256425640040496B33BC
:102A08003D25642E25642564004049D0BDD0B0D052
:102A1800B3D1803D25642E25642564004049D18EBC
:102A2800D181D1823D25642E25642564003B202078
:102A380020200D0A004055D0B0D0B13D25642E2588
:102A4800642564004055D0BDD0B0D0B3D1803D25B9
:102A5800642E25642564003B2020200D0A002200F6
:102A6800220D0A005B005D005D0D0A004661696C7D
:102A7800757265207374617274656420666F722064
:102A88002564206D7300537461727420332073655C
:102A9800636F6E647320636F756E740033207365A3
:102AA8006300322073656300312073656300302052
:102AB800736563004661696C7572652066696E6945
:102AC800736865642000434D445F53544152545F1A
:102AD800495420D0B2D18BD0BFD0BED0BBD0BDD04E
:102AE800B5D0BDD0BE00434D445F53544F505F49ED
:102AF8005400434D445F53544152545F5A5520D0BB
:102B0800B2D18BD0BFD0BED0BBD0BDD0B5D0BDD098
:102B1800BE00434D445F53544F505F5A5520D0B2C6
:102B2800D18BD0BFD0BED0BBD0BDD0B5D0BDD0BE6C
:102B380000405645523D323031392E30332E323630
:102B48000D0A004049443D303030310D0A005365CC
:102B58007474696E6720557A7420746F3A20007611
:102B6800616C75653D2564005374617274696E67A4
:102B780020646961676E6F73746963206D6F646543
:102B88002100313A256400323A25640055616220FB
:102B98003D2025643B207A74203D2025643B205548
:102BA8007A6162203D20256400556162203D202520
:102BB80064000D0A00556F736E313D25640D0A00DF
:102BC800556F736E323D25640D0A00556F73743569
:102BD8003D25640D0A00556F7374343D25640D0A54
:102BE80000556F7374333D25640D0A00556F737477
:102BF800323D25640D0A00556F7374313D25640D0F
:022C08000A00C0
:00000001FF
