:100000000C945C000C9479000C9479000C947900A9
:100010000C9479000C9479000C9479000C9479007C
:100020000C9479000C9479000C9479000C9479006C
:100030000C9414080C9479000C9479000C947900B9
:100040000C9479000C9479000C94C80A0C947900F3
:100050000C9479000C9456080C9479000C94790057
:100060000C9479000C9479000C9479000C9479002C
:100070000C9479000C9479000C9479000C9479001C
:100080000C9479000C9479000C9479002A073207BB
:100090003A0742074A074F07540757075A075D07B1
:1000A0006007AD07AD07A407780AA908E908300979
:1000B0007709B709F709370A11241FBECFEFD0E13E
:1000C000DEBFCDBF13E0A0E0B1E0E6E4FEE102C098
:1000D00005900D92A03AB107D9F724E0A0EAB3E069
:1000E00001C01D92A63FB207E1F70E94B1060C9431
:1000F000210F0C940000CF93DF9300D0CDB7DEB773
:100100009A8389838BE290E0FC0110828AE290E07E
:1001100028E9FC01208385E990E026E0FC012083AA
:1001200080E990E029813A81232F3327FC01208345
:1001300089E290E02981FC01208300000F900F905C
:10014000DF91CF910895CF93DF9300D0CDB7DEB785
:100150009A8389831092A7032AC000008BE290E063
:10016000FC018081882F90E080729927892BB1F360
:100170008CE290E02091A703222F30E049815A8140
:10018000240F351FF9012081FC0120838091A703F2
:10019000882F90E029813A81820F931FFC01808192
:1001A0008A3091F08091A7038F5F8093A70380919D
:1001B000A703882F90E029813A81820F931FFC01C9
:1001C0008081882351F601C0000000000F900F903D
:1001D000DF91CF910895CF93DF93CDB7DEB78BE852
:1001E00090E021E8FC0120838AE890E029E0FC010E
:1001F00020838CE890E0FC01108286E890E02FE7F5
:1002000030E0FC01318320830000DF91CF9108951D
:10021000CF93DF931F92CDB7DEB719828AE390E0C8
:100220002981FC01208384E390E02981FC01208363
:1002300087E390E02981FC01208381E690E0298119
:10024000FC0120838BE390E02FEFFC01208388E307
:1002500090E02FEFFC01208385E390E02FEFFC017D
:10026000208388E1898384E690E02981FC01208352
:100270008AEE898382E290E02981FC0120830000DC
:100280000F90DF91CF910895CF93DF931F92CDB759
:10029000DEB785E690E0FC0180818983998180E169
:1002A0008927898385E690E02981FC01208300006D
:1002B0000F90DF91CF910895CF93DF93CDB7DEB745
:1002C00087E290E020E4FC01208386E290E02FECBE
:1002D000FC0120830000DF91CF910895CF93DF933D
:1002E00000D0CDB7DEB78A8383E290E0FC01808145
:1002F000898389818F7D89838A81813019F48981FD
:100300008062898383E290E02981FC0120830000E0
:100310000F900F90DF91CF910895CF93DF9300D08E
:10032000CDB7DEB78A8383E290E0FC0180818983C8
:1003300089818F7789838A81813019F489818068E6
:10034000898383E290E02981FC01208300000F90E3
:100350000F90DF91CF910895CF93DF9300D0CDB769
:10036000DEB79A83898346E850E089819A81969521
:100370008795969587959C01ABE7B4E10E94DA0BCF
:1003800096958795982F8827969587959C01ABE73A
:10039000B4E10E94DA0B96958795FA0191838083E8
:1003A00000000F900F90DF91CF910895CF93DF93CE
:1003B000CDB7DEB781E08093A2030000DF91CF913B
:1003C0000895CF93DF93CDB7DEB78091A20381303C
:1003D00029F41092A20381E08093A3030000DF912F
:1003E000CF910895CF93DF93CDB7DEB7C456D1092F
:1003F0000FB6F894DEBF0FBECDBF1C821B8289E30F
:1004000090E0FC018081282F30E083E390E0FC0144
:100410008081882F90E08F709927982F8827820FEE
:10042000931F9C838B83CE01059629E0ECE1F2E0DB
:10043000DC0101900D922A95E1F71A82198243C0DE
:1004400081E090E0098002C0880F991F0A94E2F7CA
:100450009C018B819C8182239323892BC1F4CE0143
:1004600005969C01F90101900020E9F7CF01019761
:10047000821B930B9E012B5F3F4F820F931F20E344
:1004800030E2FC0131832083FC01128217C0CE01CF
:1004900005969C01F90101900020E9F7CF01019731
:1004A000821B930B9E012B5F3F4F820F931F21E313
:1004B00030E2FC0131832083FC01128289819A8120
:1004C00001969A83898389819A810C9708F4B8CF21
:1004D000CE0105969C01F90101900020E9F7CF01BA
:1004E0000197821B930B9E012B5F3F4F820F931F3F
:1004F0002BE33DE0FC01318320832AE030E0FC0166
:1005000033832283CE0105960E94A3000000CC59BC
:10051000DF4F0FB6F894DEBF0FBECDBFDF91CF9196
:100520000895CF93DF93CDB7DEB7C456D1090FB688
:10053000F894DEBF0FBECDBF1C821B8283E390E028
:10054000FC01808182958F70282F30E086E390E057
:10055000FC018081882F90E082959295907F98276A
:10056000807F9827822B932B9C838B83CE010596CB
:1005700029E0E5E2F2E0DC0101900D922A95E1F735
:100580001A82198243C081E090E0098002C0880F7E
:10059000991F0A94E2F79C018B819C81822393230B
:1005A000892BC1F4CE0105969C01F9010190002030
:1005B000E9F7CF010197821B930B9E012B5F3F4F01
:1005C000820F931F20E330E2FC0131832083FC0182
:1005D000128217C0CE0105969C01F90101900020FE
:1005E000E9F7CF010197821B930B9E012B5F3F4FD1
:1005F000820F931F21E330E2FC0131832083FC0151
:10060000128289819A8101969A83898389819A814C
:100610000C9708F4B8CFCE0105969C01F901019022
:100620000020E9F7CF010197821B930B9E012B5FFE
:100630003F4F820F931F2BE33DE0FC01318320836A
:100640002AE030E0FC0133832283CE0105960E942C
:10065000A3000000CC59DF4F0FB6F894DEBF0FBEE9
:10066000CDBFDF91CF910895CF93DF93CDB7DEB7A4
:10067000C156D1090FB6F894DEBF0FBECDBF809131
:10068000E6049091E70424E630E0B9010E949E0B55
:10069000898399818DEC989F812D1124869586956B
:1006A0008695880F282F220F220F820F292F281BB3
:1006B000822FE82FF0E099818DEC989F812D1124F5
:1006C000869586958695282F30E08091E604909156
:1006D000E70444E650E0BA010E949E0BCB014F2F85
:1006E0004F934E2F4F93432F4F932F93292F2F9399
:1006F0008F938EE292E0892F8F938EE292E08F9318
:10070000CE010296292F2F938F930E94370C8DB71D
:100710009EB70A960FB6F894DEBF0FBECDBFCE01CE
:1007200002969C01F90101900020E9F7CF010197A1
:10073000821B930B9E012E5F3F4F820F931F2BE373
:1007400039E0FC0131832083FC011282CE01029644
:100750000E94A3008091F2049091F30424E630E01B
:10076000B9010E949E0B898399818DEC989F812D00
:100770001124869586958695880F282F220F220FA3
:10078000820FF92FF81B8F2FE82FF0E099818DEC65
:10079000989F812D1124869586958695282F30E087
:1007A0008091F2049091F30444E650E0BA010E9473
:1007B0009E0BCB014F2F4F934E2F4F93432F4F93B1
:1007C0002F93292F2F938F938DE392E0892F8F936F
:1007D0008DE392E08F93CE010296292F2F938F9372
:1007E0000E94370C8DB79EB70A960FB6F894DEBFFD
:1007F0000FBECDBFCE0102969C01F90101900020F1
:10080000E9F7CF010197821B930B9E012E5F3F4FAB
:10081000820F931F2BE339E0FC0131832083FC011D
:100820001282CE0102960E94A3008091E80490916A
:10083000E90424E630E0B9010E949E0B8983998186
:100840008DEC989F812D1124869586958695880F2D
:10085000282F220F220F820FF92FF81B8F2FE82F3E
:10086000F0E099818DEC989F812D112486958695D5
:100870008695282F30E08091E8049091E90444E6C1
:1008800050E0BA010E949E0BCB014F2F4F934E2F89
:100890004F93432F4F932F93292F2F938F938CE4B4
:1008A00092E0892F8F938CE492E08F93CE01029691
:1008B000292F2F938F930E94370C8DB79EB70A96DE
:1008C0000FB6F894DEBF0FBECDBFCE0102969C01DD
:1008D000F90101900020E9F7CF010197821B930BEA
:1008E0009E012E5F3F4F820F931F2BE339E0FC01E7
:1008F00031832083FC011282CE0102960E94A30064
:100900008091F4049091F50424E630E0B9010E944E
:100910009E0B898399818DEC989F812D112486955A
:1009200086958695880F282F220F220F820FF92F88
:10093000F81B8F2FE82FF0E099818DEC989F812D87
:100940001124869586958695282F30E08091F404B1
:100950009091F50444E650E0BA010E949E0BCB0151
:100960004F2F4F934E2F4F93432F4F932F93292F5A
:100970002F938F938BE592E0892F8F938BE592E0F5
:100980008F93CE010296292F2F938F930E94370CBD
:100990008DB79EB70A960FB6F894DEBF0FBECDBFD7
:1009A000CE0102969C01F90101900020E9F7CF01E8
:1009B0000197821B930B9E012E5F3F4F820F931F67
:1009C0002BE339E0FC0131832083FC011282CE014C
:1009D00002960E94A3008091CC049091CD0424E65D
:1009E00030E0B9010E949E0B898399818DEC989F1C
:1009F000812D1124869586958695880F282F220FA4
:100A0000220F820FF92FF81B8F2FE82FF0E099812A
:100A10008DEC989F812D1124869586958695282F9B
:100A200030E08091CC049091CD0444E650E0BA01CE
:100A30000E949E0BCB014F2F4F934E2F4F93432F6E
:100A40004F932F93292F2F938F938AE692E0892F2C
:100A50008F938AE692E08F93CE010296292F2F93EF
:100A60008F930E94370C8DB79EB70A960FB6F894F5
:100A7000DEBF0FBECDBFCE0102969C01F9010190F1
:100A80000020E9F7CF010197821B930B9E012E5F97
:100A90003F4F820F931F2BE33DE0FC013183208306
:100AA0002AE030E0FC0133832283CE0102960E94CB
:100AB000A3000000CF59DF4F0FB6F894DEBF0FBE82
:100AC000CDBFDF91CF910895CF93DF93CDB7DEB740
:100AD000C156D1090FB6F894DEBF0FBECDBF8091CD
:100AE000EE049091EF0424E630E0B9010E949E0BE1
:100AF000898399818DEC989F812D11248695869507
:100B00008695880F282F220F220F820F292F281B4E
:100B1000822FE82FF0E099818DEC989F812D112490
:100B2000869586958695282F30E08091EE049091E9
:100B3000EF0444E650E0BA010E949E0BCB014F2F18
:100B40004F934E2F4F93432F4F932F93292F2F9334
:100B50008F9389E792E0892F8F9389E792E08F93B3
:100B6000CE010296292F2F938F930E94370C8DB7B9
:100B70009EB70A960FB6F894DEBF0FBECDBFCE016A
:100B800002969C01F90101900020E9F7CF0101973D
:100B9000821B930B9E012E5F3F4F820F931F2BE30F
:100BA00039E0FC0131832083FC011282CE010296E0
:100BB0000E94A3008091EC049091ED0424E630E0C3
:100BC000B9010E949E0B898399818DEC989F812D9C
:100BD0001124869586958695880F282F220F220F3F
:100BE000820FF92FF81B8F2FE82FF0E099818DEC01
:100BF000989F812D1124869586958695282F30E023
:100C00008091EC049091ED0444E650E0BA010E941A
:100C10009E0BCB014F2F4F934E2F4F93432F4F934C
:100C20002F93292F2F938F9388E892E0892F8F930A
:100C300088E892E08F93CE010296292F2F938F930D
:100C40000E94370C8DB79EB70A960FB6F894DEBF98
:100C50000FBECDBFCE0102969C01F901019000208C
:100C6000E9F7CF010197821B930B9E012E5F3F4F47
:100C7000820F931F2BE33DE0FC01318320832AE0A8
:100C800030E0FC0133832283CE0102960E94A30050
:100C90000000CF59DF4F0FB6F894DEBF0FBECDBFB7
:100CA000DF91CF910895CF93DF9300D01F92CDB7FE
:100CB000DEB789837B836A8387E992E00E94A30081
:100CC0008981882F90E0880F991F80509F4FFC01E9
:100CD000808191810E94A30089E992E00E94A30093
:100CE00000000F900F900F90DF91CF910895CF9358
:100CF000DF9300D0CDB7DEB79A8389838091370127
:100D0000882361F08DE992E00E94A30089819A8195
:100D10000E94A3008FE992E00E94A30000000F90C0
:100D20000F90DF91CF910895CF93DF9300D0CDB78F
:100D3000DEB79A83898380913701882361F08DE93A
:100D400092E00E94A30089819A810E94A30081EA17
:100D500092E00E94A30000000F900F90DF91CF91CE
:100D60000895CF93DF93CDB7DEB7CA56D1090FB63A
:100D7000F894DEBF0FBECDBFCE0189599F4F2BE146
:100D8000FC012083CE0189599F4F2BE5FC01218373
:100D9000CE0189599F4F21E4FC012283CE0189595C
:100DA0009F4FFC0113820E9408010E94EB000E94E9
:100DB000440180E090E00E947B000E945C0186E29A
:100DC00090E026E230E0F90120812064FC012083DC
:100DD00060E070E080E00E94530678948091A10367
:100DE000813009F0E5C01A821982BEC029813A819A
:100DF000C901880F991F820F931F865F9E4FFC01C8
:100E000080819181BC0188EA93E00E94260C892BA5
:100E100009F0A5C029813A81C901880F991F820F65
:100E2000931F845F9E4FFC018081882F90E0092EE4
:100E3000000CAA0BBB0B40E050E02DE030E0841B1F
:100E4000950B2817390708F486C08A5B9F4FFC0171
:100E50000C94D40B81E00E946E0185EA92E00E941E
:100E600094067CC080E00E946E018CEB92E00E94B0
:100E7000940674C081E00E948D0182ED92E00E9490
:100E800094066CC080E00E948D0189EE92E00E9481
:100E9000940664C08FEF92E00E94A3005FC081E1DE
:100EA00093E00E94A3005AC00E94F20157C00E9422
:100EB000910254C00E94340351C00E9464054EC088
:100EC0008CE193E00E94770688EA93E09C838B8311
:100ED00005C08B819C8101969C838B838B819C8137
:100EE000FC0180818823A9F78B819C8101969C83DA
:100EF0008B838B819C810E9494068B819C810E94B4
:100F0000080C9E838D838E818F938D818F938DE2CC
:100F100093E0892F8F938DE293E08F93CE01079614
:100F2000292F2F938F930E94370C0F900F900F90C3
:100F30000F900F900F90CE0107960E9494068D811E
:100F40009E810E94AC010AC086E393E00E94940651
:100F50000E94D60103C0000016C0000014C08981A1
:100F60009A8101969A83898329813A81C901880FE0
:100F7000991F820F931F865F9E4FFC018081918194
:100F8000892B09F033CF29813A81C901880F991F34
:100F9000820F931F865F9E4FFC0180819181892B78
:100FA00029F460E070E084E00E9453061092A103EF
:100FB0008091A3038130B1F41092A30380E593E004
:100FC0000E94A30080E593E00E94A30080E593E0E7
:100FD0000E94A30080E593E00E94A30080E593E0D7
:100FE0000E94A3008091A203813009F0F7CE0E94F5
:100FF000F2010E9491020E9464050E943403CE0116
:1010000089599F4F0E94A300CE0189599F4F0E948A
:10101000A300CE0189599F4F0E94A300CE01895998
:101020009F4F0E94A300DACE1F920F9200905F00A4
:101030000F9211242F933F934F935F936F937F935E
:101040008F939F93AF93BF93EF93FF93CF93DF93D0
:10105000CDB7DEB780913801909139010197909317
:101060003901809338018091380190913901892BA1
:1010700041F40E94440184EF91E090933901809300
:1010800038010000DF91CF91FF91EF91BF91AF91B7
:101090009F918F917F916F915F914F913F912F9190
:1010A0000F9000925F000F901F9018951F920F9263
:1010B00000905F000F9211242F933F934F935F9303
:1010C0006F937F938F939F93AF93BF93EF93FF9310
:1010D000CF93DF9300D000D0CDB7DEB784E290E0AD
:1010E000FC018081882F90E0A0E0B0E089839A83A2
:1010F000AB83BC8385E290E0FC018081882F90E087
:10110000982F8827092E000CAA0BBB0B29813A8146
:101110004B815C81822B932BA42BB52B89839A83E3
:10112000AB83BC838091A603882F90E0092E000C2E
:10113000AA0BBB0B40E050E027E030E0841B950B8E
:101140002817390708F4D2C18C5A9F4FFC010C9420
:10115000D40B29813A814B815C8184EF91E0DC01E1
:101160000E94E90BDC01CB012FEF33E040E050E0BF
:10117000BC01CD010E94B20BDA01C9019093EF04CA
:101180008093EE048091EE049091EF04292F2F9329
:101190008F9383E593E0892F8F9383E593E08F937B
:1011A00088E094E0892F8F9388E094E08F930E94E9
:1011B000370C0F900F900F900F900F900F90809121
:1011C000A003882309F496C188E094E00E94A3005C
:1011D00091C129813A814B815C8184EF91E0DC01EE
:1011E0000E94E90BDC01CB012FEF33E040E050E03F
:1011F000BC01CD010E94B20BDA01C9019C0144E19E
:10120000429FC001439F900D11249093E704809367
:10121000E6048091E6049091E704292F2F938F93A1
:101220008EE593E0892F8F938EE593E08F9388E08E
:1012300094E0892F8F9388E094E08F930E94370C7D
:101240000F900F900F900F900F900F908091A00330
:10125000882309F451C188E094E00E94A3004CC1A6
:1012600029813A814B815C8184EF91E0DC010E940D
:10127000E90BDC01CB012FEF33E040E050E0BC0193
:10128000CD010E94B20BDA01C9019C0144E1429FE9
:10129000C001439F900D11249093ED048093EC04C2
:1012A0008091EC049091ED04292F2F938F9389E680
:1012B00093E0892F8F9389E693E08F9388E094E001
:1012C000892F8F9388E094E08F930E94370C0F90C2
:1012D0000F900F900F900F900F908091A003882394
:1012E00009F40CC188E094E00E94A30007C12981A1
:1012F0003A814B815C8184EF91E0DC010E94E90B33
:10130000DC01CB012FEF33E040E050E0BC01CD0128
:101310000E94B20BDA01C9019093CD048093CC04F2
:101320008091CC049091CD04292F2F938F9384E743
:1013300093E0892F8F9384E793E08F9388E094E084
:10134000892F8F9388E094E08F930E94370C0F9041
:101350000F900F900F900F900F908091A003882313
:1013600009F4CEC088E094E00E94A300C9C029819E
:101370003A814B815C8184EF91E0DC010E94E90BB2
:10138000DC01CB012FEF33E040E050E0BC01CD01A8
:101390000E94B20BDA01C9019093F5048093F40422
:1013A0008091F4049091F504292F2F938F938FE768
:1013B00093E0892F8F938FE793E08F9388E094E0F9
:1013C000892F8F9388E094E08F930E94370C0F90C1
:1013D0000F900F900F900F900F908091A003882393
:1013E00009F490C088E094E00E94A3008BC029819A
:1013F0003A814B815C8184EF91E0DC010E94E90B32
:10140000DC01CB012FEF33E040E050E0BC01CD0127
:101410000E94B20BDA01C9019093E9048093E804B9
:101420008091E8049091E904292F2F938F938AE803
:1014300093E0892F8F938AE893E08F9388E094E07C
:10144000892F8F9388E094E08F930E94370C0F9040
:101450000F900F900F900F900F908091A003882312
:1014600009F452C088E094E00E94A3004DC0298195
:101470003A814B815C8184EF91E0DC010E94E90BB1
:10148000DC01CB012FEF33E040E050E0BC01CD01A7
:101490000E94B20BDA01C9019093F3048093F20425
:1014A0008091F2049091F304292F2F938F9385E973
:1014B00093E0892F8F9385E993E08F9388E094E000
:1014C000892F8F9388E094E08F930E94370C0F90C0
:1014D0000F900F900F900F900F908091A003882392
:1014E000A9F088E094E00E94A30010C000000FC0A3
:1014F00000000DC000000BC0000009C0000007C0C4
:10150000000005C0000003C0000001C00000809181
:10151000A6038F5F8093A6038091A603883010F006
:101520001092A60387E290E027E230E0F9012081E3
:10153000287FFC01208387E290E027E230E0F90178
:1015400030812091A603232BFC01208386E290E0CA
:1015500026E230E0F90120812064FC0120830000B4
:101560000F900F900F900F90DF91CF91FF91EF911F
:10157000BF91AF919F918F917F916F915F914F91AB
:101580003F912F910F9000925F000F901F90189540
:101590001F920F9200905F000F9211242F933F93A0
:1015A0004F935F936F937F938F939F93AF93BF936B
:1015B000EF93FF93CF93DF9300D01F92CDB7DEB7A9
:1015C0008CE290E0FC0180818B838B81882F90E0FE
:1015D0008B31910539F08F37910509F45AC00D9779
:1015E00021F06CC00E94E10191C08091A403909110
:1015F000A503892B29F480E593E00E94A30086C00F
:101600008091A4039091A50388599B4FFC011082FF
:101610001A8219821FC089819A8188599B4FFC01C7
:10162000208189819A8188559C4FFC012083898182
:101630009A8188559C4FFC018081803231F48981E8
:101640009A8188559C4FFC01108289819A8101966C
:101650009A83898389819A8188599B4FFC01808173
:10166000882329F089819A8180369105A0F28981A9
:101670009A8188559C4FFC0110821092A50310920C
:10168000A40380E593E00E94A30081E08093A1037E
:101690003DC08091A4039091A503892B49F08091CE
:1016A000A4039091A50301979093A5038093A403AD
:1016B0008CE290E02B81FC01208328C08091A40360
:1016C0009091A50388599B4F2B81FC012083809129
:1016D000A4039091A50301969093A5038093A4037E
:1016E0008091A4039091A5038136910548F08091E3
:1016F000A4039091A50301979093A5038093A4035D
:101700008CE290E02B81FC012083000000000F9010
:101710000F900F90DF91CF91FF91EF91BF91AF911B
:101720009F918F917F916F915F914F913F912F91F9
:101730000F9000925F000F901F90189597FB072E57
:1017400016F4009407D077FD09D00E94F40B07FC33
:1017500005D03EF4909581959F4F089570956195C1
:101760007F4F0895A1E21A2EAA1BBB1BFD010DC0DD
:10177000AA1FBB1FEE1FFF1FA217B307E407F50741
:1017800020F0A21BB30BE40BF50B661F771F881F1D
:10179000991F1A9469F760957095809590959B01B3
:1017A000AC01BD01CF010895EE0FFF1F0590F4912C
:1017B000E02D0994A29FB001B39FC001A39F700DBB
:1017C000811D1124911DB29F700D811D1124911D49
:1017D00008950E94DA0BA59F900DB49F900DA49FD1
:1017E000800D911D11240895AA1BBB1B51E107C058
:1017F000AA1FBB1FA617B70710F0A61BB70B881FA1
:10180000991F5A95A9F780959095BC01CD0108952F
:10181000FC0188279927E89421912032E9F32930A7
:1018200010F02E30C8F32B3241F02D3239F4689489
:1018300004C00E942F0C820F911D219120532A3049
:10184000C0F31EF4909581959F4F0895FB01DC0134
:101850008D91019080190110D9F3990B08957AE0C8
:10186000979F902D879F802D910D11240895AEE0B4
:10187000B0E0EDE3FCE00C94F80E0D891E8986E0E3
:101880008C831A8309838FEF9FE79E838D83AE013C
:10189000475E5F4F6F89788DCE0101960E94590C8B
:1018A000EF81F885E00FF11F10822E96E4E00C9492
:1018B000140FABE0B0E0EFE5FCE00C94EA0E6C0135
:1018C0007B018A01FC0117821682838181FFCCC1D2
:1018D000CE0101963C01F6019381F70193FD8591BC
:1018E00093FF81917F01882309F4BAC1853239F4CD
:1018F00093FD859193FF81917F01853229F4B60193
:1019000090E00E94500EE7CF912C212C312CFFE16A
:10191000F315D8F08B3279F038F4803279F08332D5
:10192000A1F4232D20611DC08D3261F0803369F454
:10193000232D216016C0832D8260382EE32DE460B4
:101940003E2E2AC0F32DF8601DC037FC2DC020EDBF
:10195000280F2A3040F08E32B9F436FC81C1232D95
:101960002064322E19C036FE06C08AE0989E200DF3
:101970001124922E11C0EAE02E9E200D1124222E59
:10198000F32DF0623F2E08C08C3621F4832D806841
:10199000382E02C0883641F4F70193FD859193FFFC
:1019A00081917F018111B3CF982F9F7D9554933002
:1019B00028F40C5F1F4F9FE399830DC0833631F0ED
:1019C000833771F0833509F059C021C0F801808157
:1019D00089830E5F1F4F88248394912C530113C079
:1019E0002801F2E04F0E511CF801A080B18036FEB4
:1019F00003C0692D70E002C06FEF7FEFC5010E9448
:101A0000450E4C018201F32DFF773F2E16C02801B1
:101A100022E0420E511CF801A080B18036FE03C0C6
:101A2000692D70E002C06FEF7FEFC5010E943A0E92
:101A30004C01F32DF0683F2E820133FC1BC0822D38
:101A400090E088169906B0F4B60180E290E00E941A
:101A5000500E2A94F4CFF50137FC859137FE819121
:101A60005F01B60190E00E94500E21102A9421E0FF
:101A7000821A91088114910471F7E8C0843611F03C
:101A8000893641F5F80137FE07C060817181828196
:101A900093810C5F1F4F08C060817181072E000C7D
:101AA000880B990B0E5F1F4FF32DFF763F2E97FF8C
:101AB00009C090958095709561957F4F8F4F9F4F8E
:101AC000F0683F2E2AE030E0A3010E948C0E882EA1
:101AD000861845C0853731F4232D2F7EB22E2AE09B
:101AE00030E025C0932D997FB92E8F36C1F018F4C0
:101AF000883579F0B5C0803719F0883721F0B0C04B
:101B0000E92FE061BE2EB4FE0DC0FB2DF460BF2EA8
:101B100009C034FE0AC0292F2660B22E06C028E074
:101B200030E005C020E130E002C020E132E0F80101
:101B3000B7FE07C060817181828193810C5F1F4F66
:101B400006C06081718180E090E00E5F1F4FA301AD
:101B50000E948C0E882E8618FB2DFF773F2E36FEB6
:101B60000DC0232D2E7FA22E891458F434FE0BC0F5
:101B700032FC09C0832D8E7EA82E05C0B82CA32C64
:101B800003C0B82C01C0B92CA4FE0FC0FE01E80DA3
:101B9000F11D8081803321F49A2D997EA92E09C0F0
:101BA000A2FE06C0B394B39404C08A2D867809F0CF
:101BB000B394A3FC11C0A0FE06C0B21488F4280C94
:101BC000922C9B180EC0B21460F4B60180E290E033
:101BD0000E94500EB394F7CFB21418F42B1802C021
:101BE000982C212CA4FE10C0B60180E390E00E9446
:101BF000500EA2FE17C0A1FC03C088E790E002C00F
:101C000088E590E0B6010CC08A2D867859F0A1FED7
:101C100002C08BE201C080E2A7FC8DE2B60190E039
:101C20000E94500E891438F4B60180E390E00E94BF
:101C3000500E9A94F7CF8A94F301E80DF11D80813C
:101C4000B60190E00E94500E8110F5CF222009F4D9
:101C500042CEB60180E290E00E94500E2A94F6CF68
:101C6000F6018681978102C08FEF9FEF2B96E2E10C
:101C70000C94060FFC010590615070400110D8F7DC
:101C8000809590958E0F9F1F0895FC0161507040C4
:101C900001900110D8F7809590958E0F9F1F0895A1
:101CA0000F931F93CF93DF93FB01238121FD03C08B
:101CB0008FEF9FEF2CC022FF16C0468157812481F1
:101CC00035814217530744F4A081B1819D012F5FF4
:101CD0003F4F318320838C93268137812F5F3F4F85
:101CE0003783268314C08B01EC01FB010084F1854E
:101CF000E02D0995892BE1F6D80116968D919C91DE
:101D00001797019617969C938E931697CE01DF91A5
:101D1000CF911F910F910895FA01AA27283051F110
:101D2000203181F1E8946F936E7F6E5F7F4F8F4F0C
:101D30009F4FAF4FB1E03ED0B4E03CD0670F781F6B
:101D4000891F9A1FA11D680F791F8A1F911DA11D50
:101D50006A0F711D811D911DA11D20D009F4689489
:101D60003F912AE0269F11243019305D3193DEF631
:101D7000CF010895462F4770405D4193B3E00FD0E7
:101D8000C9F7F6CF462F4F70405D4A3318F0495DD2
:101D900031FD4052419302D0A9F7EACFB4E0A695B5
:101DA0009795879577956795BA95C9F700976105D7
:101DB000710508959B01AC010A2E0694579547952D
:101DC00037952795BA95C9F7620F731F841F951F22
:101DD000A01D08952F923F924F925F926F927F9233
:101DE0008F929F92AF92BF92CF92DF92EF92FF922B
:101DF0000F931F93CF93DF93CDB7DEB7CA1BDB0BD7
:101E00000FB6F894DEBF0FBECDBF09942A8839887B
:101E100048885F846E847D848C849B84AA84B98482
:101E2000C884DF80EE80FD800C811B81AA81B9818E
:101E3000CE0FD11D0FB6F894DEBF0FBECDBFED01A2
:061E40000895F894FFCFA5
:101E46003A0143015C01700184019A0100A301017A
:101E5600AB0102B40103BC0104C40105D10106DAD9
:101E66000107E30108EC0109F5010AFD010B060271
:101E76000C10020D00000E01F401303020524541D5
:101E8600445900303120504F574552205355505039
:101E96004C59204641494C55524521003032204389
:101EA600484152474552204641494C55524521002A
:101EB60030332042415454455259204641494C55ED
:101EC60052452000303420434F4D4D414E44204E64
:101ED6004F5420464F554E44210073746172742D41
:101EE60069740073746F702D697400737461727411
:101EF6002D7A750073746F702D7A7500766572731E
:101F0600696F6E006765742D626F6172642D696416
:101F1600006765742D62617431006765742D6261B6
:101F26007432006765742D756F7374006765742D60
:101F3600756F736E007365742D757A74007573749E
:101F460069722D6F6E0075737469722D6F66660007
:101F560073746172742D646961676E004042415406
:101F660031203D20004042415432203D2000405562
:101F76006F7374313D25642E256425640040556FCA
:101F86007374323D25642E256425640040556F73B5
:101F960074333D25642E256425640040556F7374A3
:101FA600343D25642E256425640040556F737435D1
:101FB6003D25642E256425640040556F736E313DC2
:101FC60025642E256425640040556F736E323D25C9
:101FD600642E25642564002200220D0A005B005D44
:101FE600005D0D0A00434D445F53544152545F490E
:101FF600542066696E69736865642100434D445FC9
:1020060053544F505F49542066696E69736865641E
:102016002100434D445F53544152545F5A55206644
:10202600696E69736865642100434D445F53544F7C
:10203600505F5A552066696E697368656421004071
:102046005645523D323031392E30332E32360D0A56
:10205600004049443D303030310D0A0053657474F8
:10206600696E6720557A7420746F3A200076616C29
:1020760075653D2564005374617274696E672064EA
:102086006961676E6F73746963206D6F64652100A3
:102096000D0A00556F736E313D25640D0A00556FAC
:1020A6007374313D25640D0A00556F736E323D25FC
:1020B600640D0A00556F7374353D25640D0A00558D
:1020C6006F7374343D25640D0A00556F7374333D88
:1020D60025640D0A00556F7374323D25640D0A00A0
:00000001FF
