:100000000C945C000C9479000C9479000C947900A9
:100010000C9479000C9479000C9479000C9479007C
:100020000C9479000C9479000C9479000C9479006C
:100030000C949B070C9479000C9479000C94790033
:100040000C9479000C9479000C944F0A0C9479006C
:100050000C9479000C94DD070C9479000C947900D1
:100060000C9479000C9479000C9479000C9479002C
:100070000C9479000C9479000C9479000C9479001C
:100080000C9479000C9479000C947900E506ED0647
:10009000F506FD0605070A070F07120715071807DB
:1000A0001B076E076E076907FF0930087708BE084F
:1000B000FE083E097E09BE0911241FBECFEFD0E124
:1000C000DEBFCDBF13E0A0E0B1E0EAE2FDE102C097
:1000D00005900D92AE38B107D9F724E0AEE8B3E051
:1000E00001C01D92A338B207E1F70E9487060C9465
:1000F000930E0C940000CF93DF9300D0CDB7DEB702
:100100009A8389838BE290E0FC0110828AE290E07E
:1001100028E9FC01208385E990E026E0FC012083AA
:1001200080E990E029813A81232F3327FC01208345
:1001300089E290E02981FC01208300000F900F905C
:10014000DF91CF910895CF93DF9300D0CDB7DEB785
:100150009A838983109294032AC000008BE290E076
:10016000FC018081882F90E080729927892BB1F360
:100170008CE290E020919403222F30E049815A8153
:10018000240F351FF9012081FC0120838091940305
:10019000882F90E029813A81820F931FFC01808192
:1001A0008A3091F0809194038F5F809394038091C3
:1001B0009403882F90E029813A81820F931FFC01DC
:1001C0008081882351F601C0000000000F900F903D
:1001D000DF91CF910895CF93DF93CDB7DEB78BE852
:1001E00090E021E8FC0120838AE890E029E0FC010E
:1001F00020838CE890E0FC01108286E890E02FE7F5
:1002000030E0FC01318320830000DF91CF9108951D
:10021000CF93DF931F92CDB7DEB719828AE390E0C8
:100220002981FC01208384E390E02981FC01208363
:1002300087E390E02981FC01208381E690E0298119
:10024000FC0120838BE390E02FEFFC01208388E307
:1002500090E02FEFFC01208385E390E02FEFFC017D
:10026000208388E1898384E690E02981FC01208352
:100270008AEE898382E290E02981FC0120830000DC
:100280000F90DF91CF910895CF93DF931F92CDB759
:10029000DEB785E690E0FC0180818983998180E169
:1002A0008927898385E690E02981FC01208300006D
:1002B0000F90DF91CF910895CF93DF93CDB7DEB745
:1002C00087E290E020E4FC01208386E290E02FECBE
:1002D000FC0120830000DF91CF910895CF93DF933D
:1002E00000D0CDB7DEB78A8383E290E0FC01808145
:1002F000898389818F7D89838A81813019F48981FD
:100300008062898383E290E02981FC0120830000E0
:100310000F900F90DF91CF910895CF93DF9300D08E
:10032000CDB7DEB78A8383E290E0FC0180818983C8
:1003300089818F7789838A81813019F489818068E6
:10034000898383E290E02981FC01208300000F90E3
:100350000F90DF91CF910895CF93DF9300D0CDB769
:10036000DEB79A83898346E850E089819A81969521
:100370008795969587959C01ABE7B4E10E944C0B5D
:1003800096958795982F8827969587959C01ABE73A
:10039000B4E10E944C0B96958795FA019183808376
:1003A00000000F900F90DF91CF910895CF93DF93CE
:1003B000CDB7DEB781E0809390030000DF91CF914D
:1003C0000895CF93DF93CDB7DEB71092900300006E
:1003D000DF91CF910895CF93DF93CDB7DEB7E49748
:1003E0000FB6F894DEBF0FBECDBF1C821B8289E31F
:1003F00090E0FC018081282F30E083E390E0FC0155
:100400008081882F90E08F709927982F8827820FFE
:10041000931F9C838B83CE01059629E0ECE1F2E0EB
:10042000DC0101900D922A95E1F71A82198243C0EE
:1004300081E090E0098002C0880F991F0A94E2F7DA
:100440009C018B819C8182239323892BC1F4CE0153
:1004500005969C01F90101900020E9F7CF01019771
:10046000821B930B9E012B5F3F4F820F931F20E354
:1004700030E2FC0131832083FC01128217C0CE01DF
:1004800005969C01F90101900020E9F7CF01019741
:10049000821B930B9E012B5F3F4F820F931F21E323
:1004A00030E2FC0131832083FC01128289819A8130
:1004B00001969A83898389819A810C9708F4B8CF31
:1004C000CE0105969C01F90101900020E9F7CF01CA
:1004D0000197821B930B9E012B5F3F4F820F931F4F
:1004E0002BE33DE0FC01318320832AE030E0FC0176
:1004F00033832283CE0105960E94A3000000E49678
:100500000FB6F894DEBF0FBECDBFDF91CF91089537
:10051000CF93DF93CDB7DEB7E4970FB6F894DEBF85
:100520000FBECDBF1C821B8283E390E0FC01808163
:1005300082958F70282F30E086E390E0FC01808167
:10054000882F90E082959295907F9827807F9827BA
:10055000822B932B9C838B83CE01059629E0E5E2C9
:10056000F2E0DC0101900D922A95E1F71A821982DE
:1005700043C081E090E0098002C0880F991F0A946F
:10058000E2F79C018B819C8182239323892BC1F408
:10059000CE0105969C01F90101900020E9F7CF01F9
:1005A0000197821B930B9E012B5F3F4F820F931F7E
:1005B00020E330E2FC0131832083FC01128217C06A
:1005C000CE0105969C01F90101900020E9F7CF01C9
:1005D0000197821B930B9E012B5F3F4F820F931F4E
:1005E00021E330E2FC0131832083FC011282898106
:1005F0009A8101969A83898389819A810C9708F45C
:10060000B8CFCE0105969C01F90101900020E9F7D1
:10061000CF010197821B930B9E012B5F3F4F820FEF
:10062000931F2BE33DE0FC01318320832AE030E07F
:10063000FC0133832283CE0105960E94A3000000B3
:10064000E4960FB6F894DEBF0FBECDBFDF91CF9119
:100650000895CF93DF93CDB7DEB7C156D1090FB65A
:10066000F894DEBF0FBECDBF8091730490917404E7
:1006700024E630E0B9010E94100B898399818DEC4A
:10068000989F812D1124869586958695880F282F11
:10069000220F220F820F292F281B822FE82FF0E034
:1006A00099818DEC989F812D11248695869586954C
:1006B000282F30E0809173049091740444E650E058
:1006C000BA010E94100BCB014F2F4F934E2F4F9327
:1006D000432F4F932F93292F2F938F938EE292E0E6
:1006E000892F8F938EE292E08F93CE010296292F6D
:1006F0002F938F930E94A90B8DB79EB70A960FB6C2
:10070000F894DEBF0FBECDBFCE0102969C01F90169
:1007100001900020E9F7CF010197821B930B9E0106
:100720002E5F3F4F820F931F2BE339E0FC01318393
:100730002083FC011282CE0102960E94A3008091C8
:100740007F049091800424E630E0B9010E94100BF0
:10075000898399818DEC989F812D112486958695AA
:100760008695880F282F220F220F820FF92FF81B52
:100770008F2FE82FF0E099818DEC989F812D112427
:10078000869586958695282F30E080917F049091FC
:10079000800444E650E0BA010E94100BCB014F2FB9
:1007A0004F934E2F4F93432F4F932F93292F2F93D8
:1007B0008F938DE392E0892F8F938DE392E08F9357
:1007C000CE010296292F2F938F930E94A90B8DB7EC
:1007D0009EB70A960FB6F894DEBF0FBECDBFCE010E
:1007E00002969C01F90101900020E9F7CF010197E1
:1007F000821B930B9E012E5F3F4F820F931F2BE3B3
:1008000039E0FC0131832083FC011282CE01029683
:100810000E94A300809175049091760424E630E054
:10082000B9010E94100B898399818DEC989F812DCD
:100830001124869586958695880F282F220F220FE2
:10084000820FF92FF81B8F2FE82FF0E099818DECA4
:10085000989F812D1124869586958695282F30E0C6
:10086000809175049091760444E650E0BA010E94AC
:10087000100BCB014F2F4F934E2F4F93432F4F937E
:100880002F93292F2F938F938CE492E0892F8F93AE
:100890008CE492E08F93CE010296292F2F938F93B1
:1008A0000E94A90B8DB79EB70A960FB6F894DEBFCB
:1008B0000FBECDBFCE0102969C01F9010190002030
:1008C000E9F7CF010197821B930B9E012E5F3F4FEB
:1008D000820F931F2BE339E0FC0131832083FC015D
:1008E0001282CE0102960E94A30080918104909111
:1008F000820424E630E0B9010E94100B89839981BB
:100900008DEC989F812D1124869586958695880F6C
:10091000282F220F220F820FF92FF81B8F2FE82F7D
:10092000F0E099818DEC989F812D11248695869514
:100930008695282F30E0809181049091820444E6CE
:1009400050E0BA010E94100BCB014F2F4F934E2F56
:100950004F93432F4F932F93292F2F938F938BE5F3
:1009600092E0892F8F938BE592E08F93CE010296D0
:10097000292F2F938F930E94A90B8DB79EB70A96AC
:100980000FB6F894DEBF0FBECDBFCE0102969C011C
:10099000F90101900020E9F7CF010197821B930B29
:1009A0009E012E5F3F4F820F931F2BE339E0FC0126
:1009B00031832083FC011282CE0102960E94A300A3
:1009C0008091590490915A0424E630E0B9010E94C4
:1009D000100B898399818DEC989F812D1124869528
:1009E00086958695880F282F220F220F820FF92FC8
:1009F000F81B8F2FE82FF0E099818DEC989F812DC7
:100A00001124869586958695282F30E0809159048B
:100A100090915A0444E650E0BA010E94100BCB01B9
:100A20004F2F4F934E2F4F93432F4F932F93292F99
:100A30002F938F938AE692E0892F8F938AE692E034
:100A40008F93CE010296292F2F938F930E94A90B8B
:100A50008DB79EB70A960FB6F894DEBF0FBECDBF16
:100A6000CE0102969C01F90101900020E9F7CF0127
:100A70000197821B930B9E012E5F3F4F820F931FA6
:100A80002BE33DE0FC01318320832AE030E0FC01D0
:100A900033832283CE0102960E94A3000000CF5927
:100AA000DF4F0FB6F894DEBF0FBECDBFDF91CF9101
:100AB0000895CF93DF93CDB7DEB7A1970FB6F89423
:100AC000DEBF0FBECDBF80917B0490917C0424E6F5
:100AD00030E0B9010E94100B898399818DEC989FB9
:100AE000812D1124869586958695880F282F220FB3
:100AF000220F820F292F281B822FE82FF0E09981E7
:100B00008DEC989F812D1124869586958695282FAA
:100B100030E080917B0490917C0444E650E0BA017F
:100B20000E94100BCB014F2F4F934E2F4F93432F0B
:100B30004F932F93292F2F938F938EE292E0892F3B
:100B40008F938EE292E08F93CE010296292F2F93FE
:100B50008F930E94A90B8DB79EB70A960FB6F89493
:100B6000DEBF0FBECDBFCE0102969C01F901019000
:100B70000020E9F7CF010197821B930B9E012E5FA6
:100B80003F4F820F931F2BE339E0FC013183208319
:100B9000FC011282CE0102960E94A300809179048A
:100BA00090917A0424E630E0B9010E94100B898309
:100BB00099818DEC989F812D112486958695869537
:100BC000880F282F220F220F820FF92FF81B8F2F4B
:100BD000E82FF0E099818DEC989F812D1124869566
:100BE00086958695282F30E08091790490917A043B
:100BF00044E650E0BA010E94100BCB014F2F4F93F7
:100C00004E2F4F93432F4F932F93292F2F938F9333
:100C10008EE292E0892F8F938EE292E08F93CE0145
:100C20000296292F2F938F930E94A90B8DB79EB701
:100C30000A960FB6F894DEBF0FBECDBFCE01029666
:100C40009C01F90101900020E9F7CF010197821B77
:100C5000930B9E012E5F3F4F820F931F2BE33DE0CE
:100C6000FC01318320832AE030E0FC0133832283BE
:100C7000CE0102960E94A3000000A1960FB6F89440
:100C8000DEBF0FBECDBFDF91CF910895CF93DF932D
:100C900000D01F92CDB7DEB789837B836A8389E753
:100CA00092E00E94A3008981882F90E0880F991F0D
:100CB00080509F4FFC01808191810E94A3008BE7AF
:100CC00092E00E94A30000000F900F900F90DF9120
:100CD000CF910895CF93DF9300D0CDB7DEB79A833D
:100CE000898380913701882361F08FE792E00E9429
:100CF000A30089819A810E94A30081E892E00E946A
:100D0000A30000000F900F90DF91CF910895CF9333
:100D1000DF9300D000D000D0CDB7DEB70E9408012D
:100D20000E94EB000E94440180E090E00E947B0062
:100D30000E945C0186E290E026E230E0F901208129
:100D40002064FC01208360E070E080E00E944606A1
:100D5000789480918F03813009F0EAC01A82198259
:100D6000C4C029813A81C901880F991F820F931F3E
:100D7000865F9E4FFC0180819181BC0185E993E0F3
:100D80000E94980B892B09F0ABC029813A81C901D7
:100D9000880F991F820F931F845F9E4FFC018081F3
:100DA000882F90E0092E000CAA0BBB0B40E050E00E
:100DB0002DE030E0841B950B2817390708F48CC010
:100DC0008A5B9F4FFC010C94460B81E00E946E01F0
:100DD00083E892E00E946A0682C080E00E946E0171
:100DE0008CE992E00E946A067AC081E00E948D013F
:100DF00084EB92E00E946A0672C080E00E948D013E
:100E00008DEC92E00E946A066AC085EE92E00E9434
:100E1000A30065C087EF92E00E94A30060C00E941B
:100E2000EB015DC00E9488025AC00E94290357C08E
:100E30000E94590554C082E093E00E94A30085E916
:100E400093E09C838B8305C08B819C8101969C835E
:100E50008B838B819C81FC0180818823A9F78B8106
:100E60009C8101969C838B838B819C810E94A30033
:100E700083E193E00E94A3008B819C810E947A0B06
:100E80009E838D838E818F938D818F9386E193E0F6
:100E9000892F8F9386E193E08F9385ED93E0892FDF
:100EA0008F9385ED93E08F930E94A90B0F900F9085
:100EB0000F900F900F900F9085ED93E00E94A3008C
:100EC00083E193E00E94A3008D819E810E94AC018A
:100ED00006C00E94D60103C0000016C0000014C066
:100EE00089819A8101969A83898329813A81C901EE
:100EF000880F991F820F931F865F9E4FFC01808190
:100F00009181892B09F02DCF29813A81C901880F60
:100F1000991F820F931F865F9E4FFC0180819181F4
:100F2000892B21F48FE193E00E94A30010928F039C
:100F3000809190030ECF1F920F9200905F000F924E
:100F400011242F933F934F935F936F937F938F93CE
:100F50009F93AF93BF93EF93FF93CF93DF93CDB75F
:100F6000DEB7809138019091390101979093390152
:100F7000809338018091380190913901892B41F497
:100F80000E94440184EF91E09093390180933801ED
:100F90000000DF91CF91FF91EF91BF91AF919F91B1
:100FA0008F917F916F915F914F913F912F910F9012
:100FB00000925F000F901F9018951F920F92009063
:100FC0005F000F9211242F933F934F935F936F9382
:100FD0007F938F939F93AF93BF93EF93FF93CF93A1
:100FE000DF9300D000D0CDB7DEB784E290E0FC0103
:100FF0008081882F90E0A0E0B0E089839A83AB8362
:10100000BC8385E290E0FC018081882F90E0982FDE
:101010008827092E000CAA0BBB0B29813A814B8132
:101020005C81822B932BA42BB52B89839A83AB8372
:10103000BC8380919303882F90E0092E000CAA0BAB
:10104000BB0B40E050E027E030E0841B950B2817F5
:10105000390708F4D2C18C5A9F4FFC010C94460BFF
:1010600029813A814B815C8184EF91E0DC010E940F
:101070005B0BDC01CB012FEF33E040E050E0BC0123
:10108000CD010E94240BDA01C9019C0144E1429F79
:10109000C001439F900D112490937C0480937B04A6
:1010A00080917B0490917C04292F2F938F938CE265
:1010B00093E0892F8F938CE293E08F9385ED93E0FB
:1010C000892F8F9385ED93E08F930E94A90B0F904A
:1010D0000F900F900F900F900F9080918E038823A8
:1010E00009F48FC185ED93E00E94A3008AC1298194
:1010F0003A814B815C8184EF91E0DC010E945B0BC3
:10110000DC01CB012FEF33E040E050E0BC01CD012A
:101110000E94240BDA01C9019C0144E1429FC001F5
:10112000439F900D112490937404809373048091D5
:10113000730490917404292F2F938F9387E393E086
:10114000892F8F9387E393E08F9385ED93E0892F29
:101150008F9385ED93E08F930E94A90B0F900F90D2
:101160000F900F900F900F9080918E03882309F4B9
:101170004AC185ED93E00E94A30045C129813A81CF
:101180004B815C8184EF91E0DC010E945B0BDC0110
:10119000CB012FEF33E040E050E0BC01CD010E94D5
:1011A000240BDA01C90190937A0480937904809129
:1011B000790490917A04292F2F938F9382E493E0FE
:1011C000892F8F9382E493E08F9385ED93E0892FAD
:1011D0008F9385ED93E08F930E94A90B0F900F9052
:1011E0000F900F900F900F9080918E03882309F439
:1011F0000CC185ED93E00E94A30007C129813A81CB
:101200004B815C8184EF91E0DC010E945B0BDC018F
:10121000CB012FEF33E040E050E0BC01CD010E9454
:10122000240BDA01C90190935A04809359048091E8
:10123000590490915A04292F2F938F938DE493E0B2
:10124000892F8F938DE493E08F9385ED93E0892F21
:101250008F9385ED93E08F930E94A90B0F900F90D1
:101260000F900F900F900F9080918E03882309F4B8
:10127000CEC085ED93E00E94A300C9C029813A81C8
:101280004B815C8184EF91E0DC010E945B0BDC010F
:10129000CB012FEF33E040E050E0BC01CD010E94D4
:1012A000240BDA01C9019093820480938104809118
:1012B000810490918204292F2F938F9388E593E0E6
:1012C000892F8F9388E593E08F9385ED93E0892FA5
:1012D0008F9385ED93E08F930E94A90B0F900F9051
:1012E0000F900F900F900F9080918E03882309F438
:1012F00090C085ED93E00E94A3008BC029813A81C4
:101300004B815C8184EF91E0DC010E945B0BDC018E
:10131000CB012FEF33E040E050E0BC01CD010E9453
:10132000240BDA01C90190937604809375048091AF
:10133000750490917604292F2F938F9383E693E081
:10134000892F8F9383E693E08F9385ED93E0892F28
:101350008F9385ED93E08F930E94A90B0F900F90D0
:101360000F900F900F900F9080918E03882309F4B7
:1013700052C085ED93E00E94A3004DC029813A81BF
:101380004B815C8184EF91E0DC010E945B0BDC010E
:10139000CB012FEF33E040E050E0BC01CD010E94D3
:1013A000240BDA01C9019093800480937F0480911B
:1013B0007F0490918004292F2F938F938EE693E0E2
:1013C000892F8F938EE693E08F9385ED93E0892F9D
:1013D0008F9385ED93E08F930E94A90B0F900F9050
:1013E0000F900F900F900F9080918E038823A9F09B
:1013F00085ED93E00E94A30010C000000FC0000024
:101400000DC000000BC0000009C0000007C00000B4
:1014100005C0000003C0000001C0000080919303DC
:101420008F5F8093930380919303883010F0109224
:10143000930387E290E027E230E0F9012081287FE2
:10144000FC01208387E290E027E230E0F90130815F
:1014500020919303232BFC01208386E290E026E277
:1014600030E0F90120812064FC01208300000F900E
:101470000F900F900F90DF91CF91FF91EF91BF915F
:10148000AF919F918F917F916F915F914F913F911C
:101490002F910F9000925F000F901F9018951F9250
:1014A0000F9200905F000F9211242F933F934F9360
:1014B0005F936F937F938F939F93AF93BF93EF93BC
:1014C000FF93CF93DF9300D01F92CDB7DEB78CE2AE
:1014D00090E0FC0180818B838B81882F90E08B31A1
:1014E000910539F08F37910509F455C00D9721F01A
:1014F00067C00E94E1017CC08091910390919203AA
:10150000892B29F489E793E00E94A30071C08091A0
:101510009103909192038B5E9B4FFC0110821A8283
:1015200019821FC089819A818B5E9B4FFC012081AB
:1015300089819A818B569C4FFC01208389819A81F5
:101540008B569C4FFC018081803231F489819A81D5
:101550008B569C4FFC01108289819A8101969A8357
:10156000898389819A818B5E9B4FFC0180818823CE
:10157000C9F689819A818B569C4FFC01108210928A
:1015800092031092910383E193E00E94A30081E013
:1015900080938F032DC08091910390919203892BAA
:1015A00049F0809191039091920301979093920357
:1015B000809391038CE290E02B81FC01208318C082
:1015C00080919103909192038B5E9B4F2B81FC0144
:1015D00020838091910390919203019690939203BE
:1015E000809391038CE290E02B81FC01208300002A
:1015F00000000F900F900F90DF91CF91FF91EF912E
:10160000BF91AF919F918F917F916F915F914F911A
:101610003F912F910F9000925F000F901F901895AF
:1016200097FB072E16F4009407D077FD09D00E948F
:10163000660B07FC05D03EF4909581959F4F089569
:10164000709561957F4F0895A1E21A2EAA1BBB1BCE
:10165000FD010DC0AA1FBB1FEE1FFF1FA217B3077E
:10166000E407F50720F0A21BB30BE40BF50B661F94
:10167000771F881F991F1A9469F760957095809558
:1016800090959B01AC01BD01CF010895EE0FFF1FA6
:101690000590F491E02D0994A29FB001B39FC00181
:1016A000A39F700D811D1124911DB29F700D811D8E
:1016B0001124911D08950E944C0BA59F900DB49F7D
:1016C000900DA49F800D911D11240895AA1BBB1B92
:1016D00051E107C0AA1FBB1FA617B70710F0A61B32
:1016E000B70B881F991F5A95A9F780959095BC0153
:1016F000CD010895FC0188279927E8942191203293
:10170000E9F3293010F02E30C8F32B3241F02D329E
:1017100039F4689404C00E94A10B820F911D21919D
:1017200020532A30C0F31EF4909581959F4F089561
:10173000FB01DC018D91019080190110D9F3990B07
:1017400008957AE0979F902D879F802D910D112409
:101750000895AEE0B0E0EFEAFBE00C946A0E0D896C
:101760001E8986E08C831A8309838FEF9FE79E830F
:101770008D83AE01475E5F4F6F89788DCE010196F4
:101780000E94CB0BEF81F885E00FF11F10822E969F
:10179000E4E00C94860EABE0B0E0E1EDFBE00C94ED
:1017A0005C0E6C017B018A01FC0117821682838129
:1017B00081FFCCC1CE0101963C01F6019381F70176
:1017C00093FD859193FF81917F01882309F4BAC12C
:1017D000853239F493FD859193FF81917F018532A4
:1017E00029F4B60190E00E94C20DE7CF912C212C84
:1017F000312CFFE1F315D8F08B3279F038F48032D8
:1018000079F08332A1F4232D20611DC08D3261F067
:10181000803369F4232D216016C0832D8260382E19
:10182000E32DE4603E2E2AC0F32DF8601DC037FC86
:101830002DC020ED280F2A3040F08E32B9F436FC4E
:1018400081C1232D2064322E19C036FE06C08AE0E5
:10185000989E200D1124922E11C0EAE02E9E200D9C
:101860001124222EF32DF0623F2E08C08C3621F475
:10187000832D8068382E02C0883641F4F70193FD2D
:10188000859193FF81917F018111B3CF982F9F7D27
:101890009554933028F40C5F1F4F9FE399830DC03C
:1018A000833631F0833771F0833509F059C021C098
:1018B000F801808189830E5F1F4F88248394912CC7
:1018C000530113C02801F2E04F0E511CF801A08013
:1018D000B18036FE03C0692D70E002C06FEF7FEF6C
:1018E000C5010E94B70D4C018201F32DFF773F2EF9
:1018F00016C0280122E0420E511CF801A080B180E0
:1019000036FE03C0692D70E002C06FEF7FEFC501A6
:101910000E94AC0D4C01F32DF0683F2E820133FC88
:101920001BC0822D90E088169906B0F4B60180E2C3
:1019300090E00E94C20D2A94F4CFF50137FC859106
:1019400037FE81915F01B60190E00E94C20D211027
:101950002A9421E0821A91088114910471F7E8C059
:10196000843611F0893641F5F80137FE07C06081F1
:101970007181828193810C5F1F4F08C060817181EA
:10198000072E000C880B990B0E5F1F4FF32DFF766F
:101990003F2E97FF09C090958095709561957F4F78
:1019A0008F4F9F4FF0683F2E2AE030E0A3010E9446
:1019B000FE0D882E861845C0853731F4232D2F7EE5
:1019C000B22E2AE030E025C0932D997FB92E8F36B4
:1019D000C1F018F4883579F0B5C0803719F0883730
:1019E00021F0B0C0E92FE061BE2EB4FE0DC0FB2D8A
:1019F000F460BF2E09C034FE0AC0292F2660B22E23
:101A000006C028E030E005C020E130E002C020E15F
:101A100032E0F801B7FE07C0608171818281938155
:101A20000C5F1F4F06C06081718180E090E00E5F07
:101A30001F4FA3010E94FE0D882E8618FB2DFF77F5
:101A40003F2E36FE0DC0232D2E7FA22E891458F472
:101A500034FE0BC032FC09C0832D8E7EA82E05C03B
:101A6000B82CA32C03C0B82C01C0B92CA4FE0FC005
:101A7000FE01E80DF11D8081803321F49A2D997EBD
:101A8000A92E09C0A2FE06C0B394B39404C08A2D47
:101A9000867809F0B394A3FC11C0A0FE06C0B2146E
:101AA00088F4280C922C9B180EC0B21460F4B60176
:101AB00080E290E00E94C20DB394F7CFB21418F404
:101AC0002B1802C0982C212CA4FE10C0B60180E374
:101AD00090E00E94C20DA2FE17C0A1FC03C088E7DF
:101AE00090E002C088E590E0B6010CC08A2D8678AF
:101AF00059F0A1FE02C08BE201C080E2A7FC8DE29A
:101B0000B60190E00E94C20D891438F4B60180E35A
:101B100090E00E94C20D9A94F7CF8A94F301E80DE9
:101B2000F11D8081B60190E00E94C20D8110F5CFB9
:101B3000222009F442CEB60180E290E00E94C20D5C
:101B40002A94F6CFF6018681978102C08FEF9FEF2E
:101B50002B96E2E10C94780EFC01059061507040E8
:101B60000110D8F7809590958E0F9F1F0895FC0166
:101B70006150704001900110D8F7809590958E0FBC
:101B80009F1F08950F931F93CF93DF93FB01238132
:101B900021FD03C08FEF9FEF2CC022FF16C04681AE
:101BA0005781248135814217530744F4A081B181C4
:101BB0009D012F5F3F4F318320838C932681378196
:101BC0002F5F3F4F3783268314C08B01EC01FB014D
:101BD0000084F185E02D0995892BE1F6D801169650
:101BE0008D919C911797019617969C938E931697BB
:101BF000CE01DF91CF911F910F910895FA01AA278D
:101C0000283051F1203181F1E8946F936E7F6E5F3F
:101C10007F4F8F4F9F4FAF4FB1E03ED0B4E03CD0ED
:101C2000670F781F891F9A1FA11D680F791F8A1FD0
:101C3000911DA11D6A0F711D811D911DA11D20D037
:101C400009F468943F912AE0269F11243019305DF1
:101C50003193DEF6CF010895462F4770405D4193E2
:101C6000B3E00FD0C9F7F6CF462F4F70405D4A332F
:101C700018F0495D31FD4052419302D0A9F7EACFF7
:101C8000B4E0A6959795879577956795BA95C9F726
:101C900000976105710508959B01AC010A2E069419
:101CA0005795479537952795BA95C9F7620F731FD2
:101CB000841F951FA01D08952F923F924F925F920F
:101CC0006F927F928F929F92AF92BF92CF92DF924C
:101CD000EF92FF920F931F93CF93DF93CDB7DEB7B1
:101CE000CA1BDB0B0FB6F894DEBF0FBECDBF099445
:101CF0002A88398848885F846E847D848C849B849C
:101D0000AA84B984C884DF80EE80FD800C811B81A9
:101D1000AA81B981CE0FD11D0FB6F894DEBF0FBED8
:0A1D2000CDBFED010895F894FFCF48
:101D2A003A0143015C01700184019A0100A3010197
:101D3A00AB0102B40103BC0104C40105D10106DAF6
:101D4A000107E30108EC0109F5010AFD010B06028E
:101D5A000C10020D00000E01F401303020524541F2
:101D6A00445900303120504F574552205355505056
:101D7A004C59204641494C555245210030322043A6
:101D8A00484152474552204641494C555245210047
:101D9A0030332042415454455259204641494C550A
:101DAA0052452000303420434F4D4D414E44204E81
:101DBA004F5420464F554E44210073746172742D5E
:101DCA0069740073746F702D69740073746172742E
:101DDA002D7A750073746F702D7A7500766572733B
:101DEA00696F6E006765742D626F6172642D696434
:101DFA00006765742D62617431006765742D6261D4
:101E0A007432006765742D756F7374006765742D7D
:101E1A00756F736E007365742D757A7400757374BB
:101E2A0069722D6F6E0075737469722D6F66660024
:101E3A0073746172742D646961676E004042415423
:101E4A0031203D20004042415432203D200040557F
:101E5A006F7374313D25642E256425640040556FE7
:101E6A007374323D25642E256425640040556F73D2
:101E7A0074333D25642E256425640040556F7374C0
:101E8A00343D25642E256425640040556F737435EE
:101E9A003D25642E25642564002200220D0A005B7C
:101EAA00005D00434D445F53544152545F495420EE
:101EBA0066696E6973686564210D0A00434D445F63
:101ECA0053544F505F49542066696E69736865645C
:101EDA00210D0A00434D445F53544152545F5A55F1
:101EEA002066696E6973686564210D0A00434D4472
:101EFA005F53544F505F5A552066696E697368651F
:101F0A0064210D0A00405645523D323031392E3097
:101F1A00332E32360D0A004049443D303030310DFF
:101F2A000A0053657474696E6720557A7420746F59
:101F3A003A20000D0A0076616C75653D2564004EF5
:101F4A006F7420666F756E64210D0A00556F736E8B
:101F5A00313D25640D0A00556F7374313D25640DBA
:101F6A000A00556F736E323D25640D0A00556F7372
:101F7A0074353D25640D0A00556F7374343D25642C
:101F8A000D0A00556F7374333D25640D0A00556FB1
:101F9A007374323D25640D0A004E6F20436F6D6DD8
:0E1FAA00616E6420656E74657265640D0A00D8
:00000001FF
