:100000000C9458000C9475000C9475000C947500B9
:100010000C9475000C9475000C9475000C9475008C
:100020000C9475000C9475000C9475000C9475007C
:100030000C94B6020C9475000C9475000C94750029
:100040000C9475000C9475000C942D050C9475009F
:100050000C9475000C94EB020C9475000C947500D4
:100060000C9475000C9475000C9475000C9475003C
:100070000C9475000C9475000C9475000C9475002C
:100080000C9475000C9475000C9475002C023402CD
:100090003C0244024C02510256025902A302A3023E
:1000A0005C021A036103A803EF0336047D04C40451
:1000B00011241FBECFEFD0E1DEBFCDBF13E0A0E023
:1000C000B1E0E8EBF1E102C005900D92AA38B1076A
:1000D000D9F724E0AAE8B3E001C01D92AE38B20718
:1000E000E1F70E94C3010C94DA080C94000081E847
:1000F00080938B0089E080938A0010928C008FE7B8
:1001000090E0909387008093860008951ABA14BAFD
:1001100017BA109261008FEF8BBB88BB85BB88E15B
:10012000809364008AEE82B90895E5E6F0E090815C
:1001300080E18927808308951BB828E92AB926E041
:10014000209395009093900089B90895FC01109236
:100150008A0390819923A1F05D9BFECF9CB9909179
:100160008A03DF01A90FB11D8C918A3049F09F5F8E
:1001700090938A03DF01A90FB11D9C919111ECCFDF
:10018000089580E487B98FEC86B9089593B19F7D77
:10019000813009F4906293B9089593B19F778130CB
:1001A00009F4906893B908959C0136952795369582
:1001B0002795ABE7B4E10E94B20596958795382F55
:1001C0002227369527950E94B2059695879590939C
:1001D0008700809386000895EF92FF920F931F93FC
:1001E000CF93DF93CDB7DEB7A0970FB6F894DEBFFD
:1001F0000FBECDBF89B343B34F7050E0542F442797
:10020000480F511D89E0EFE2F1E0DE011196019007
:100210000D928A95E1F780E090E061E070E0DE0108
:1002200011960F2EF1E3EF2EF0E2FF2EF02D00E3FA
:1002300010E29B01082E02C0220F331F0A94E2F73E
:1002400024233523232B49F4FD0101900020E9F7F5
:10025000319711830083128208C0FD0101900020B4
:10026000E9F73197F182E082128201968C30910594
:1002700001F7CE010196FC0101900020E9F73197CA
:100280002BE33DE0318320832AE030E03383228377
:100290000E94A600A0960FB6F894DEBF0FBECDBF99
:1002A000DF91CF911F910F91FF90EF900895EF9202
:1002B000FF920F931F93CF93DF93CDB7DEB7A09735
:1002C0000FB6F894DEBF0FBECDBF83B346B38295A1
:1002D0008F7090E1499FA0011124482B89E0E8E349
:1002E000F1E0DE01119601900D928A95E1F780E030
:1002F00090E061E070E0DE0111960F2EF1E3EF2E49
:10030000F0E2FF2EF02D00E310E29B01082E02C068
:10031000220F331F0A94E2F724233523232B49F4B9
:10032000FD0101900020E9F73197118300831282CB
:1003300008C0FD0101900020E9F73197F182E082C9
:10034000128201968C30910501F7CE010196FC01D5
:1003500001900020E9F731972BE33DE031832083C2
:100360002AE030E0338322830E94A600A0960FB6D5
:10037000F894DEBF0FBECDBFDF91CF911F910F91DB
:10038000FF90EF9008950E9486000E9477000E94DF
:10039000950080E090E00E949C000E94C100369A87
:1003A00081E491E00E94A60083E591E00E94A6000E
:1003B00085E791E00E94A60078940F2EF2E0EF2EE0
:1003C000F1E0FF2EF02D0F2EFDE3AF2EF2E0BF2E59
:1003D000F02D0F2EF0EDCF2EF3E0DF2EF02D8091DB
:1003E0008E038130E1F788EC91E00E94A6008DE752
:1003F00091E00E94A60080E993E00E94A60088ECAC
:1004000091E00E94A600F70160817181611571057C
:1004100009F4A5C0C5E0D1E000E010E080E993E078
:100420000E94DF05892B09F082C089E891E00E94D3
:10043000A600F801EE0FFF1FE00FF11FEE5FFE4F69
:10044000E2818E2F90E08B30910508F07CC0FC019A
:10045000EA5BFF4F0C94AC0581E00E94C6008AE97C
:1004600091E00E94A6006FC080E00E94C60083EB6E
:1004700091E00E94A60067C081E00E94CD008BEC55
:1004800091E00E94A6005FC080E00E94CD0084EE53
:1004900091E00E94A60057C08CEF91E00E94A60058
:1004A00052C08BE192E00E94A6004DC00E94EC0079
:1004B0004AC00E94570147C08CE292E00E94A60009
:1004C00080919003882349F021E933E0F9012F5FFF
:1004D0003F4F80818111FACF02C0E0E9F3E0EF01E4
:1004E0002196CE010E94A60088EC91E00E94A60011
:1004F000CE010E94C105D82FC92F9F938F93BF9221
:10050000AF92DF92CF920E94F005C6010E94A60032
:1005100088EC91E00E94A6008D2F9C2F0E94D400B1
:100520000F900F900F900F900F900F900CC00F5FD7
:100530001F4F2396FE01339760817181611571050C
:1005400009F06CCF0CC0F801EE0FFF1F0E0F1F1F3C
:10055000F801EE5FFE4F80819181892B21F486E4C2
:1005600092E00E94A60010928E0339CF1F920F9244
:100570000FB60F9211242F933F934F935F936F9376
:100580007F938F939F93AF93BF93EF93FF9380914C
:100590000001909101010197909301018093000166
:1005A000892B41F40E94950084EF91E09093010122
:1005B00080930001FF91EF91BF91AF919F918F9137
:1005C0007F916F915F914F913F912F910F900FBE4F
:1005D0000F901F9018951F920F920FB60F92112433
:1005E0002F933F934F935F936F937F938F939F933B
:1005F000AF93BF93EF93FF9384B190E090937B040C
:1006000080937A0425B180917A0490917B04922B97
:1006100090937B0480937A04E0918B038E2F90E07B
:10062000FC013197E730F10508F0F3C1EF5AFF4FB5
:100630000C94AC0580917A0490917B049C01220F6C
:10064000331F220F331F280F391F329522952F7029
:1006500023273F702327AAE6B3E00E94B205A0E05B
:10066000B0E08093800490938104A0938204B093BF
:1006700083048091800490918104A0918204B091C0
:100680008304BF93AF939F938F9383E592E09F93EF
:100690008F9380ED93E09F938F930E94F0058DB729
:1006A0009EB708960FB6F8949EBF0FBE8DBF80917F
:1006B0008F03882309F4ADC180ED93E00E94A6006A
:1006C000A8C180917A0490917B049C01220F331F72
:1006D000220F331F280F391F329522952F702327A1
:1006E0003F702327AAE6B3E00E94B205A0E0B0E085
:1006F0008093700490937104A0937204B093730478
:100700008091700490917104A0917204B09173046F
:10071000BF93AF939F938F938FE592E09F938F93B7
:1007200080ED93E09F938F930E94F0058DB79EB765
:1007300008960FB6F8949EBF0FBE8DBF80918F03B1
:10074000882309F466C180ED93E00E94A60061C190
:1007500080917A0490917B049C01220F331F220F19
:10076000331F280F391F329522952F7023273F7092
:100770002327AAE6B3E00E94B205A0E0B0E0809390
:100780007C0490937D04A0937E04B0937F048091B9
:100790007C0490917D04A0917E04B0917F04BF936E
:1007A000AF939F938F938BE692E09F938F9380ED0F
:1007B00093E09F938F930E94F0058DB79EB70896A4
:1007C0000FB6F8949EBF0FBE8DBF80918F03882314
:1007D00009F41FC180ED93E00E94A6001AC1809128
:1007E0007A0490917B049C01220F331F220F331F48
:1007F000280F391F329522952F7023273F7023270A
:10080000AAE6B3E00E94B205A0E0B0E080935404F1
:1008100090935504A0935604B093570480915404C8
:1008200090915504A0915604B0915704BF93AF9393
:100830009F938F9387E792E09F938F9380ED93E050
:100840009F938F930E94F0058DB79EB708960FB6C1
:10085000F8949EBF0FBE8DBF80918F03882309F44B
:10086000D8C080ED93E00E94A600D3C080917A04A6
:1008700090917B049C01220F331F220F331F280FFE
:10088000391F329522952F7023273F702327AAE620
:10089000B3E00E94B205A0E0B0E080938A04909398
:1008A0008B04A0938C04B0938D0480918A04909162
:1008B0008B04A0918C04B0918D04BF93AF939F9350
:1008C0008F9383E892E09F938F9380ED93E09F93C3
:1008D0008F930E94F0058DB79EB708960FB6F894D7
:1008E0009EBF0FBE8DBF80918F03882309F491C0F6
:1008F00080ED93E00E94A6008CC080917A049091D4
:100900007B049C01220F331F220F331F280F391F36
:10091000329522952F7023273F702327AAE6B3E054
:100920000E94B205A0E0B0E0809374049093750437
:10093000A0937604B0937704809174049091750429
:10094000A0917604B0917704BF93AF939F938F9358
:100950008FE892E09F938F9380ED93E09F938F9326
:100960000E94F0058DB79EB708960FB6F8949EBF0B
:100970000FBE8DBF80918F03882309F44AC080ED9C
:1009800093E00E94A60045C080917A0490917B0478
:100990009C01220F331F220F331F280F391F32955E
:1009A00022952F7023273F702327AAE6B3E00E94E9
:1009B000B205A0E0B0E08093860490938704A093F2
:1009C0008804B09389048091860490918704A09153
:1009D0008804B0918904BF93AF939F938F938BE961
:1009E00092E09F938F9380ED93E09F938F930E946B
:1009F000F0058DB79EB708960FB6F8949EBF0FBE50
:100A00008DBF80918F03882321F080ED93E00E94B9
:100A1000A60080918B038F5F883018F480938B033E
:100A200002C010928B0387B1887F87B997B18091FC
:100A30008B03892B87B9369AFF91EF91BF91AF91C4
:100A40009F918F917F916F915F914F913F912F91E6
:100A50000F900FBE0F901F9018951F920F920FB618
:100A60000F9211242F933F934F935F936F937F9334
:100A70008F939F93AF93BF93EF93FF938CB18B3181
:100A800009F459C08F37D1F18D3009F045C08091FC
:100A90008C0390918D03009729F487EA92E00E94DD
:100AA000A60049C0FC01E05FFB4F1082809110045A
:100AB000882391F0A1E1B4E0E0E9F3E020E030E048
:100AC000803211F0808301C010822F5F3F4F8D91E3
:100AD00031968111F5CF02C020E030E0F901E057F6
:100AE000FC4F108210928D0310928C0388EC91E0E1
:100AF0000E94A60081E080938E031DC080918C032C
:100B000090918D03009729F0019790938D03809326
:100B10008C038FE78CB90FC020918C0330918D032B
:100B2000F901E05FFB4F80832F5F3F4F30938D03D0
:100B300020938C038CB9FF91EF91BF91AF919F915E
:100B40008F917F916F915F914F913F912F910F9076
:100B50000FBE0F901F901895EE0FFF1F0590F49198
:100B6000E02D0994A29FB001B39FC001A39F700D17
:100B7000811D1124911DB29F700D811D1124911DA5
:100B80000895FC0188279927E89421912032E9F300
:100B9000293010F02E30C8F32B3241F02D3239F4C9
:100BA000689404C00E94E805820F911D2191205392
:100BB0002A30C0F31EF4909581959F4F0895FB0154
:100BC000DC018D91019080190110D9F3990B0895E2
:100BD0007AE0979F902D879F802D910D1124089585
:100BE000AEE0B0E0E6EFF5E00C94B1080D891E89A7
:100BF00086E08C831A8309838FEF9FE79E838D8322
:100C0000AE01475E5F4F6F89788DCE0101960E94DD
:100C10001206EF81F885E00FF11F10822E96E4E0B6
:100C20000C94CD08ABE0B0E0E8E1F6E00C94A3084A
:100C30006C017B018A01FC0117821682838181FF8E
:100C4000CCC1CE0101963C01F6019381F70193FDE1
:100C5000859193FF81917F01882309F4BAC1853280
:100C600039F493FD859193FF81917F01853229F4B9
:100C7000B60190E00E940908E7CF912C212C312C7D
:100C8000FFE1F315D8F08B3279F038F4803279F047
:100C90008332A1F4232D20611DC08D3261F0803399
:100CA00069F4232D216016C0832D8260382EE32D38
:100CB000E4603E2E2AC0F32DF8601DC037FC2DC025
:100CC00020ED280F2A3040F08E32B9F436FC81C175
:100CD000232D2064322E19C036FE06C08AE0989E6D
:100CE000200D1124922E11C0EAE02E9E200D112419
:100CF000222EF32DF0623F2E08C08C3621F4832D76
:100D00008068382E02C0883641F4F70193FD859142
:100D100093FF81917F018111B3CF982F9F7D9554CF
:100D2000933028F40C5F1F4F9FE399830DC08336E7
:100D300031F0833771F0833509F059C021C0F801D3
:100D4000808189830E5F1F4F88248394912C5301E7
:100D500013C02801F2E04F0E511CF801A080B180B1
:100D600036FE03C0692D70E002C06FEF7FEFC50152
:100D70000E94FE074C018201F32DFF773F2E16C023
:100D8000280122E0420E511CF801A080B18036FEFD
:100D900003C0692D70E002C06FEF7FEFC5010E94B4
:100DA000F3074C01F32DF0683F2E820133FC1BC08A
:100DB000822D90E088169906B0F4B60180E290E0AA
:100DC0000E9409082A94F4CFF50137FC859137FE7B
:100DD00081915F01B60190E00E94090821102A94D8
:100DE00021E0821A91088114910471F7E8C08436D9
:100DF00011F0893641F5F80137FE07C06081718135
:100E0000828193810C5F1F4F08C060817181072E22
:100E1000000C880B990B0E5F1F4FF32DFF763F2EB2
:100E200097FF09C090958095709561957F4F8F4F82
:100E30009F4FF0683F2E2AE030E0A3010E94450852
:100E4000882E861845C0853731F4232D2F7EB22E8B
:100E50002AE030E025C0932D997FB92E8F36C1F05E
:100E600018F4883579F0B5C0803719F0883721F04B
:100E7000B0C0E92FE061BE2EB4FE0DC0FB2DF460C2
:100E8000BF2E09C034FE0AC0292F2660B22E06C02C
:100E900028E030E005C020E130E002C020E132E08F
:100EA000F801B7FE07C060817181828193810C5F78
:100EB0001F4F06C06081718180E090E00E5F1F4F80
:100EC000A3010E944508882E8618FB2DFF773F2E30
:100ED00036FE0DC0232D2E7FA22E891458F434FE29
:100EE0000BC032FC09C0832D8E7EA82E05C0B82C05
:100EF000A32C03C0B82C01C0B92CA4FE0FC0FE0166
:100F0000E80DF11D8081803321F49A2D997EA92E60
:100F100009C0A2FE06C0B394B39404C08A2D86789B
:100F200009F0B394A3FC11C0A0FE06C0B21488F46B
:100F3000280C922C9B180EC0B21460F4B60180E20B
:100F400090E00E940908B394F7CFB21418F42B185C
:100F500002C0982C212CA4FE10C0B60180E390E0C2
:100F60000E940908A2FE17C0A1FC03C088E790E018
:100F700002C088E590E0B6010CC08A2D867859F051
:100F8000A1FE02C08BE201C080E2A7FC8DE2B601A7
:100F900090E00E940908891438F4B60180E390E0DB
:100FA0000E9409089A94F7CF8A94F301E80DF11D85
:100FB0008081B60190E00E9409088110F5CF2220BF
:100FC00009F442CEB60180E290E00E9409082A941A
:100FD000F6CFF6018681978102C08FEF9FEF2B96A7
:100FE000E2E10C94BF08FC010590615070400110D3
:100FF000D8F7809590958E0F9F1F0895FC01615042
:10100000704001900110D8F7809590958E0F9F1F2A
:1010100008950F931F93CF93DF93FB01238121FD4D
:1010200003C08FEF9FEF2CC022FF16C0468157816F
:10103000248135814217530744F4A081B1819D0179
:101040002F5F3F4F318320838C93268137812F5F21
:101050003F4F3783268314C08B01EC01FB010084D2
:10106000F185E02D0995892BE1F6D80116968D9131
:101070009C911797019617969C938E931697CE0185
:10108000DF91CF911F910F910895FA01AA2728307F
:1010900051F1203181F1E8946F936E7F6E5F7F4F45
:1010A0008F4F9F4FAF4FB1E03ED0B4E03CD0670FC1
:1010B000781F891F9A1FA11D680F791F8A1F911D14
:1010C000A11D6A0F711D811D911DA11D20D009F464
:1010D00068943F912AE0269F11243019305D3193A6
:1010E000DEF6CF010895462F4770405D4193B3E08F
:1010F0000FD0C9F7F6CF462F4F70405D4A3318F036
:10110000495D31FD4052419302D0A9F7EACFB4E0E6
:10111000A6959795879577956795BA95C9F700979E
:101120006105710508959B01AC010A2E069457953F
:10113000479537952795BA95C9F7620F731F841F96
:10114000951FA01D08952F923F924F925F926F922C
:101150007F928F929F92AF92BF92CF92DF92EF9247
:10116000FF920F931F93CF93DF93CDB7DEB7CA1BC8
:10117000DB0B0FB6F894DEBF0FBECDBF09942A88F3
:10118000398848885F846E847D848C849B84AA849B
:10119000B984C884DF80EE80FD800C811B81AA8128
:1011A000B981CE0FD11D0FB6F894DEBF0FBECDBFF3
:0811B000ED010895F894FFCF52
:1011B800F401BC0200C50201CD0202D60203DE0220
:1011C80004E60205F30206FC02070503080E0309FC
:1011D80017030A1F030B28030C32030D00000E40EF
:1011E80042415431203D20004042415432203D20AC
:1011F8000047697665206D6520626174746572794F
:101208000D0A00506F77657220737570706C7920C5
:10121800436F6E74726F6C6C6572207665722031E4
:101228002E300D0A0052656164790D0A005365611C
:10123800726368696E673A2000436F6D6D616E6412
:1012480020666F756E64210D0A00434D445F535448
:101258004152545F49542066696E69736865642118
:101268000D0A00434D445F53544F505F4954206664
:10127800696E6973686564210D0A00434D445F53C4
:10128800544152545F5A552066696E6973686564A3
:10129800210D0A00434D445F53544F505F5A552067
:1012A80066696E6973686564210D0A004669726D26
:1012B800776172652076657273696F6E3A20323095
:1012C80031392E30332E32360D0A00426F61726486
:1012D8002049443A20303030310D0A005365747487
:1012E800696E6720557A7420746F3A200076616CB5
:1012F80075653D2564004E6F7420666F756E6421B8
:101308000D0A00556F736E313D256C640D0A00554A
:101318006F7374313D256C640D0A00556F736E321E
:101328003D256C640D0A00556F7374353D256C645A
:101338000D0A00556F7374343D256C640D0A005511
:101348006F7374333D256C640D0A00556F737432E6
:101358003D256C640D0A004E6F20436F6D6D616E04
:101368006420656E74657265640D0A007374617239
:10137800742D69740073746F702D697400737461CF
:1013880072742D7A750073746F702D7A7500766596
:101398007273696F6E006765742D626F6172642D78
:1013A8006964006765742D62617431006765742D26
:1013B80062617432006765742D756F7374006765B8
:1013C800742D756F736E007365742D757A7400755E
:1013D800737469722D6F6E0075737469722D6F6600
:1013E800660073746172742D646961676E003030D1
:1013F80020524541445900303120504F5745522022
:10140800535550504C59204641494C55524521009E
:1014180030322043484152474552204641494C55B5
:1014280052452100303320424154544552592046F8
:0A14380041494C55524521200000A7
:00000001FF
