:100000000C945C000C9479000C9479000C947900A9
:100010000C9479000C9479000C9479000C9479007C
:100020000C9479000C9479000C9479000C9479006C
:100030000C9493090C9479000C9479000C94790039
:100040000C9479000C9479000C94740C0C94790045
:100050000C9479000C94020A0C9479000C947900A9
:100060000C9479000C9479000C9479000C9479002C
:100070000C9479000C9479000C9479000C9479001C
:100080000C9479000C9479000C947900F80700081E
:100090000808100818081D082208250828082B0839
:1000A0002E087B087B087208240C550A950ADC0A86
:1000B000230B630BA30BE30B11241FBECFEFD0E187
:1000C000DEBFCDBF14E0A0E0B1E0EEE9F1E202C096
:1000D00005900D92A635B107D9F725E0A6E5B4E065
:1000E00001C01D92A43BB207E1F70E9447070C94A0
:1000F000CD100C940000CF93DF9300D0CDB7DEB7C6
:100100009A8389838BE290E0FC0110828AE290E07E
:1001100028E9FC01208385E990E026E0FC012083AA
:1001200080E990E029813A81232F3327FC01208345
:1001300089E290E02981FC01208300000F900F905C
:10014000DF91CF910895CF93DF9300D0CDB7DEB785
:100150009A838983109265042AC000008BE290E0A4
:10016000FC018081882F90E080729927892BB1F360
:100170008CE290E020916504222F30E049815A8181
:10018000240F351FF9012081FC0120838091650433
:10019000882F90E029813A81820F931FFC01808192
:1001A0008A3091F0809165048F5F8093650480911F
:1001B0006504882F90E029813A81820F931FFC010A
:1001C0008081882351F601C0000000000F900F903D
:1001D000DF91CF910895CF93DF93CDB7DEB78FE452
:1001E00090E0FC0110828EE490E02CE0FC01208382
:1001F00087E590E020E1FC0120838AE490E021E79C
:1002000032E0FC01318320830000DF91CF9108951B
:10021000CF93DF93CDB7DEB78BE890E021E8FC0108
:1002200020838AE890E029E0FC0120838CE890E0BC
:10023000FC01108286E890E02FE730E0FC0131837A
:1002400020830000DF91CF910895CF93DF931F9219
:10025000CDB7DEB719828AE390E02981FC012083C3
:1002600084E390E02981FC01208387E390E02981E9
:10027000FC01208381E690E02981FC0120838BE34F
:1002800090E02FEFFC01208388E390E02FEFFC014A
:10029000208385E390E02FEFFC01208388E18983B0
:1002A00084E690E02981FC0120838AEE898382E242
:1002B00090E02981FC01208300000F90DF91CF9115
:1002C0000895CF93DF931F92CDB7DEB785E690E018
:1002D000FC0180818983998180E18927898385E672
:1002E00090E02981FC01208300000F90DF91CF91E5
:1002F0000895CF93DF93CDB7DEB787E290E020E497
:10030000FC01208386E290E02FECFC0120830000BA
:10031000DF91CF910895CF93DF9300D0CDB7DEB7B3
:100320008A8383E290E0FC018081898389818F7DCB
:1003300089838A81813019F489818062898383E28B
:1003400090E02981FC01208300000F900F90DF9145
:10035000CF910895CF93DF931F92CDB7DEB783E29D
:1003600090E0FC018081898389818072898381E0AA
:100370009981992309F480E00F90DF91CF9108953E
:10038000CF93DF9300D0CDB7DEB78A8383E290E0CE
:10039000FC018081898389818F7789838A8181307B
:1003A00019F489818068898383E290E02981FC01C6
:1003B000208300000F900F90DF91CF910895CF938D
:1003C000DF931F92CDB7DEB783E290E0FC0180811E
:1003D000898389818078898381E09981992309F4CF
:1003E00080E00F90DF91CF910895CF93DF9300D0FD
:1003F000CDB7DEB79A83898346E850E089819A8138
:1004000096958795969587959C01ABE7B4E10E94F8
:10041000860D96958795982F8827969587959C01A8
:10042000ABE7B4E10E94860D96958795FA0191831A
:10043000808300000F900F90DF91CF910895CF93AC
:10044000DF93CDB7DEB781E0809358040000DF91E1
:10045000CF910895CF93DF93CDB7DEB78091580445
:10046000813029F41092580481E0809359040000EF
:10047000DF91CF910895CF93DF93CDB7DEB7C45608
:10048000D1090FB6F894DEBF0FBECDBF1C821B8210
:1004900089E390E0FC018081282F30E083E390E045
:1004A000FC018081882F90E08F709927982F8827F2
:1004B000820F931F9C838B83CE01059629E0E8E889
:1004C000F2E0DC0101900D922A95E1F71A8219827F
:1004D00043C081E090E0098002C0880F991F0A9410
:1004E000E2F79C018B819C8182239323892BC1F4A9
:1004F000CE0105969C01F90101900020E9F7CF019A
:100500000197821B930B9E012B5F3F4F820F931F1E
:1005100020E330E2FC0131832083FC01128217C00A
:10052000CE0105969C01F90101900020E9F7CF0169
:100530000197821B930B9E012B5F3F4F820F931FEE
:1005400021E330E2FC0131832083FC0112828981A6
:100550009A8101969A83898389819A810C9708F4FC
:10056000B8CFCE0105969C01F90101900020E9F772
:10057000CF010197821B930B9E012B5F3F4F820F90
:10058000931F2BE33DE0FC01318320832AE030E020
:10059000FC0133832283CE0105960E94A300000054
:1005A000CC59DF4F0FB6F894DEBF0FBECDBFDF9141
:1005B000CF910895CF93DF93CDB7DEB7C456D1095D
:1005C0000FB6F894DEBF0FBECDBF1C821B8283E343
:1005D00090E0FC01808182958F70282F30E086E3C7
:1005E00090E0FC018081882F90E082959295907F29
:1005F0009827807F9827822B932B9C838B83CE0117
:10060000059629E0E1E9F2E0DC0101900D922A95DE
:10061000E1F71A82198243C081E090E0098002C0AC
:10062000880F991F0A94E2F79C018B819C81822399
:100630009323892BC1F4CE0105969C01F901019009
:100640000020E9F7CF010197821B930B9E012B5FDE
:100650003F4F820F931F20E330E2FC013183208360
:10066000FC01128217C0CE0105969C01F901019090
:100670000020E9F7CF010197821B930B9E012B5FAE
:100680003F4F820F931F21E330E2FC01318320832F
:10069000FC01128289819A8101969A8389838981DA
:1006A0009A810C9708F4B8CFCE0105969C01F90108
:1006B00001900020E9F7CF010197821B930B9E0167
:1006C0002B5F3F4F820F931F2BE33DE0FC013183F3
:1006D00020832AE030E0FC0133832283CE0105969B
:1006E0000E94A3000000CC59DF4F0FB6F894DEBF84
:1006F0000FBECDBFDF91CF910895CF93DF93CDB7DC
:10070000DEB7C156D1090FB6F894DEBF0FBECDBF1C
:100710008091A4059091A50524E630E0B9010E94DE
:100720004A0D898399818DEC989F812D112486959E
:1007300086958695880F282F220F220F820F292F4A
:10074000281B822FE82FF0E099818DEC989F812D56
:100750001124869586958695282F30E08091A405F2
:100760009091A50544E650E0BA010E944A0DCB01E4
:100770004F2F4F934E2F4F93432F4F932F93292F4C
:100780002F938F938AE992E0892F8F938AE992E0E1
:100790008F93CE010296292F2F938F930E94E30D02
:1007A0008DB79EB70A960FB6F894DEBF0FBECDBFC9
:1007B000CE0102969C01F90101900020E9F7CF01DA
:1007C0000197821B930B9E012E5F3F4F820F931F59
:1007D0002BE339E0FC0131832083FC011282CE013E
:1007E00002960E94A3008091B0059091B10524E685
:1007F00030E0B9010E944A0D898399818DEC989F60
:10080000812D1124869586958695880F282F220F95
:10081000220F820FF92FF81B8F2FE82FF0E099811C
:100820008DEC989F812D1124869586958695282F8D
:1008300030E08091B0059091B10544E650E0BA01F6
:100840000E944A0DCB014F2F4F934E2F4F93432FB2
:100850004F932F93292F2F938F9389EA92E0892F1B
:100860008F9389EA92E08F93CE010296292F2F93DE
:100870008F930E94E30D8DB79EB70A960FB6F8943A
:10088000DEBF0FBECDBFCE0102969C01F9010190E3
:100890000020E9F7CF010197821B930B9E012E5F89
:1008A0003F4F820F931F2BE339E0FC0131832083FC
:1008B000FC011282CE0102960E94A3008091A6053F
:1008C0009091A70524E630E0B9010E944A0D898382
:1008D00099818DEC989F812D11248695869586951A
:1008E000880F282F220F220F820FF92FF81B8F2F2E
:1008F000E82FF0E099818DEC989F812D1124869549
:1009000086958695282F30E08091A6059091A705C1
:1009100044E650E0BA010E944A0DCB014F2F4F939D
:100920004E2F4F93432F4F932F93292F2F938F9316
:1009300088EB92E0892F8F9388EB92E08F93CE0122
:100940000296292F2F938F930E94E30D8DB79EB7A8
:100950000A960FB6F894DEBF0FBECDBFCE01029649
:100960009C01F90101900020E9F7CF010197821B5A
:10097000930B9E012E5F3F4F820F931F2BE339E0B5
:10098000FC0131832083FC011282CE0102960E9479
:10099000A3008091B2059091B30524E630E0B9013F
:1009A0000E944A0D898399818DEC989F812D112495
:1009B000869586958695880F282F220F220F820F05
:1009C000F92FF81B8F2FE82FF0E099818DEC989F7D
:1009D000812D1124869586958695282F30E080916B
:1009E000B2059091B30544E650E0BA010E944A0D69
:1009F000CB014F2F4F934E2F4F93432F4F932F9356
:100A0000292F2F938F9387EC92E0892F8F9387EC78
:100A100092E08F93CE010296292F2F938F930E94FD
:100A2000E30D8DB79EB70A960FB6F894DEBF0FBEE2
:100A3000CDBFCE0102969C01F90101900020E9F79B
:100A4000CF010197821B930B9E012E5F3F4F820FB8
:100A5000931F2BE339E0FC0131832083FC011282D8
:100A6000CE0102960E94A30080918A0590918B0589
:100A700024E630E0B9010E944A0D898399818DEC0A
:100A8000989F812D1124869586958695880F282F0D
:100A9000220F220F820FF92FF81B8F2FE82FF0E083
:100AA00099818DEC989F812D112486958695869548
:100AB000282F30E080918A0590918B0544E650E024
:100AC000BA010E944A0DCB014F2F4F934E2F4F93E7
:100AD000432F4F932F93292F2F938F9386ED92E0DF
:100AE000892F8F9386ED92E08F93CE010296292F66
:100AF0002F938F930E94E30D8DB79EB70A960FB682
:100B0000F894DEBF0FBECDBFCE0102969C01F90165
:100B100001900020E9F7CF010197821B930B9E0102
:100B20002E5F3F4F820F931F2BE33DE0FC0131838B
:100B300020832AE030E0FC0133832283CE01029639
:100B40000E94A3000000CF59DF4F0FB6F894DEBF1C
:100B50000FBECDBFDF91CF910895CF93DF93CDB777
:100B6000DEB7C156D1090FB6F894DEBF0FBECDBFB8
:100B70008091AC059091AD0524E630E0B9010E946A
:100B80004A0D898399818DEC989F812D112486953A
:100B900086958695880F282F220F220F820F292FE6
:100BA000281B822FE82FF0E099818DEC989F812DF2
:100BB0001124869586958695282F30E08091AC0586
:100BC0009091AD0544E650E0BA010E944A0DCB0178
:100BD0004F2F4F934E2F4F93432F4F932F93292FE8
:100BE0002F938F9385EE92E0892F8F9385EE92E07D
:100BF0008F93CE010296292F2F938F930E94E30D9E
:100C00008DB79EB70A960FB6F894DEBF0FBECDBF64
:100C1000CE0102969C01F90101900020E9F7CF0175
:100C20000197821B930B9E012E5F3F4F820F931FF4
:100C30002BE339E0FC0131832083FC011282CE01D9
:100C400002960E94A3008091AA059091AB0524E62C
:100C500030E0B9010E944A0D898399818DEC989FFB
:100C6000812D1124869586958695880F282F220F31
:100C7000220F820FF92FF81B8F2FE82FF0E09981B8
:100C80008DEC989F812D1124869586958695282F29
:100C900030E08091AA059091AB0544E650E0BA019E
:100CA0000E944A0DCB014F2F4F934E2F4F93432F4E
:100CB0004F932F93292F2F938F9384EF92E0892FB7
:100CC0008F9384EF92E08F93CE010296292F2F937A
:100CD0008F930E94E30D8DB79EB70A960FB6F894D6
:100CE000DEBF0FBECDBFCE0102969C01F90101907F
:100CF0000020E9F7CF010197821B930B9E012E5F25
:100D00003F4F820F931F2BE33DE0FC013183208393
:100D10002AE030E0FC0133832283CE0102960E9458
:100D2000A3000000CF59DF4F0FB6F894DEBF0FBE0F
:100D3000CDBFDF91CF910895CF93DF9300D01F9265
:100D4000CDB7DEB789837B836A8383E093E00E941B
:100D5000A3008981882F90E0880F991F80509F4FB2
:100D6000FC01808191810E94A3008A819B81892B53
:100D700059F08981882F90E0039709F005C08A8196
:100D80009B810E94A300000085E093E00E94A300E5
:100D900000000F900F900F90DF91CF910895CF93A7
:100DA000DF9300D0CDB7DEB79A8389838091390174
:100DB000882361F089E093E00E94A30089819A81F1
:100DC0000E94A3008BE093E00E94A30000000F901C
:100DD0000F90DF91CF910895CF93DF9300D0CDB7DF
:100DE000DEB79A83898380913901882361F089E095
:100DF00093E00E94A30089819A810E94A3008DE064
:100E000093E00E94A30000000F900F90DF91CF911C
:100E10000895CF93DF93CDB7DEB760E070E080E058
:100E20000E949C0680E00E94C00180E00E948B012D
:100E300080EA9FE00E94F5010000DF91CF910895C4
:100E4000CF93DF9300D0CDB7DEB79A8389838091AB
:100E50005D0490915E04019690935E0480935D041E
:100E600080915D0490915E0403972CF060E070E047
:100E700085E00E949C0680E00E94C00180E00E9404
:100E80008B0100000F900F90DF91CF910895CF93C9
:100E9000DF93CDB7DEB7C157D1090FB6F894DEBFE7
:100EA0000FBECDBFCE0182599F4F2BE1FC012083A5
:100EB000CE0182599F4F2BE5FC012183CE0182593F
:100EC0009F4F21E4FC012283CE0182599F4FFC01F8
:100ED00013820E9425010E9408010E94EB000E94DB
:100EE000610180E090E00E947B000E94790186E22F
:100EF00090E026E230E0F90120812064FC012083AB
:100F00000E94090778948CE291E0909360048093AA
:100F10005F0481E193E00E94EC0680915D04909172
:100F20005E0403970CF0FDC180915F049091600412
:100F300084369105B9F08536910518F40197B9F01A
:100F40001BC0883C910549F08C32914009F014C0D7
:100F500087E293E00E94EC060FC08DE293E00E94CE
:100F6000EC060AC083E393E00E94EC0605C089E327
:100F700093E00E94EC06000080915704813009F054
:100F8000E5C01A821982BEC029813A81C901880F41
:100F9000991F820F931F845F9E4FFC018081918176
:100FA000BC0186E694E00E94D20D892B09F0A5C011
:100FB00029813A81C901880F991F820F931F825F8F
:100FC0009E4FFC018081882F90E0092E000CAA0B17
:100FD000BB0B40E050E02DE030E0841B950B281760
:100FE000390708F486C08A5B9F4FFC010C94800D82
:100FF00081E00E948B018FE393E00E94EC067CC0AD
:1010000080E00E948B018FE593E00E94EC0674C0A3
:1010100081E00E94C0018BE693E00E94EC066CC068
:1010200080E00E94C0018BE893E00E94EC0664C05F
:101030008AEA93E00E94A3005FC08CEB93E00E94D9
:10104000A3005AC00E943B0257C00E94DA0254C05B
:101050000E947D0351C00E94AD054EC087EC93E015
:101060000E94CF0686E694E09C838B8305C08B812B
:101070009C8101969C838B838B819C81FC01808168
:101080008823A9F78B819C8101969C838B838B811C
:101090009C810E94EC068B819C810E94B40D9987F3
:1010A000888789858F9388858F9388ED93E0892F32
:1010B0008F9388ED93E08F93CE010E96292F2F9377
:1010C0008F930E94E30D0F900F900F900F900F9051
:1010D0000F90CE010E960E94EC06888599850E949D
:1010E000F5010AC081EE93E00E94EC060E941F0207
:1010F00003C0000016C0000014C089819A810196C7
:101100009A83898329813A81C901880F991F820FA7
:10111000931F845F9E4FFC0180819181892B09F090
:1011200033CF29813A81C901880F991F820F931FFC
:10113000845F9E4FFC0180819181892B29F460E0BE
:1011400070E084E00E949C06109257040E94AA015D
:10115000813029F00E94DF01813009F0A6C01F8292
:1011600089E390E0FC018081282F30E083E390E068
:10117000FC018081882F90E08F709927982F882715
:10118000820F931F9B878A8783E390E0FC01808115
:1011900082958F70282F30E086E390E0FC018081FB
:1011A000882F90E082959295907F9827807F98274E
:1011B000822B932B9D878C871E821D8269C081E0C4
:1011C00090E00D8002C0880F991F0A94E2F79C01FD
:1011D0008A859B8582239323892B19F58D818F5FC7
:1011E0008F838F81882F90E0292F2F938F938BEF00
:1011F00093E0892F8F938BEF93E08F93CE010E9620
:10120000292F2F938F930E94E30D0F900F900F9033
:101210000F900F900F90CE010E96BC0183E00E94BC
:101220009C0681E090E00D8002C0880F991F0A940F
:10123000E2F79C018C859D8582239323892B19F5E8
:101240008D818F5F8F838F81882F90E0292F2F933F
:101250008F9380E094E0892F8F9380E094E08F93C8
:10126000CE010E96292F2F938F930E94E30D0F909E
:101270000F900F900F900F900F90CE010E96BC0123
:1012800083E00E949C068D819E8101969E838D83C2
:101290008D819E810C970CF492CF8F81882329F049
:1012A00080E090E00E9420073DC080915904813089
:1012B000B1F41092590485E094E00E94A30085E007
:1012C00094E00E94A30085E094E00E94A30085E0E2
:1012D00094E00E94A30085E094E00E94A300809126
:1012E0005804813009F019CE0E943B020E94DA02B4
:1012F0000E94AD050E947D03CE0182599F4F0E943E
:10130000A300CE0182599F4F0E94A300CE018259B3
:101310009F4F0E94A300CE0182599F4F0E94A300BD
:10132000FCCD0000FACD1F920F9200905F000F924B
:1013300011242F933F934F935F936F937F938F93DA
:101340009F93AF93BF93EF93FF93CF93DF93CDB76B
:10135000DEB780913A0190913B01019790933B0158
:1013600080933A0180913A0190913B01892B41F49D
:101370000E94610184E690E090933B0180933A01E2
:1013800080915F0490916004892B49F080915F0403
:101390009091600401979093600480935F04809122
:1013A000610490916204892B49F0809161049091CD
:1013B00062040197909362048093610480916304B6
:1013C00090916404892B49F08091630490916404A6
:1013D000019790936404809363040000DF91CF91A0
:1013E000FF91EF91BF91AF919F918F917F916F91FD
:1013F0005F914F913F912F910F9000925F000F905E
:101400001F9018951F920F9200905F000F92112469
:101410002F933F934F935F936F937F938F939F93FC
:10142000AF93BF93EF93FF93CF93DF9300D000D0A0
:10143000CDB7DEB784E290E0FC018081882F90E098
:10144000A0E0B0E089839A83AB83BC8385E290E01F
:10145000FC018081882F90E0982F8827092E000CAE
:10146000AA0BBB0B29813A814B815C81822B932B88
:10147000A42BB52B89839A83AB83BC8380915C04B6
:10148000882F90E0092E000CAA0BBB0B40E050E027
:1014900027E030E0841B950B2817390708F4D2C1E8
:1014A0008C5A9F4FFC010C94800D29813A814B810D
:1014B0005C8184EF91E0DC010E94950DDC01CB01A1
:1014C0002FEF33E040E050E0BC01CD010E945E0D03
:1014D000DA01C9019093AD058093AC058091AC050C
:1014E0009091AD05292F2F938F9388E094E0892F59
:1014F0008F9388E094E08F9386EC94E0892F8F930C
:1015000086EC94E08F930E94E30D0F900F900F9064
:101510000F900F900F9080915604882309F496C184
:1015200086EC94E00E94A30091C129813A814B810D
:101530005C8184EF91E0DC010E94950DDC01CB0120
:101540002FEF33E040E050E0BC01CD010E945E0D82
:10155000DA01C9019C0144E1429FC001439F900D03
:1015600011249093A5058093A4058091A4059091E2
:10157000A505292F2F938F9383E194E0892F8F93D3
:1015800083E194E08F9386EC94E0892F8F9386EC2F
:1015900094E08F930E94E30D0F900F900F900F90A7
:1015A0000F900F9080915604882309F451C186EC66
:1015B00094E00E94A3004CC129813A814B815C8157
:1015C00084EF91E0DC010E94950DDC01CB012FEF4F
:1015D00033E040E050E0BC01CD010E945E0DDA0135
:1015E000C9019C0144E1429FC001439F900D112419
:1015F0009093AB058093AA058091AA059091AB05C5
:10160000292F2F938F938EE194E0892F8F938EE172
:1016100094E08F9386EC94E0892F8F9386EC94E08E
:101620008F930E94E30D0F900F900F900F900F90EB
:101630000F9080915604882309F40CC186EC94E045
:101640000E94A30007C129813A814B815C8184EF0C
:1016500091E0DC010E94950DDC01CB012FEF33E01E
:1016600040E050E0BC01CD010E945E0DDA01C901ED
:1016700090938B0580938A0580918A0590918B05C4
:10168000292F2F938F9389E294E0892F8F9389E2FA
:1016900094E08F9386EC94E0892F8F9386EC94E00E
:1016A0008F930E94E30D0F900F900F900F900F906B
:1016B0000F9080915604882309F4CEC086EC94E004
:1016C0000E94A300C9C029813A814B815C8184EFCB
:1016D00091E0DC010E94950DDC01CB012FEF33E09E
:1016E00040E050E0BC01CD010E945E0DDA01C9016D
:1016F0009093B3058093B2058091B2059091B305A4
:10170000292F2F938F9384E394E0892F8F9384E381
:1017100094E08F9386EC94E0892F8F9386EC94E08D
:101720008F930E94E30D0F900F900F900F900F90EA
:101730000F9080915604882309F490C086EC94E0C1
:101740000E94A3008BC029813A814B815C8184EF88
:1017500091E0DC010E94950DDC01CB012FEF33E01D
:1017600040E050E0BC01CD010E945E0DDA01C901EC
:101770009093A7058093A6058091A6059091A70553
:10178000292F2F938F938FE394E0892F8F938FE3EB
:1017900094E08F9386EC94E0892F8F9386EC94E00D
:1017A0008F930E94E30D0F900F900F900F900F906A
:1017B0000F9080915604882309F452C086EC94E07F
:1017C0000E94A3004DC029813A814B815C8184EF46
:1017D00091E0DC010E94950DDC01CB012FEF33E09D
:1017E00040E050E0BC01CD010E945E0DDA01C9016C
:1017F0009093B1058093B0058091B0059091B105AB
:10180000292F2F938F938AE494E0892F8F938AE472
:1018100094E08F9386EC94E0892F8F9386EC94E08C
:101820008F930E94E30D0F900F900F900F900F90E9
:101830000F90809156048823A9F086EC94E00E94D2
:10184000A30010C000000FC000000DC000000BC0BE
:10185000000009C0000007C0000005C0000003C070
:10186000000001C0000080915C048F5F80935C04E5
:1018700080915C04883010F010925C0487E290E064
:1018800027E230E0F9012081287FFC01208387E2F4
:1018900090E027E230E0F901308120915C04232BB5
:1018A000FC01208386E290E026E230E0F90120810D
:1018B0002064FC01208300000F900F900F900F9088
:1018C000DF91CF91FF91EF91BF91AF919F918F9158
:1018D0007F916F915F914F913F912F910F90009267
:1018E0005F000F901F9018951F920F9200905F005D
:1018F0000F9211242F933F934F935F936F937F9396
:101900008F939F93AF93BF93EF93FF93CF93DF9307
:1019100000D01F92CDB7DEB78CE290E0FC01808151
:101920008B838B81882F90E08B31910539F08F3735
:10193000910509F45AC00D9721F06CC00E942A024B
:1019400091C080915A0490915B04892B29F485E021
:1019500094E00E94A30086C080915A0490915B0499
:101960008A5D9A4FFC0110821A8219821FC08981F8
:101970009A818A5D9A4FFC01208189819A818A59D6
:101980009B4FFC01208389819A818A599B4FFC01DE
:101990008081803231F489819A818A599B4FFC0180
:1019A000108289819A8101969A83898389819A819B
:1019B0008A5D9A4FFC018081882329F089819A8170
:1019C00080369105A0F289819A818A599B4FFC014A
:1019D000108210925B0410925A0485E094E00E94F9
:1019E000A30081E0809357043DC080915A049091F8
:1019F0005B04892B49F080915A0490915B04019714
:101A000090935B0480935A048CE290E02B81FC015C
:101A1000208328C080915A0490915B048A5D9A4F7C
:101A20002B81FC01208380915A0490915B040196E4
:101A300090935B0480935A0480915A0490915B04C4
:101A40008136910548F080915A0490915B0401978A
:101A500090935B0480935A048CE290E02B81FC010C
:101A60002083000000000F900F900F90DF91CF9126
:101A7000FF91EF91BF91AF919F918F917F916F9166
:101A80005F914F913F912F910F9000925F000F90C7
:101A90001F90189597FB072E16F4009407D077FD3A
:101AA00009D00E94A00D07FC05D03EF490958195C9
:101AB0009F4F0895709561957F4F0895A1E21A2E6A
:101AC000AA1BBB1BFD010DC0AA1FBB1FEE1FFF1FE2
:101AD000A217B307E407F50720F0A21BB30BE40B32
:101AE000F50B661F771F881F991F1A9469F7609579
:101AF0007095809590959B01AC01BD01CF01089533
:101B0000EE0FFF1F0590F491E02D0994A29FB00104
:101B1000B39FC001A39F700D811D1124911DB29F21
:101B2000700D811D1124911D08950E94860DA59FA1
:101B3000900DB49F900DA49F800D911D11240895C8
:101B4000AA1BBB1B51E107C0AA1FBB1FA617B707E3
:101B500010F0A61BB70B881F991F5A95A9F78095FF
:101B60009095BC01CD010895FC0188279927E89440
:101B700021912032E9F3293010F02E30C8F32B32B6
:101B800041F02D3239F4689404C00E94DB0D820FBD
:101B9000911D219120532A30C0F31EF49095819518
:101BA0009F4F0895FB01DC018D9101908019011078
:101BB000D9F3990B08957AE0979F902D879F802DF8
:101BC000910D11240895AEE0B0E0E9EEFDE00C9433
:101BD000A4100D891E8986E08C831A8309838FEFF8
:101BE0009FE79E838D83AE01475E5F4F6F89788D3F
:101BF000CE0101960E94050EEF81F885E00FF11FDE
:101C000010822E96E4E00C94C010ABE0B0E0EBE064
:101C1000FEE00C9496106C017B018A01FC01178296
:101C20001682838181FFCCC1CE0101963C01F60171
:101C30009381F70193FD859193FF81917F01882323
:101C400009F4BAC1853239F493FD859193FF8191EE
:101C50007F01853229F4B60190E00E94FC0FE7CFA6
:101C6000912C212C312CFFE1F315D8F08B3279F037
:101C700038F4803279F08332A1F4232D20611DC025
:101C80008D3261F0803369F4232D216016C0832DDD
:101C90008260382EE32DE4603E2E2AC0F32DF860DA
:101CA0001DC037FC2DC020ED280F2A3040F08E32A9
:101CB000B9F436FC81C1232D2064322E19C036FEC2
:101CC00006C08AE0989E200D1124922E11C0EAE0F1
:101CD0002E9E200D1124222EF32DF0623F2E08C0DF
:101CE0008C3621F4832D8068382E02C0883641F46A
:101CF000F70193FD859193FF81917F018111B3CF0E
:101D0000982F9F7D9554933028F40C5F1F4F9FE3CD
:101D100099830DC0833631F0833771F0833509F034
:101D200059C021C0F801808189830E5F1F4F88242C
:101D30008394912C530113C02801F2E04F0E511CE3
:101D4000F801A080B18036FE03C0692D70E002C0AA
:101D50006FEF7FEFC5010E94F10F4C018201F32D5F
:101D6000FF773F2E16C0280122E0420E511CF801D9
:101D7000A080B18036FE03C0692D70E002C06FEF15
:101D80007FEFC5010E94E60F4C01F32DF0683F2E56
:101D9000820133FC1BC0822D90E088169906B0F4B6
:101DA000B60180E290E00E94FC0F2A94F4CFF50186
:101DB00037FC859137FE81915F01B60190E00E946A
:101DC000FC0F21102A9421E0821A910881149104B9
:101DD00071F7E8C0843611F0893641F5F80137FE15
:101DE00007C060817181828193810C5F1F4F08C0A1
:101DF00060817181072E000C880B990B0E5F1F4FBD
:101E0000F32DFF763F2E97FF09C090958095709532
:101E100061957F4F8F4F9F4FF0683F2E2AE030E053
:101E2000A3010E943810882E861845C0853731F4EA
:101E3000232D2F7EB22E2AE030E025C0932D997FEE
:101E4000B92E8F36C1F018F4883579F0B5C08037D7
:101E500019F0883721F0B0C0E92FE061BE2EB4FE42
:101E60000DC0FB2DF460BF2E09C034FE0AC0292F1F
:101E70002660B22E06C028E030E005C020E130E048
:101E800002C020E132E0F801B7FE07C06081718135
:101E9000828193810C5F1F4F06C06081718180E059
:101EA00090E00E5F1F4FA3010E943810882E861805
:101EB000FB2DFF773F2E36FE0DC0232D2E7FA22E49
:101EC000891458F434FE0BC032FC09C0832D8E7E79
:101ED000A82E05C0B82CA32C03C0B82C01C0B92C67
:101EE000A4FE0FC0FE01E80DF11D8081803321F4B6
:101EF0009A2D997EA92E09C0A2FE06C0B394B39470
:101F000004C08A2D867809F0B394A3FC11C0A0FE0A
:101F100006C0B21488F4280C922C9B180EC0B21480
:101F200060F4B60180E290E00E94FC0FB394F7CF1A
:101F3000B21418F42B1802C0982C212CA4FE10C047
:101F4000B60180E390E00E94FC0FA2FE17C0A1FC46
:101F500003C088E790E002C088E590E0B6010CC0BD
:101F60008A2D867859F0A1FE02C08BE201C080E282
:101F7000A7FC8DE2B60190E00E94FC0F891438F4B2
:101F8000B60180E390E00E94FC0F9A94F7CF8A9408
:101F9000F301E80DF11D8081B60190E00E94FC0F75
:101FA0008110F5CF222009F442CEB60180E290E004
:101FB0000E94FC0F2A94F6CFF6018681978102C019
:101FC0008FEF9FEF2B96E2E10C94B210FC0105908D
:101FD000615070400110D8F7809590958E0F9F1F2B
:101FE0000895FC016150704001900110D8F7809570
:101FF00090958E0F9F1F08950F931F93CF93DF939C
:10200000FB01238121FD03C08FEF9FEF2CC022FF36
:1020100016C046815781248135814217530744F405
:10202000A081B1819D012F5F3F4F318320838C932D
:10203000268137812F5F3F4F3783268314C08B0162
:10204000EC01FB010084F185E02D0995892BE1F677
:10205000D80116968D919C911797019617969C938F
:102060008E931697CE01DF91CF911F910F91089516
:10207000FA01AA27283051F1203181F1E8946F93B9
:102080006E7F6E5F7F4F8F4F9F4FAF4FB1E03ED05F
:10209000B4E03CD0670F781F891F9A1FA11D680FFD
:1020A000791F8A1F911DA11D6A0F711D811D911D30
:1020B000A11D20D009F468943F912AE0269F1124A5
:1020C0003019305D3193DEF6CF010895462F477009
:1020D000405D4193B3E00FD0C9F7F6CF462F4F7064
:1020E000405D4A3318F0495D31FD4052419302D0C2
:1020F000A9F7EACFB4E0A695979587957795679568
:10210000BA95C9F700976105710508959B01AC0167
:102110000A2E06945795479537952795BA95C9F78E
:10212000620F731F841F951FA01D08952F923F9269
:102130004F925F926F927F928F929F92AF92BF92D7
:10214000CF92DF92EF92FF920F931F93CF93DF9383
:10215000CDB7DEB7CA1BDB0B0FB6F894DEBF0FBEE0
:10216000CDBF09942A88398848885F846E847D842D
:102170008C849B84AA84B984C884DF80EE80FD802F
:102180000C811B81AA81B981CE0FD11D0FB6F894A5
:0E219000DEBF0FBECDBFED010895F894FFCF66
:10219E003C014A016C019001B401DE010602000F00
:1021AE0002011702022002032802043002053D023A
:1021BE00064602074F020858020961020A69020B1D
:1021CE0072020C7C020D00000E016400303020D033
:1021DE0093D09ED0A2D09ED09200303120D09DD0F0
:1021EE0095D098D0A1D09FD0A0D090D092D09DD095
:1021FE00A1D0A2D0AC20D098D0A22100303220D0D5
:10220E009DD095D098D0A1D09FD0A0D090D092D074
:10221E009DD09ED0A1D0A2D0AC20D097D0A321002B
:10222E00303320D09DD095D098D0A1D09FD0A0D0C3
:10223E0090D092D09DD09ED0A1D0A2D0AC20D090E4
:10224E00D0912000303420D09DD095D098D097D00A
:10225E0092D095D0A1D0A2D09DD090D0AF20D09AC0
:10226E00D09ED09CD090D09DD094D090210030356F
:10227E0020D0A1D098D0A1D0A2D095D09CD0902023
:10228E00D09DD095D098D0A1D09FD0A0D090D092F4
:10229E00D09DD090210073746172742D6974007397
:1022AE00746F702D69740073746172742D7A750079
:1022BE0073746F702D7A750076657273696F6E0028
:1022CE006765742D626F6172642D69640067657451
:1022DE002D62617431006765742D6261743200671E
:1022EE0065742D756F7374006765742D756F736EDD
:1022FE00007365742D757A740075737469722D6F21
:10230E006E0075737469722D6F66660073746172F8
:10231E00742D646961676E004042415431203D2046
:10232E00004042415432203D200040556F737431BD
:10233E003D25642E256425640040556F7374323D2F
:10234E0025642E256425640040556F7374333D2536
:10235E00642E256425640040556F7374343D2564E6
:10236E002E256425640040556F7374353D25642E0B
:10237E00256425640040556F736E313D25642E250E
:10238E006425640040556F736E323D25642E2564BE
:10239E002564002200220D0A005B005D005D0D0A1F
:1023AE000053746172742033207365636F6E6473AF
:1023BE0020636F756E740033207365630032207373
:1023CE0065630031207365630030207365630043DD
:1023DE004D445F53544152545F495420D0B2D18B77
:1023EE00D0BFD0BED0BBD0BDD0B5D0BDD0BE0043C7
:1023FE004D445F53544F505F495400434D445F5317
:10240E00544152545F5A5520D0B2D18BD0BFD0BE5A
:10241E00D0BBD0BDD0B5D0BDD0BE00434D445F5370
:10242E00544F505F5A5520D0B2D18BD0BFD0BED0B2
:10243E00BBD0BDD0B5D0BDD0BE00405645523D320A
:10244E003031392E30332E32360D0A004049443D9C
:10245E00303030310D0A0053657474696E67205543
:10246E007A7420746F3A200076616C75653D256430
:10247E00005374617274696E6720646961676E6F70
:10248E0073746963206D6F64652100313A256400B1
:10249E00323A2564000D0A00556F736E313D256486
:1024AE000D0A00556F7374313D25640D0A00556F8A
:1024BE00736E323D25640D0A00556F7374353D25DC
:1024CE00640D0A00556F7374343D25640D0A005572
:1024DE006F7374333D25640D0A00556F7374323D6E
:0624EE0025640D0A000048
:00000001FF
