:100000000C9446000C9463000C9463000C94630001
:100010000C9463000C9463000C9463000C946300D4
:100020000C9463000C9463000C9463000C946300C4
:100030000C9463000C9463000C9463000C946300B4
:100040000C9463000C9463000C9463000C946300A4
:100050000C9463000C9463000C9463000C94630094
:100060000C9463000C9463000C9463000C94630084
:100070000C9463000C9463000C9463000C94630074
:100080000C9463000C9463000C94630011241FBE55
:10009000CFEFD0E1DEBFCDBF11E0A0E0B1E0E0E105
:1000A000F1E002C005900D92A437B107D9F721E025
:1000B000A4E7B1E001C01D92AD37B207E1F70E949D
:1000C00083000C9486000C940000E4E7F1E080E0EB
:1000D00091E080838AE091E0818383E191E08283F3
:1000E00080E291E083838CE291E084838BE391E072
:1000F000858389E491E0868384E591E0878384E6C3
:1001000091E0808708950E946500FFCFF894FFCFAB
:1001100053746172744563686F0053746F70456304
:10012000686F00537461727443686172676572002E
:1001300053746F70436861726765720053746172C3
:1001400074436F6E7665727465720053746F70439A
:100150006F6E766572746572005365744375727262
:10016000656E7400537461727441646A7573746D62
:10017000656E740053746F7041646A7573746D6555
:040180006E74000099
:00000001FF
