:100000000C944D000C946A000C946A000C946A00E5
:100010000C946A000C946A000C946A000C946A00B8
:100020000C946A000C946A000C946A000C946A00A8
:100030000C9413010C946A000C946A000C946A00EE
:100040000C946A000C946A000C948A030C946A0065
:100050000C946A000C9448010C946A000C946A0099
:100060000C946A000C946A000C946A000C946A0068
:100070000C946A000C946A000C946A000C946A0058
:100080000C946A000C946A000C946A007701BE011B
:1000900005024C029302DA02210311241FBECFEFA6
:1000A000D0E1DEBFCDBF12E0A0E0B1E0EEE3FEE0C4
:1000B00002C005900D92AE3DB107D9F723E0AEED39
:1000C000B2E001C01D92AE3DB207E1F70E94A70069
:1000D0000C941D070C9400001ABA14BA17BA1092A7
:1000E000610088E18093640082B90895E5E6F0E05C
:1000F000908180E18927808308951BB828E92AB977
:1001000026E0209395009093900089B90895FC0112
:100110001092DE0290819923A1F05D9BFECF9CB9E5
:100120009091DE02DF01A90FB11D8C918A3049F058
:100130009F5F9093DE02DF01A90FB11D9C91911189
:10014000ECCF089580E487B98FEC86B908950E94BA
:100150006C000E94760080E090E00E947D000E948A
:10016000A200369A8BE391E00E9487008DE491E033
:100170000E9487008FE691E00E94870080E891E06E
:100180000E9487008FE891E00E94870078940F2EEC
:10019000F2E0EF2EF1E0FF2EF02D8091E2028130AF
:1001A000E1F781EB91E00E94870087E991E00E94EE
:1001B000870084EE92E00E94870081EB91E00E942C
:1001C0008700F701608171816115710529F1C5E032
:1001D000D1E000E010E084EE92E00E942A04892B36
:1001E00089F483EA91E00E948700F801EE0FFF1F77
:1001F0000E0F1F1FF801EE5FFE4F80819181892B4A
:1002000079F40AC00F5F1F4F2396FE013397608178
:10021000718161157105F9F684EB91E00E94870008
:100220001092E202BACF1F920F920FB60F921124D2
:100230002F933F934F935F936F937F938F939F93EE
:10024000AF93BF93EF93FF938091000190910101D1
:1002500001979093010180930001892B41F40E9442
:10026000760084EF91E09093010180930001FF916B
:10027000EF91BF91AF919F918F917F916F915F911E
:100280004F913F912F910F900FBE0F901F90189597
:100290001F920F920FB60F9211242F933F934F93FB
:1002A0005F936F937F938F939F93AF93BF93EF93DE
:1002B000FF9384B190E09093CD038093CC0325B15C
:1002C0008091CC039091CD03922B9093CD0380939A
:1002D000CC03E091DF028E2F90E0FC013197E730F4
:1002E000F10508F0F3C1EA5BFF4F0C94150480910F
:1002F000CC039091CD039C01220F331F220F331F9B
:10030000280F391F329522952F7023273F702327FE
:10031000AAE6B3E00E941B04A0E0B0E08093D20301
:100320009093D303A093D403B093D5038091D203C9
:100330009091D303A091D403B091D503BF93AF9311
:100340009F938F9381EC91E09F938F9384E293E04E
:100350009F938F930E9433048DB79EB708960FB674
:10036000F8949EBF0FBE8DBF8091E302882309F4ED
:10037000ADC184E293E00E948700A8C18091CC03C4
:100380009091CD039C01220F331F220F331F280FA2
:10039000391F329522952F7023273F702327AAE615
:1003A000B3E00E941B04A0E0B0E08093C4039093EC
:1003B000C503A093C603B093C7038091C403909173
:1003C000C503A091C603B091C703BF93AF939F939A
:1003D0008F938DEC91E09F938F9384E293E09F93B2
:1003E0008F930E9433048DB79EB708960FB6F8948A
:1003F0009EBF0FBE8DBF8091E302882309F466C1C2
:1004000084E293E00E94870061C18091CC039091C7
:10041000CD039C01220F331F220F331F280F391FDA
:10042000329522952F7023273F702327AAE6B3E049
:100430000E941B04A0E0B0E08093CE039093CF0312
:10044000A093D003B093D1038091CE039091CF03BA
:10045000A091D003B091D103BF93AF939F938F939B
:1004600089ED91E09F938F9384E293E09F938F9324
:100470000E9433048DB79EB708960FB6F8949EBFBE
:100480000FBE8DBF8091E302882309F41FC184E26F
:1004900093E00E9487001AC18091CC039091CD0314
:1004A0009C01220F331F220F331F280F391F329553
:1004B00022952F7023273F702327AAE6B3E00E94DE
:1004C0001B04A0E0B0E08093A8039093A903A0933D
:1004D000AA03B093AB038091A8039091A903A091C4
:1004E000AA03B091AB03BF93AF939F938F9385EE15
:1004F00091E09F938F9384E293E09F938F930E9468
:1005000033048DB79EB708960FB6F8949EBF0FBE02
:100510008DBF8091E302882309F4D8C084E293E080
:100520000E948700D3C08091CC039091CD039C01A1
:10053000220F331F220F331F280F391F32952295A8
:100540002F7023273F702327AAE6B3E00E941B04E5
:10055000A0E0B0E08093DA039093DB03A093DC0388
:10056000B093DD038091DA039091DB03A091DC036B
:10057000B091DD03BF93AF939F938F9381EF91E091
:100580009F938F9384E293E09F938F930E94330411
:100590008DB79EB708960FB6F8949EBF0FBE8DBF5D
:1005A0008091E302882309F491C084E293E00E94E1
:1005B00087008CC08091CC039091CD039C01220FC9
:1005C000331F220F331F280F391F329522952F70AA
:1005D00023273F702327AAE6B3E00E941B04A0E074
:1005E000B0E08093C8039093C903A093CA03B0936B
:1005F000CB038091C8039091C903A091CA03B09125
:10060000CB03BF93AF939F938F938DEF91E09F9315
:100610008F9384E293E09F938F930E9433048DB76E
:100620009EB708960FB6F8949EBF0FBE8DBF8091FF
:10063000E302882309F44AC084E293E00E94870021
:1006400045C08091CC039091CD039C01220F331FB4
:10065000220F331F280F391F329522952F70232721
:100660003F702327AAE6B3E00E941B04A0E0B0E09D
:100670008093D6039093D703A093D803B093D90364
:100680008091D6039091D703A091D803B091D9035C
:10069000BF93AF939F938F9389E092E09F938F9343
:1006A00084E293E09F938F930E9433048DB79EB7AB
:1006B00008960FB6F8949EBF0FBE8DBF8091E302DF
:1006C000882321F084E293E00E9487008091DF027A
:1006D0008F5F883018F48093DF0202C01092DF022F
:1006E00087B1887F87B997B18091DF02892B87B95D
:1006F000369AFF91EF91BF91AF919F918F917F912A
:100700006F915F914F913F912F910F900FBE0F907E
:100710001F9018951F920F920FB60F9211242F93CE
:100720003F934F935F936F937F938F939F93AF9379
:10073000BF93EF93FF938CB18B3139F08F3709F46E
:1007400046C08D3009F051C00BC08091E30281306A
:1007500019F41092E30258C081E08093E30254C080
:100760008091E0029091E102009729F485E192E006
:100770000E94870049C0FC01EC59FC4F1082809117
:100780006403882391F0A5E6B3E0E4EEF2E020E014
:1007900030E0803211F0808301C010822F5F3F4F24
:1007A0008D9131968111F5CF02C020E030E0F90142
:1007B000EC51FD4F10821092E1021092E00281EBA9
:1007C00091E00E94870081E08093E2021DC0809149
:1007D000E0029091E102009729F001979093E102E5
:1007E0008093E0028FE78CB90FC02091E002309136
:1007F000E102F901EC59FC4F80832F5F3F4F3093AA
:10080000E1022093E0028CB9FF91EF91BF91AF918B
:100810009F918F917F916F915F914F913F912F9118
:100820000F900FBE0F901F901895EE0FFF1F0590B1
:10083000F491E02D0994A29FB001B39FC001A39F42
:10084000700D811D1124911DB29F700D811D112409
:10085000911D0895FB01DC018D910190801901101B
:10086000D9F3990B0895AEE0B0E0E9E3F4E00C941D
:10087000F4060D891E8986E08C831A8309838FEF25
:100880009FE79E838D83AE01475E5F4F6F89788DB2
:10089000CE0101960E945504EF81F885E00FF11F0B
:1008A00010822E96E4E00C941007ABE0B0E0EBE58C
:1008B000F4E00C94E6066C017B018A01FC011782CE
:1008C0001682838181FFCCC1CE0101963C01F601E5
:1008D0009381F70193FD859193FF81917F01882397
:1008E00009F4BAC1853239F493FD859193FF819162
:1008F0007F01853229F4B60190E00E944C06E7CFD3
:10090000912C212C312CFFE1F315D8F08B3279F0AA
:1009100038F4803279F08332A1F4232D20611DC098
:100920008D3261F0803369F4232D216016C0832D50
:100930008260382EE32DE4603E2E2AC0F32DF8604D
:100940001DC037FC2DC020ED280F2A3040F08E321C
:10095000B9F436FC81C1232D2064322E19C036FE35
:1009600006C08AE0989E200D1124922E11C0EAE064
:100970002E9E200D1124222EF32DF0623F2E08C052
:100980008C3621F4832D8068382E02C0883641F4DD
:10099000F70193FD859193FF81917F018111B3CF81
:1009A000982F9F7D9554933028F40C5F1F4F9FE341
:1009B00099830DC0833631F0833771F0833509F0A8
:1009C00059C021C0F801808189830E5F1F4F8824A0
:1009D0008394912C530113C02801F2E04F0E511C57
:1009E000F801A080B18036FE03C0692D70E002C01E
:1009F0006FEF7FEFC5010E9441064C018201F32D8C
:100A0000FF773F2E16C0280122E0420E511CF8014C
:100A1000A080B18036FE03C0692D70E002C06FEF88
:100A20007FEFC5010E9436064C01F32DF0683F2E82
:100A3000820133FC1BC0822D90E088169906B0F429
:100A4000B60180E290E00E944C062A94F4CFF501B2
:100A500037FC859137FE81915F01B60190E00E94DD
:100A60004C0621102A9421E0821A910881149104E5
:100A700071F7E8C0843611F0893641F5F80137FE88
:100A800007C060817181828193810C5F1F4F08C014
:100A900060817181072E000C880B990B0E5F1F4F30
:100AA000F32DFF763F2E97FF09C0909580957095A6
:100AB00061957F4F8F4F9F4FF0683F2E2AE030E0C7
:100AC000A3010E948806882E861845C0853731F418
:100AD000232D2F7EB22E2AE030E025C0932D997F62
:100AE000B92E8F36C1F018F4883579F0B5C080374B
:100AF00019F0883721F0B0C0E92FE061BE2EB4FEB6
:100B00000DC0FB2DF460BF2E09C034FE0AC0292F92
:100B10002660B22E06C028E030E005C020E130E0BB
:100B200002C020E132E0F801B7FE07C060817181A8
:100B3000828193810C5F1F4F06C06081718180E0CC
:100B400090E00E5F1F4FA3010E948806882E861832
:100B5000FB2DFF773F2E36FE0DC0232D2E7FA22EBC
:100B6000891458F434FE0BC032FC09C0832D8E7EEC
:100B7000A82E05C0B82CA32C03C0B82C01C0B92CDA
:100B8000A4FE0FC0FE01E80DF11D8081803321F429
:100B90009A2D997EA92E09C0A2FE06C0B394B394E3
:100BA00004C08A2D867809F0B394A3FC11C0A0FE7E
:100BB00006C0B21488F4280C922C9B180EC0B214F4
:100BC00060F4B60180E290E00E944C06B394F7CF47
:100BD000B21418F42B1802C0982C212CA4FE10C0BB
:100BE000B60180E390E00E944C06A2FE17C0A1FC73
:100BF00003C088E790E002C088E590E0B6010CC031
:100C00008A2D867859F0A1FE02C08BE201C080E2F5
:100C1000A7FC8DE2B60190E00E944C06891438F4DE
:100C2000B60180E390E00E944C069A94F7CF8A9434
:100C3000F301E80DF11D8081B60190E00E944C06A1
:100C40008110F5CF222009F442CEB60180E290E077
:100C50000E944C062A94F6CFF6018681978102C045
:100C60008FEF9FEF2B96E2E10C940207FC010590B9
:100C7000615070400110D8F7809590958E0F9F1F9E
:100C80000895FC016150704001900110D8F78095E3
:100C900090958E0F9F1F08950F931F93CF93DF930F
:100CA000FB01238121FD03C08FEF9FEF2CC022FFAA
:100CB00016C046815781248135814217530744F479
:100CC000A081B1819D012F5F3F4F318320838C93A1
:100CD000268137812F5F3F4F3783268314C08B01D6
:100CE000EC01FB010084F185E02D0995892BE1F6EB
:100CF000D80116968D919C911797019617969C9303
:100D00008E931697CE01DF91CF911F910F91089589
:100D1000FA01AA27283051F1203181F1E8946F932C
:100D20006E7F6E5F7F4F8F4F9F4FAF4FB1E03ED0D2
:100D3000B4E03CD0670F781F891F9A1FA11D680F70
:100D4000791F8A1F911DA11D6A0F711D811D911DA3
:100D5000A11D20D009F468943F912AE0269F112418
:100D60003019305D3193DEF6CF010895462F47707C
:100D7000405D4193B3E00FD0C9F7F6CF462F4F70D7
:100D8000405D4A3318F0495D31FD4052419302D035
:100D9000A9F7EACFB4E0A6959795879577956795DB
:100DA000BA95C9F700976105710508959B01AC01DB
:100DB0000A2E06945795479537952795BA95C9F702
:100DC000620F731F841F951FA01D08952F923F92DD
:100DD0004F925F926F927F928F929F92AF92BF924B
:100DE000CF92DF92EF92FF920F931F93CF93DF93F7
:100DF000CDB7DEB7CA1BDB0B0FB6F894DEBF0FBE54
:100E0000CDBF09942A88398848885F846E847D84A0
:100E10008C849B84AA84B984C884DF80EE80FD80A2
:100E20000C811B81AA81B981CE0FD11D0FB6F89418
:0E0E3000DEBF0FBECDBFED010895F894FFCFD9
:100E3E00F4012A02003402013D02024602034E0270
:100E4E00045602056302067302077E020889020930
:100E5E0095020A9E020BA7020CB1020DBA020EC336
:100E6E00020FCB0210D402110000124769766520E2
:100E7E006D6520626174746572790D0A00506F772A
:100E8E00657220737570706C7920436F6E74726F1B
:100E9E006C6C65722076657220302E310D0A00283A
:100EAE006329204E4E54552C20323031380D0A0015
:100EBE004563686F206D6F6465204F4E0D0A0052BA
:100ECE00656164790D0A00536561726368696E67C6
:100EDE003A2000436F6D6D616E6420666F756E64AF
:100EEE00210D0A004E6F7420666F756E64210D0A17
:100EFE0000556F736E313D256C640D0A00556F738E
:100F0E0074313D256C640D0A00556F736E323D25AC
:100F1E006C640D0A00556F7374353D256C640D0AB3
:100F2E0000556F7374343D256C640D0A00556F7354
:100F3E0074333D256C640D0A00556F7374323D2574
:100F4E006C640D0A004E6F20436F6D6D616E6420F0
:100F5E00656E74657265640D0A0073746172742D2A
:100F6E0070776D0073746F702D70776D0073746190
:100F7E0072742D7A750073746F702D7A75007665A4
:100F8E007273696F6E006765742D626F6172642D86
:100F9E006964007365742D7570646174652D746970
:100FAE006D650073746172742D62617431007374B7
:100FBE006172742D626174320073746172742D6289
:100FCE0061743132006765742D626174310067653A
:100FDE00742D62617432006765742D6261743132F2
:100FEE00006765742D756F7374006765742D756F6A
:100FFE00736E007365742D757A74007573746972EF
:0E100E002D6F6E0075737469722D6F6666002B
:00000001FF
