:100000000C9446000C9463000C9463000C94630001
:100010000C9463000C9463000C9463000C946300D4
:100020000C9463000C9463000C9463000C946300C4
:100030000C94BE000C9463000C9463000C94630059
:100040000C9463000C9463000C9463000C946300A4
:100050000C9463000C9463000C9463000C94630094
:100060000C9463000C9463000C9463000C94630084
:100070000C9463000C9463000C9463000C94630074
:100080000C9463000C9463000C94630011241FBE55
:10009000CFEFD0E1DEBFCDBF11E0A0E0B1E0EAEEEE
:1000A000F1E002C005900D92A23DB107D9F721E021
:1000B000A2EDB1E001C01D92A33DB207E1F70E949D
:1000C0009B000C94F3000C9400001ABA14BA17BAEF
:1000D0001092610088E18093640082B90895E5E69A
:1000E000F0E0908180E18927808308951BB828E1A2
:1000F0002AB926E0209395009093900089B908953D
:10010000FC011092D20190819923A1F05D9BFECF5A
:100110009CB99091D201DF01A90FB11D8C918A3059
:1001200049F09F5F9093D201DF01A90FB11D9C910F
:100130009111ECCF08950E9465000E946F0087E640
:1001400090E00E94760085E791E00E94800087E8B9
:1001500091E00E94800089EA91E00E9480008AEB91
:1001600091E00E94800089EC91E00E9480005F9BFA
:10017000FECF8CB15D9BFECF8CB9F9CF1F920F9251
:100180000FB60F9211242F933F934F935F936F936A
:100190007F938F939F93AF93BF93EF93FF93809140
:1001A000000190910101019790930101809300015A
:1001B000892B41F40E946F0084EF91E0909301013C
:1001C00080930001FF91EF91BF91AF919F918F912B
:1001D0007F916F915F914F913F912F910F900FBE43
:0A01E0000F901F901895F894FFCFC0
:1001EA00F40153746172744563686F0053746F70DD
:1001FA004563686F0053746172744368617267651E
:10020A00720053746F704368617267657200537449
:10021A00617274436F6E7665727465720053746F9F
:10022A0070436F6E766572746572005365744375B8
:10023A007272656E7400537461727441646A757384
:10024A00746D656E740053746F7041646A7573746B
:10025A006D656E740047697665206D65206261740C
:10026A00746572790D0A00506F7765722073757024
:10027A00706C7920436F6E74726F6C6C6572207645
:10028A00657220302E310D0A00286329204E4E5403
:10029A00552C20323031380D0A004563686F206DC5
:1002AA006F6465204F4E0D0A0052656164790D0A2C
:0202BA00000042
:00000001FF
