:100000000C945C000C9479000C9479000C947900A9
:100010000C9479000C9479000C9479000C9479007C
:100020000C9479000C9479000C9479000C9479006C
:100030000C94660B0C9479000C9479000C94790064
:100040000C9479000C9479000C941C0F0C9479009A
:100050000C9479000C94F30B0C9479000C947900B7
:100060000C9479000C9479000C9479000C9479002C
:100070000C9479000C9479000C9479000C9479001C
:100080000C9479000C9479000C9479001B092309D5
:100090002B0933093B094009450948094B094E0919
:1000A00051099E099E099509CC0E460C6C0E9B0CBD
:1000B000F00C4F0DAE0D0D0E11241FBECFEFD0E191
:1000C000DEBFCDBF14E0A0E0B1E0EEEEF6E202C08C
:1000D00005900D92A63EB107D9F726E0A6EEB4E052
:1000E00001C01D92A536B207E1F70E941C080C94CE
:1000F00075130C940000CF93DF9300D0CDB7DEB71B
:100100009A8389838BE290E0FC0110828AE290E07E
:1001100028E9FC01208385E990E026E0FC012083AA
:1001200080E990E029813A81232F3327FC01208345
:1001300089E290E02981FC01208300000F900F905C
:10014000DF91CF910895CF93DF9300D0CDB7DEB785
:100150009A838983109214052AC000008BE290E0F4
:10016000FC018081882F90E080729927892BB1F360
:100170008CE290E020911405222F30E049815A81D1
:10018000240F351FF9012081FC0120838091140583
:10019000882F90E029813A81820F931FFC01808192
:1001A0008A3091F0809114058F5F809314058091BF
:1001B0001405882F90E029813A81820F931FFC015A
:1001C0008081882351F601C0000000000F900F903D
:1001D000DF91CF910895CF93DF93CDB7DEB78FE452
:1001E00090E0FC0110828EE490E02CE0FC01208382
:1001F00087E590E020E1FC0120838AE490E021E79C
:1002000032E0FC01318320830000DF91CF9108951B
:10021000CF93DF93CDB7DEB78BE890E021E8FC0108
:1002200020838AE890E029E0FC0120838CE890E0BC
:10023000FC01108286E890E02FE730E0FC0131837A
:1002400020830000DF91CF910895CF93DF931F9219
:10025000CDB7DEB719828AE390E02981FC012083C3
:1002600084E390E02981FC01208387E390E02981E9
:10027000FC01208381E690E02981FC0120838BE34F
:1002800090E02FEFFC01208388E390E02FEFFC014A
:10029000208385E390E02FEFFC01208385E690E04A
:1002A0002FEFFC01208388E1898384E690E0298197
:1002B000FC0120838AEE898382E290E02981FC019F
:1002C000208300000F90DF91CF910895CF93DF93AB
:1002D0001F92CDB7DEB785E690E0FC01808189836F
:1002E000998180E18927898385E690E02981FC0155
:1002F000208300000F90DF91CF910895CF93DF937B
:10030000CDB7DEB787E290E020E4FC01208386E2EF
:1003100090E02FECFC0120830000DF91CF91089545
:10032000CF93DF9300D0CDB7DEB78A8383E290E02E
:10033000FC018081898389818F7D89838A818130D5
:1003400019F489818062898383E290E02981FC012C
:10035000208300000F900F90DF91CF910895CF93ED
:10036000DF931F92CDB7DEB783E290E0FC0180817E
:10037000898389818072898381E09981992309F435
:1003800080E00F90DF91CF910895CF93DF9300D05D
:10039000CDB7DEB78A8383E290E0FC018081898358
:1003A00089818F7789838A81813019F48981806876
:1003B000898383E290E02981FC01208300000F9073
:1003C0000F90DF91CF910895CF93DF931F92CDB718
:1003D000DEB783E290E0FC018081898389818078A7
:1003E000898381E09981992309F480E00F90DF915E
:1003F000CF910895CF93DF9300D0CDB7DEB79A8326
:10040000898389819A81909358068093570646E89C
:1004100050E089819A8196958795969587959C015C
:10042000ABE7B4E10E942E1096958795982F882708
:10043000969587959C01ABE7B4E10E942E109695A6
:100440008795FA019183808300000F900F90DF91D0
:10045000CF910895CF93DF93CDB7DEB781E080933E
:10046000E8040000DF91CF910895CF93DF93CDB7DB
:10047000DEB78091E804813029F41092E80481E02D
:100480008093E9040000DF91CF910895CF93DF932B
:10049000CDB7DEB7C456D1090FB6F894DEBF0FBE94
:1004A000CDBF1C821B8289E390E0FC018081282F54
:1004B00030E083E390E0FC018081882F90E08F7032
:1004C0009927982F8827820F931F9C838B83CE01B7
:1004D000059629E0EAEBF2E0DC0101900D922A9505
:1004E000E1F71A82198243C081E090E0098002C0DE
:1004F000880F991F0A94E2F79C018B819C818223CB
:100500009323892BC1F4CE0105969C01F90101903A
:100510000020E9F7CF010197821B930B9E012B5F0F
:100520003F4F820F931F20E330E2FC013183208391
:10053000FC01128217C0CE0105969C01F9010190C1
:100540000020E9F7CF010197821B930B9E012B5FDF
:100550003F4F820F931F21E330E2FC013183208360
:10056000FC01128289819A8101969A83898389810B
:100570009A810C9708F4B8CFCE0105969C01F90139
:1005800001900020E9F7CF010197821B930B9E0198
:100590002B5F3F4F820F931F2BE33DE0FC01318324
:1005A00020832AE030E0FC0133832283CE010596CC
:1005B0000E94A3000000CC59DF4F0FB6F894DEBFB5
:1005C0000FBECDBFDF91CF910895CF93DF93CDB70D
:1005D000DEB7C456D1090FB6F894DEBF0FBECDBF4B
:1005E0001C821B8283E390E0FC01808182958F70E6
:1005F000282F30E086E390E0FC018081882F90E096
:10060000817F992782959295907F9827807F982760
:10061000282B392B83E690E0FC018081882F90E025
:10062000880F991F82959295907F9827807F9827B1
:100630009927822B932B9C838B83CE01059629E0EF
:10064000E3ECF2E0DC0101900D922A95E1F71A82C9
:10065000198243C081E090E0098002C0880F991F91
:100660000A94E2F79C018B819C8182239323892B3E
:10067000C1F4CE0105969C01F90101900020E9F733
:10068000CF010197821B930B9E012B5F3F4F820F7F
:10069000931F20E330E2FC0131832083FC011282AE
:1006A00017C0CE0105969C01F90101900020E9F7E1
:1006B000CF010197821B930B9E012B5F3F4F820F4F
:1006C000931F21E330E2FC0131832083FC0112827D
:1006D00089819A8101969A83898389819A810C976D
:1006E00008F4B8CFCE0105969C01F90101900020D5
:1006F000E9F7CF010197821B930B9E012B5F3F4FC0
:10070000820F931F2BE33DE0FC01318320832AE01D
:1007100030E0FC0133832283CE0105960E94A300C2
:100720000000CC59DF4F0FB6F894DEBF0FBECDBF2F
:10073000DF91CF9108950F931F93CF93DF93CDB7A0
:10074000DEB7C156D1090FB6F894DEBF0FBECDBFDC
:100750008091FC049091FD0424E630E0B9010E94F0
:10076000F20F898399818DEC989F812D11248695B4
:1007700086958695880F282F220F220F820F292F0A
:10078000281B822FE82FF0E099818DEC989F812D16
:100790001124869586958695282F30E08091FC045B
:1007A0009091FD0444E650E0BA010E94F20FCB01A3
:1007B0004F2F4F934E2F4F93432F4F932F93292F0C
:1007C0002F938F938CEC92E0892F8F938CEC92E097
:1007D0008F93CE010296292F2F938F930E948B1017
:1007E0008DB79EB70A960FB6F894DEBF0FBECDBF89
:1007F000CE0102969C01F90101900020E9F7CF019A
:100800000197821B930B9E012E5F3F4F820F931F18
:1008100025E0EDEDF2E0DC0101900D922A95E1F783
:10082000CE0102960E94A3008091FE049091FF04E5
:1008300024E630E0B9010E94F20F898399818DECA2
:10084000989F812D1124869586958695880F282F4F
:10085000220F220F820FF92FF81B8F2FE82FF0E0C5
:1008600099818DEC989F812D11248695869586958A
:10087000282F30E08091FE049091FF0444E650E080
:10088000BA010E94F20FCB014F2F4F934E2F4F937F
:10089000432F4F932F93292F2F938F9382EE92E024
:1008A000892F8F9382EE92E08F93CE010296292FAB
:1008B0002F938F930E948B108DB79EB70A960FB619
:1008C000F894DEBF0FBECDBFCE0102969C01F901A8
:1008D00001900020E9F7CF010197821B930B9E0145
:1008E0002E5F3F4F820F931F25E0EDEDF2E0DC011C
:1008F00001900D922A95E1F7CE0102960E94A30085
:10090000809100059091010524E630E0B9010E9434
:10091000F20F898399818DEC989F812D1124869502
:1009200086958695880F282F220F220F820FF92F88
:10093000F81B8F2FE82FF0E099818DEC989F812D87
:100940001124869586958695282F30E080910005A4
:100950009091010544E650E0BA010E94F20FCB01EC
:100960004F2F4F934E2F4F93432F4F932F93292F5A
:100970002F938F938FEE92E0892F8F938FEE92E0DB
:100980008F93CE010296292F2F938F930E948B1065
:100990008DB79EB70A960FB6F894DEBF0FBECDBFD7
:1009A000CE0102969C01F90101900020E9F7CF01E8
:1009B0000197821B930B9E012E5F3F4F820F931F67
:1009C00025E0EDEDF2E0DC0101900D922A95E1F7D2
:1009D000CE0102960E94A30080910205909103052A
:1009E00024E630E0B9010E94F20F898399818DECF1
:1009F000989F812D1124869586958695880F282F9E
:100A0000220F220F820FF92FF81B8F2FE82FF0E013
:100A100099818DEC989F812D1124869586958695D8
:100A2000282F30E0809102059091030544E650E0C4
:100A3000BA010E94F20FCB014F2F4F934E2F4F93CD
:100A4000432F4F932F93292F2F938F938CEF92E067
:100A5000892F8F938CEF92E08F93CE010296292FEE
:100A60002F938F930E948B108DB79EB70A960FB667
:100A7000F894DEBF0FBECDBFCE0102969C01F901F6
:100A800001900020E9F7CF010197821B930B9E0193
:100A90002E5F3F4F820F931F25E0EDEDF2E0DC016A
:100AA00001900D922A95E1F7CE0102960E94A300D3
:100AB0002091FE043091FF04809100059091010582
:100AC000280F391F8091020590910305820F931F13
:100AD00024E630E0B9010E94F20F898399818DEC00
:100AE000989F812D1124869586958695880F282FAD
:100AF000220F220F820FF92FF81B8F2F082F10E0E3
:100B000099818DEC989F812D1124869586958695E7
:100B1000E82FF0E02091FE043091FF048091000561
:100B200090910105280F391F8091020590910305CE
:100B3000820F931F24E630E0B9010E94F20FCB012F
:100B4000212F2F93202F2F932F2F2F932E2F2F9343
:100B5000292F2F938F9389E093E0892F8F9389E03A
:100B600093E08F93CE010296292F2F938F930E94AB
:100B70008B108DB79EB70A960FB6F894DEBF0FBEE6
:100B8000CDBFCE0102969C01F90101900020E9F74A
:100B9000CF010197821B930B9E012E5F3F4F820F67
:100BA000931F25E0EDEDF2E0DC0101900D922A9516
:100BB000E1F7CE0102960E94A30080910405909176
:100BC000050524E630E0B9010E94F20F898399817E
:100BD0008DEC989F812D1124869586958695880F9A
:100BE000282F220F220F820FF92FF81B8F2FE82FAB
:100BF000F0E099818DEC989F812D11248695869542
:100C00008695282F30E0809104059091050544E6F3
:100C100050E0BA010E94F20FCB014F2F4F934E2F9D
:100C20004F93432F4F932F93292F2F938F938CE123
:100C300093E0892F8F938CE193E08F93CE010296FE
:100C4000292F2F938F930E948B108DB79EB70A96F2
:100C50000FB6F894DEBF0FBECDBFCE0102969C0149
:100C6000F90101900020E9F7CF010197821B930B56
:100C70009E012E5F3F4F820F931F28E0EDE2F3E0CD
:100C8000DC0101900D922A95E1F7CE0102960E94B7
:100C9000A3000000CF59DF4F0FB6F894DEBF0FBEA0
:100CA000CDBFDF91CF911F910F910895CF93DF9327
:100CB000CDB7DEB7C156D1090FB6F894DEBF0FBE6F
:100CC000CDBF8091EE049091EF0424E630E0B901AD
:100CD0000E94F20F898399818DEC989F812D1124B8
:100CE000869586958695880F282F220F220F820FD2
:100CF000292F281B822FE82FF0E099818DEC989FF7
:100D0000812D1124869586958695282F30E0809137
:100D1000EE049091EF0444E650E0BA010E94F20F15
:100D2000CB014F2F4F934E2F4F93432F4F932F9322
:100D3000292F2F938F9385E393E0892F8F9385E35A
:100D400093E08F93CE010296292F2F938F930E94C9
:100D50008B108DB79EB70A960FB6F894DEBF0FBE04
:100D6000CDBFCE0102969C01F90101900020E9F768
:100D7000CF010197821B930B9E012E5F3F4F820F85
:100D8000931F25E0EDEDF2E0DC0101900D922A9534
:100D9000E1F7CE0102960E94A3008091F0049091A9
:100DA000F10424E630E0B9010E94F20F89839981B1
:100DB0008DEC989F812D1124869586958695880FB8
:100DC000282F220F220F820FF92FF81B8F2FE82FC9
:100DD000F0E099818DEC989F812D11248695869560
:100DE0008695282F30E08091F0049091F10444E63C
:100DF00050E0BA010E94F20FCB014F2F4F934E2FBC
:100E00004F93432F4F932F93292F2F938F9384E446
:100E100093E0892F8F9384E493E08F93CE01029621
:100E2000292F2F938F930E948B108DB79EB70A9610
:100E30000FB6F894DEBF0FBECDBFCE0102969C0167
:100E4000F90101900020E9F7CF010197821B930B74
:100E50009E012E5F3F4F820F931F27E0E7E5F3E0EF
:100E6000DC0101900D922A95E1F7CE0102960E94D5
:100E7000A3000000CF59DF4F0FB6F894DEBF0FBEBE
:100E8000CDBFDF91CF910895CF93DF9300D01F9214
:100E9000CDB7DEB789837B836A838EE593E00E94BA
:100EA000A3008981882F90E0880F991F80509F4F61
:100EB000FC01808191810E94A3008A819B81892B02
:100EC00059F08981882F90E0039709F005C08A8145
:100ED0009B810E94A300000080E693E00E94A30093
:100EE00000000F900F900F90DF91CF910895CF9356
:100EF000DF9300D0CDB7DEB79A83898380913B0121
:100F0000882361F084E693E00E94A30089819A819E
:100F10000E94A30086E693E00E94A30000000F90C9
:100F20000F90DF91CF910895CF93DF9300D0CDB78D
:100F3000DEB79A83898380913B01882361F084E640
:100F400093E00E94A30089819A810E94A30088E611
:100F500093E00E94A30000000F900F90DF91CF91CB
:100F60000895CF93DF93CDB7DEB760E070E080E007
:100F70000E94440780E00E94C50180E00E94900129
:100F800080EA9FE00E94FA010000DF91CF9108956E
:100F9000CF93DF93CDB7DEB7C256D1090FB6F89421
:100FA000DEBF0FBECDBF9E012F593F4FF901918388
:100FB0008083CE018F599F4FFC0121812F93FC012B
:100FC00080818F938CE693E0892F8F938CE693E05A
:100FD0008F93CE0101969F938F930E948B100F9059
:100FE0000F900F900F900F900F90CE0101960E94DE
:100FF0009407CE018F599F4FFC01808191819C0104
:10100000ADECBCEC0E942E10969587959695879531
:101010009695879590930D0580930C0581E08093BC
:10102000EA040000CE59DF4F0FB6F894DEBF0FBEC2
:10103000CDBFDF91CF910895CF93DF93CDB7DEB7CA
:10104000C157D1090FB6F894DEBF0FBECDBFCE0198
:1010500082599F4F2BE1FC012083CE0182599F4F83
:101060002BE5FC012183CE0182599F4F21E4FC0135
:101070002283CE0182599F4FFC0113820E942501D9
:101080000E9408010E94EB000E94660180E090E04F
:101090000E947B000E947E0186E290E026E230E022
:1010A000F90120812064FC0120830E94B10778941B
:1010B0008CE291E090930B0580930A0586E893E01B
:1010C0000E949407809108059091090503970CF000
:1010D000FBC280910A0590910B058436910549F178
:1010E0008536910518F4019791F13FC0883C910530
:1010F00091F08C32914009F038C08CE993E00E9465
:10110000940780910A0590910B05019790930B0528
:1011100080930A052AC082EA93E00E949407809196
:101120000A0590910B05019790930B0580930A0592
:101130001CC088EA93E00E94940780910A05909170
:101140000B05019790930B0580930A050EC08EEA5C
:1011500093E00E94940780910A0590910B050197F6
:1011600090930B0580930A0500008091EA0481307A
:1011700031F580910C0590910D05892B01F584EBDB
:1011800093E00E94940780910805909109050196CB
:1011900090930905809308058091080590910905B1
:1011A00003972CF060E070E085E00E94440780E047
:1011B0000E94C50180E00E9490011092EA04809193
:1011C000E704813009F0E5C01A821982BEC0298186
:1011D0003A81C901880F991F820F931F825F9E4F2A
:1011E000FC0180819181BC0185E195E00E947A102B
:1011F000892B09F0A5C029813A81C901880F991F5F
:10120000820F931F805F9E4FFC018081882F90E0AA
:10121000092E000CAA0BBB0B40E050E02DE030E0A3
:10122000841B950B2817390708F486C08A5B9F4FEB
:10123000FC010C94281081E00E94900186EC93E060
:101240000E9494077CC080E00E94900186EE93E0AB
:101250000E94940774C081E00E94C50182EF93E070
:101260000E9494076CC080E00E94C50182E194E076
:101270000E94940764C081E394E00E94A3005FC0D1
:1012800083E494E00E94A3005AC00E94460257C023
:101290000E94E50254C00E949B0351C00E94560662
:1012A0004EC08EE494E00E94770785E195E09C8330
:1012B0008B8305C08B819C8101969C838B838B8162
:1012C0009C81FC0180818823A9F78B819C810196F8
:1012D0009C838B838B819C810E9494078B819C8152
:1012E0000E945C109987888789858F9388858F9362
:1012F0008FE594E0892F8F938FE594E08F93CE0153
:101300000E96292F2F938F930E948B100F900F9082
:101310000F900F900F900F90CE010E960E949407A1
:10132000888599850E94FA010AC088E694E00E94A7
:1013300094070E942A0203C0000016C0000014C0D7
:1013400089819A8101969A83898329813A81C90189
:10135000880F991F820F931F825F9E4FFC0180812F
:101360009181892B09F033CF29813A81C901880FF6
:10137000991F820F931F825F9E4FFC018081918194
:10138000892B29F460E070E084E00E944407109209
:10139000E7040E94AF01813029F00E94E40181300E
:1013A00009F0CAC01F8289E390E0FC018081282FE8
:1013B00030E083E390E0FC018081882F90E08F7023
:1013C0009927982F8827820F931F9B878A8783E30B
:1013D00090E0FC01808182958F70282F30E086E3B9
:1013E00090E0FC018081882F90E082959295907F1B
:1013F0009827807F9827822B932B9D878C871E822E
:101400001D828DC081E090E00D8002C0880F991F81
:101410000A94E2F79C018A859B8582239323892B7A
:1014200099F580910605909107050196909307051F
:1014300080930605809106059091070581319742BA
:1014400018F18D818F5F8F838F81882F90E0292FF6
:101450002F938F9382E894E0892F8F9382E894E012
:101460008F93CE010E96292F2F938F930E948B106E
:101470000F900F900F900F900F900F90CE010E963F
:10148000BC0183E00E94440781E090E00D8002C02F
:10149000880F991F0A94E2F79C018C859D85822311
:1014A0009323892B99F58091060590910705019664
:1014B0009093070580930605809106059091070596
:1014C0008131974218F18D818F5F8F838F81882FB3
:1014D00090E0292F2F938F9387E894E0892F8F93A3
:1014E00087E894E08F93CE010E96292F2F938F9348
:1014F0000E948B100F900F900F900F900F900F90F5
:10150000CE010E96BC0183E00E94440710920705AD
:10151000109206058D819E8101969E838D838D811B
:101520009E810C970CF46ECF8F81882329F080E088
:1015300090E00E94C807C9C00E94AF01813001F548
:101540008091F2049091F304833C9140CCF480911B
:10155000F4049091F504833C914094F48091F60456
:101560009091F704833C91405CF48091F804909151
:10157000F904833C914024F48091FA049091FB0497
:101580000E94E4018130E9F40E94AF018130C9F486
:101590008091EE049091EF0480349F4174F4809127
:1015A0005706909158068D3291403CF08091F2049C
:1015B0009091F3048430914024F08091F204909152
:1015C000F3040E94AF018130B1F58091EE04909157
:1015D000EF04803A9F403CF08091EE049091EF043C
:1015E0008137974144F160E070E086E00E94440753
:1015F0008091EE049091EF04292F2F938F938CE824
:1016000094E0892F8F938CE894E08F93CE010E960F
:10161000292F2F938F930E948B100F900F900F9074
:101620000F900F900F90CE010E960E94940780E0CD
:1016300090E00E94C8078091E9048130B1F41092D3
:10164000E90485E994E00E94A30085E994E00E9402
:10165000A30085E994E00E94A30085E994E00E943C
:10166000A30085E994E00E94A3008091E804813002
:1016700009F028CD80910E0590910F05892B09F076
:1016800021CD82E390E090930F0580930E050E9498
:1016900046020E94E5020E9456060E949B03CE016C
:1016A00082599F4F0E94A300CE0182599F4F0E94F2
:1016B000A300CE0182599F4F0E94A300CE01825900
:1016C0009F4F0E94A300FECC0000FCCC1F920F9203
:1016D00000905F000F9211242F933F934F935F93DD
:1016E0006F937F938F939F93AF93BF93EF93FF93EA
:1016F000CF93DF93CDB7DEB780913C0190913D0150
:10170000019790933D0180933C0180913C01909121
:101710003D01892B41F40E94660184E690E090939C
:101720003D0180933C0180910A0590910B05892B26
:1017300049F080910A0590910B05019790930B0554
:1017400080930A0580910C0590910D05892B49F035
:1017500080910C0590910D05019790930D05809354
:101760000C0580910E0590910F05892B49F0809111
:101770000E0590910F05019790930F0580930E052C
:101780008091100590911105892B49F080911005E9
:101790009091110501979093110580931005809108
:1017A000120590911305892B49F0809112059091B3
:1017B0001305019790931305809312050000DF91A4
:1017C000CF91FF91EF91BF91AF919F918F917F91B9
:1017D0006F915F914F913F912F910F9000925F0019
:1017E0000F901F9018951F920F9200905F000F921C
:1017F00011242F933F934F935F936F937F938F9316
:101800009F93AF93BF93EF93FF93CF93DF9300D05A
:1018100000D0CDB7DEB784E290E0FC018081882F54
:1018200090E0A0E0B0E089839A83AB83BC8385E23B
:1018300090E0FC018081882F90E0982F8827092E66
:10184000000CAA0BBB0B29813A814B815C81822B56
:10185000932BA42BB52B89839A83AB83BC83809174
:10186000ED04882F90E0092E000CAA0BBB0B40E082
:1018700050E027E030E0841B950B2817390708F467
:1018800089C28C5A9F4FFC010C94281029813A81FF
:101890004B815C8184EF91E0DC010E943D10DC0112
:1018A000CB012FEF33E040E050E0BC01CD010E94BE
:1018B0000610DA01C90190935E0680935D0680915F
:1018C0005D0690915E062AE030E0B9010E94F20FB9
:1018D000CB019C014FEC429FC001439F900D11240E
:1018E0009093EF048093EE0480915D0690915E06E4
:1018F000292F2F938F9388E994E0892F8F9388E97C
:1019000094E08F9385E795E0892F8F9385E795E0A5
:101910008F930E948B100F900F900F900F900F904D
:101920000F908091E604882309F438C285E795E09A
:101930000E94770733C229813A814B815C8184EF11
:1019400091E0DC010E943D10DC01CB012FEF33E080
:1019500040E050E0BC01CD010E940610DA01C9014F
:1019600090935C0680935B0680915B0690915C0689
:101970002AE030E0B9010E94F20FCB019C014FEC4C
:10198000429FC001439F900D11249093F1048093D6
:10199000F00480915B0690915C06292F2F938F9322
:1019A00083EA94E0892F8F9383EA94E08F9385E70D
:1019B00095E0892F8F9385E795E08F930E948B1098
:1019C0000F900F900F900F900F900F908091E60462
:1019D000882309F4E5C185E795E00E947707E0C117
:1019E00029813A814B815C8184EF91E0DC010E9486
:1019F0003D10DC01CB012FEF33E040E050E0BC01B3
:101A0000CD010E940610DA01C90190933A06809335
:101A100039068091390690913A068A5F9109909330
:101A2000FB048093FA048091FA049091FB042AE06D
:101A300030E0B9010E94F20FCB019C0142ED429FC0
:101A4000C001439F900D11249093050580930405D8
:101A50008091390690913A06292F2F938F938EEA21
:101A600094E0892F8F938EEA94E08F9385E795E039
:101A7000892F8F9385E795E08F930E948B100F90AD
:101A80000F900F900F900F900F908091E604882395
:101A900009F488C185E795E00E94770783C1298111
:101AA0003A814B815C8184EF91E0DC010E943D1022
:101AB000DC01CB012FEF33E040E050E0BC01CD0171
:101AC0000E940610DA01C9019093640680936306B0
:101AD00080916306909164068A5F91099093F9045E
:101AE0008093F8048091F8049091F9042AE030E0A2
:101AF000B9010E94F20FCB019C0142ED429FC0014F
:101B0000439F900D112490930305809302058091CB
:101B1000630690916406292F2F938F9389EB94E0AD
:101B2000892F8F9389EB94E08F9385E795E0892F38
:101B30008F9385E795E08F930E948B100F900F9005
:101B40000F900F900F900F908091E604882309F476
:101B50002BC185E795E00E94770726C129813A814C
:101B60004B815C8184EF91E0DC010E943D10DC013F
:101B7000CB012FEF33E040E050E0BC01CD010E94EB
:101B80000610DA01C901909356068093550680919C
:101B90005506909156068A5F91099093F7048093B9
:101BA000F6048091F6049091F7042AE030E0B90140
:101BB0000E94F20FCB019C0142ED429FC001439F66
:101BC000900D112490930105809300058091550696
:101BD00090915606292F2F938F9384EC94E0892FB0
:101BE0008F9384EC94E08F9385E795E0892F8F9312
:101BF00085E795E08F930E948B100F900F900F90C8
:101C00000F900F900F908091E604882309F4CEC0C6
:101C100085E795E00E947707C9C029813A814B8109
:101C20005C8184EF91E0DC010E943D10DC01CB017E
:101C30002FEF33E040E050E0BC01CD010E940610E0
:101C4000DA01C90190936206809361068091610672
:101C5000909162068A5F91099093F5048093F40451
:101C60008091F4049091F5042AE030E0B9010E94DB
:101C7000F20FCB019C0142ED429FC001439F900DAA
:101C800011249093FF048093FE048091610690914B
:101C90006206292F2F938F938FEC94E0892F8F93D7
:101CA0008FEC94E08F9385E795E0892F8F9385E7FC
:101CB00095E08F930E948B100F900F900F900F90D4
:101CC0000F900F908091E604882309F471C085E796
:101CD00095E00E9477076CC029813A814B815C8135
:101CE00084EF91E0DC010E943D10DC01CB012FEF7D
:101CF00033E040E050E0BC01CD010E940610DA0163
:101D0000C901909354068093530680915306909195
:101D100054068A5F91099093F3048093F2048091B2
:101D2000F2049091F3042AE030E0B9010E94F20F2E
:101D3000CB019C0142ED429FC001439F900D1124B5
:101D40009093FD048093FC04809153069091540677
:101D5000292F2F938F938AED94E0892F8F938AED0B
:101D600094E08F9385E795E0892F8F9385E795E041
:101D70008F930E948B100F900F900F900F900F90E9
:101D80000F908091E6048823A9F085E795E00E94F2
:101D9000770710C000000FC000000DC000000BC08E
:101DA000000009C0000007C0000005C0000003C01B
:101DB000000001C000008091ED048F5F8093ED046E
:101DC0008091ED04883010F01092ED0487E290E0ED
:101DD00027E230E0F9012081287FFC01208387E29F
:101DE00090E027E230E0F90130812091ED04232BCF
:101DF000FC01208386E290E026E230E0F9012081B8
:101E00002064FC01208300000F900F900F900F9032
:101E1000DF91CF91FF91EF91BF91AF919F918F9102
:101E20007F916F915F914F913F912F910F90009211
:101E30005F000F901F9018951F920F9200905F0007
:101E40000F9211242F933F934F935F936F937F9340
:101E50008F939F93AF93BF93EF93FF93CF93DF93B2
:101E600000D01F92CDB7DEB78CE290E0FC018081FC
:101E70008B838B81882F90E08B31910539F08F37E0
:101E8000910509F45AC00D9721F06CC00E943502EB
:101E900091C08091EB049091EC04892B29F485E9A1
:101EA00094E00E94A30086C08091EB049091EC0422
:101EB0008B529A4FFC0110821A8219821FC08981AD
:101EC0009A818B529A4FFC01208189819A818B5E85
:101ED0009A4FFC01208389819A818B5E9A4FFC0185
:101EE0008081803231F489819A818B5E9A4FFC0126
:101EF000108289819A8101969A83898389819A8146
:101F00008B529A4FFC018081882329F089819A8124
:101F100080369105A0F289819A818B5E9A4FFC01EF
:101F200010821092EC041092EB0485E994E00E9478
:101F3000A30081E08093E7043DC08091EB04909181
:101F4000EC04892B49F08091EB049091EC0401970B
:101F50009093EC048093EB048CE290E02B81FC01E5
:101F6000208328C08091EB049091EC048B529A4F0F
:101F70002B81FC0120838091EB049091EC0401966D
:101F80009093EC048093EB048091EB049091EC042B
:101F90008136910548F08091EB049091EC04019713
:101FA0009093EC048093EB048CE290E02B81FC0195
:101FB0002083000000000F900F900F90DF91CF91D1
:101FC000FF91EF91BF91AF919F918F917F916F9111
:101FD0005F914F913F912F910F9000925F000F9072
:101FE0001F90189597FB072E16F4009407D077FDE5
:101FF00009D00E94481007FC05D03EF490958195C9
:102000009F4F0895709561957F4F0895A1E21A2E14
:10201000AA1BBB1BFD010DC0AA1FBB1FEE1FFF1F8C
:10202000A217B307E407F50720F0A21BB30BE40BDC
:10203000F50B661F771F881F991F1A9469F7609523
:102040007095809590959B01AC01BD01CF010895DD
:10205000EE0FFF1F0590F491E02D0994A29FB001AF
:10206000B39FC001A39F700D811D1124911DB29FCC
:10207000700D811D1124911D08950E942E10A59FA1
:10208000900DB49F900DA49F800D911D1124089573
:10209000AA1BBB1B51E107C0AA1FBB1FA617B7078E
:1020A00010F0A61BB70B881F991F5A95A9F78095AA
:1020B0009095BC01CD010895FC0188279927E894EB
:1020C00021912032E9F3293010F02E30C8F32B3261
:1020D00041F02D3239F4689404C00E948310820FBD
:1020E000911D219120532A30C0F31EF490958195C3
:1020F0009F4F0895FB01DC018D9101908019011023
:10210000D9F3990B08957AE0979F902D879F802DA2
:10211000910D11240895AEE0B0E0E1E9F0E10C94F6
:102120004C130D891E8986E08C831A8309838FEFF7
:102130009FE79E838D83AE01475E5F4F6F89788DE9
:10214000CE0101960E94AD10EF81F885E00FF11FDE
:1021500010822E96E4E00C946813ABE0B0E0E3EB61
:10216000F0E10C943E136C017B018A01FC011782A3
:102170001682838181FFCCC1CE0101963C01F6011C
:102180009381F70193FD859193FF81917F018823CE
:1021900009F4BAC1853239F493FD859193FF819199
:1021A0007F01853229F4B60190E00E94A412E7CFA6
:1021B000912C212C312CFFE1F315D8F08B3279F0E2
:1021C00038F4803279F08332A1F4232D20611DC0D0
:1021D0008D3261F0803369F4232D216016C0832D88
:1021E0008260382EE32DE4603E2E2AC0F32DF86085
:1021F0001DC037FC2DC020ED280F2A3040F08E3254
:10220000B9F436FC81C1232D2064322E19C036FE6C
:1022100006C08AE0989E200D1124922E11C0EAE09B
:102220002E9E200D1124222EF32DF0623F2E08C089
:102230008C3621F4832D8068382E02C0883641F414
:10224000F70193FD859193FF81917F018111B3CFB8
:10225000982F9F7D9554933028F40C5F1F4F9FE378
:1022600099830DC0833631F0833771F0833509F0DF
:1022700059C021C0F801808189830E5F1F4F8824D7
:102280008394912C530113C02801F2E04F0E511C8E
:10229000F801A080B18036FE03C0692D70E002C055
:1022A0006FEF7FEFC5010E9499124C018201F32D5F
:1022B000FF773F2E16C0280122E0420E511CF80184
:1022C000A080B18036FE03C0692D70E002C06FEFC0
:1022D0007FEFC5010E948E124C01F32DF0683F2E56
:1022E000820133FC1BC0822D90E088169906B0F461
:1022F000B60180E290E00E94A4122A94F4CFF50186
:1023000037FC859137FE81915F01B60190E00E9414
:10231000A41221102A9421E0821A910881149104B8
:1023200071F7E8C0843611F0893641F5F80137FEBF
:1023300007C060817181828193810C5F1F4F08C04B
:1023400060817181072E000C880B990B0E5F1F4F67
:10235000F32DFF763F2E97FF09C0909580957095DD
:1023600061957F4F8F4F9F4FF0683F2E2AE030E0FE
:10237000A3010E94E012882E861845C0853731F4EB
:10238000232D2F7EB22E2AE030E025C0932D997F99
:10239000B92E8F36C1F018F4883579F0B5C0803782
:1023A00019F0883721F0B0C0E92FE061BE2EB4FEED
:1023B0000DC0FB2DF460BF2E09C034FE0AC0292FCA
:1023C0002660B22E06C028E030E005C020E130E0F3
:1023D00002C020E132E0F801B7FE07C060817181E0
:1023E000828193810C5F1F4F06C06081718180E004
:1023F00090E00E5F1F4FA3010E94E012882E861806
:10240000FB2DFF773F2E36FE0DC0232D2E7FA22EF3
:10241000891458F434FE0BC032FC09C0832D8E7E23
:10242000A82E05C0B82CA32C03C0B82C01C0B92C11
:10243000A4FE0FC0FE01E80DF11D8081803321F460
:102440009A2D997EA92E09C0A2FE06C0B394B3941A
:1024500004C08A2D867809F0B394A3FC11C0A0FEB5
:1024600006C0B21488F4280C922C9B180EC0B2142B
:1024700060F4B60180E290E00E94A412B394F7CF1A
:10248000B21418F42B1802C0982C212CA4FE10C0F2
:10249000B60180E390E00E94A412A2FE17C0A1FC46
:1024A00003C088E790E002C088E590E0B6010CC068
:1024B0008A2D867859F0A1FE02C08BE201C080E22D
:1024C000A7FC8DE2B60190E00E94A412891438F4B2
:1024D000B60180E390E00E94A4129A94F7CF8A9408
:1024E000F301E80DF11D8081B60190E00E94A41275
:1024F0008110F5CF222009F442CEB60180E290E0AF
:102500000E94A4122A94F6CFF6018681978102C018
:102510008FEF9FEF2B96E2E10C945A13FC0105908C
:10252000615070400110D8F7809590958E0F9F1FD5
:102530000895FC016150704001900110D8F780951A
:1025400090958E0F9F1F08950F931F93CF93DF9346
:10255000FB01238121FD03C08FEF9FEF2CC022FFE1
:1025600016C046815781248135814217530744F4B0
:10257000A081B1819D012F5F3F4F318320838C93D8
:10258000268137812F5F3F4F3783268314C08B010D
:10259000EC01FB010084F185E02D0995892BE1F622
:1025A000D80116968D919C911797019617969C933A
:1025B0008E931697CE01DF91CF911F910F910895C1
:1025C000FA01AA27283051F1203181F1E8946F9364
:1025D0006E7F6E5F7F4F8F4F9F4FAF4FB1E03ED00A
:1025E000B4E03CD0670F781F891F9A1FA11D680FA8
:1025F000791F8A1F911DA11D6A0F711D811D911DDB
:10260000A11D20D009F468943F912AE0269F11244F
:102610003019305D3193DEF6CF010895462F4770B3
:10262000405D4193B3E00FD0C9F7F6CF462F4F700E
:10263000405D4A3318F0495D31FD4052419302D06C
:10264000A9F7EACFB4E0A695979587957795679512
:10265000BA95C9F700976105710508959B01AC0112
:102660000A2E06945795479537952795BA95C9F739
:10267000620F731F841F951FA01D08952F923F9214
:102680004F925F926F927F928F929F92AF92BF9282
:10269000CF92DF92EF92FF920F931F93CF93DF932E
:1026A000CDB7DEB7CA1BDB0B0FB6F894DEBF0FBE8B
:1026B000CDBF09942A88398848885F846E847D84D8
:1026C0008C849B84AA84B984C884DF80EE80FD80DA
:1026D0000C811B81AA81B981CE0FD11D0FB6F89450
:0E26E000DEBF0FBECDBFED010895F894FFCF11
:1026EE003E014C016E019201B601E0010802380272
:1026FE00004102014902025202035A02046202051B
:10270E006F02067802078102088A020993020A9B69
:10271E00020BA4020CAE020D00000E01640030305C
:10272E0020D093D09ED0A2D09ED09200303120D017
:10273E009DD095D098D0A1D09FD0A0D090D092D03F
:10274E009DD0A1D0A2D0AC20D098D0A22100303202
:10275E0020D09DD095D098D0A1D09FD0A0D090D091
:10276E0092D09DD09ED0A1D0A2D0AC20D097D0A395
:10277E002100303320D09DD095D098D0A1D09FD0BD
:10278E00A0D090D092D09DD09ED0A1D0A2D0AC207F
:10279E00D090D0912000303420D09DD095D098D0BC
:1027AE0097D092D095D0A1D0A2D09DD090D0AF206E
:1027BE00D09AD09ED09CD090D09DD094D090210015
:1027CE00303520D0A1D098D0A1D0A2D095D09CD019
:1027DE009020D09DD095D098D0A1D09FD0A0D09051
:1027EE00D092D09DD0902100303620D09DD095D063
:1027FE0098D0A1D09FD0A0D090D092D09DD09ED076
:10280E00A1D0A2D0AC20D09DD090D093D0A0D0A3F8
:10281E00D097D09AD098210073746172742D697418
:10282E000073746F702D69740073746172742D7AF5
:10283E00750073746F702D7A750076657273696F9B
:10284E006E006765742D626F6172642D6964006736
:10285E0065742D62617431006765742D6261743226
:10286E00006765742D756F7374006765742D756FD1
:10287E00736E007365742D757A7400757374697256
:10288E002D6F6E0075737469722D6F6666007374AA
:10289E006172742D646961676E004042415431204B
:1028AE003D20004042415432203D20004049D0B7E7
:1028BE00D0B0D0B13D25642E25642564003B202088
:1028CE00090040496B313D25642E25642564004086
:1028DE00496B323D25642E256425640040496B33D7
:1028EE003D25642E25642564004049D0BDD0B0D06E
:1028FE00B3D1803D25642E25642564004049D18ED8
:10290E00D181D1823D25642E25642564003B202093
:10291E0020200D0A004055D0B0D0B13D25642E25A3
:10292E00642564004055D0BDD0B0D0B3D1803D25D4
:10293E00642E25642564003B2020200D0A00220011
:10294E00220D0A005B005D005D0D0A004661696C98
:10295E00757265207374617274656420666F72207F
:10296E002564206D73005374617274203320736577
:10297E00636F6E647320636F756E740033207365BE
:10298E00630032207365630031207365630030206D
:10299E00736563004661696C7572652066696E6960
:1029AE00736865642000434D445F53544152545F35
:1029BE00495420D0B2D18BD0BFD0BED0BBD0BDD069
:1029CE00B5D0BDD0BE00434D445F53544F505F4908
:1029DE005400434D445F53544152545F5A5520D0D6
:1029EE00B2D18BD0BFD0BED0BBD0BDD0B5D0BDD0B4
:1029FE00BE00434D445F53544F505F5A5520D0B2E2
:102A0E00D18BD0BFD0BED0BBD0BDD0B5D0BDD0BE87
:102A1E0000405645523D323031392E30332E32364B
:102A2E000D0A004049443D303030310D0A005365E7
:102A3E007474696E6720557A7420746F3A2000762C
:102A4E00616C75653D2564005374617274696E67BF
:102A5E0020646961676E6F73746963206D6F64655E
:102A6E002100313A256400323A2564005561622016
:102A7E003D202564000D0A00556F736E313D2564AF
:102A8E000D0A00556F736E323D25640D0A00556FA9
:102A9E007374353D25640D0A00556F7374343D25EE
:102AAE00640D0A00556F7374333D25640D0A00558D
:102ABE006F7374323D25640D0A00556F7374313D8A
:062ACE0025640D0A000062
:00000001FF
