:100000000C944D000C946A000C946A000C946A00E5
:100010000C946A000C946A000C946A000C946A00B8
:100020000C946A000C946A000C946A000C946A00A8
:100030000C9454010C946A000C946A000C946A00AD
:100040000C946A000C946A000C94CB030C946A0024
:100050000C946A000C9489010C946A000C946A0058
:100060000C946A000C946A000C946A000C946A0068
:100070000C946A000C946A000C946A000C946A0058
:100080000C946A000C946A000C946A00B801FF0199
:1000900046028D02D4021B03620311241FBECFEF60
:1000A000D0E1DEBFCDBF13E0A0E0B1E0E0ECFEE0C8
:1000B00002C005900D92A234B107D9F724E0A2E462
:1000C000B3E001C01D92A234B207E1F70E94B6006E
:1000D0000C945E070C9400001ABA14BA17BA109266
:1000E000610088E1809364008AEE82B90895E5E6B4
:1000F000F0E0908180E18927808308951BB828E98A
:100100002AB926E0209395009093900089B908952C
:10011000FC011092420390819923A1F05D9BFECFD8
:100120009CB990914203DF01A90FB11D8C918A30D7
:1001300049F09F5F90934203DF01A90FB11D9C918D
:100140009111ECCF089580E487B98FEC86B90895BA
:1001500093B19F7D811101C0906293B9089593B1CD
:100160009F77811101C0906893B908950E946C0037
:100170000E94770080E090E00E947E000E94A30031
:10018000369A8BE391E00E9488008DE491E00E9412
:1001900088008FE691E00E94880080E891E00E944C
:1001A00088008FE891E00E94880078940F2EF2E09A
:1001B000EF2EF1E0FF2EF02D809146038130E1F724
:1001C00084EE91E00E94880087E991E00E94880017
:1001D00088E493E00E94880084EE91E00E94880009
:1001E000F701608171816115710509F456C0C5E0A0
:1001F000D1E000E010E088E493E00E946B04892BDA
:10020000A1F583EA91E00E948800F801EE0FFF1F3C
:10021000E00FF11FEE5FFE4F8281813071F028F018
:10022000823099F08330C9F02CC081E00E94A80090
:1002300084EB91E00E94880024C080E00E94A80026
:100240008EEC91E00E9488001CC081E00E94AF000B
:1002500087EE91E00E94880014C080E00E94AF0009
:1002600080E092E00E9488000CC00F5F1F4F239631
:10027000FE013397608171816115710509F0BBCF73
:100280000CC0F801EE0FFF1F0E0F1F1FF801EE5FED
:10029000FE4F80819181892B21F488E192E00E94B8
:1002A00088001092460388CF1F920F920FB60F92CC
:1002B00011242F933F934F935F936F937F938F936B
:1002C0009F93AF93BF93EF93FF9380910001909121
:1002D000010101979093010180930001892B41F462
:1002E0000E94770084EF91E09093010180930001D8
:1002F000FF91EF91BF91AF919F918F917F916F91FE
:100300005F914F913F912F910F900FBE0F901F90D3
:1003100018951F920F920FB60F9211242F933F93AF
:100320004F935F936F937F938F939F93AF93BF93FD
:10033000EF93FF9384B190E0909331048093300465
:1003400025B18091300490913104922B9093310427
:1003500080933004E09143038E2F90E0FC013197AD
:10036000E730F10508F0F3C1EA5BFF4F0C94560447
:1003700080913004909131049C01220F331F220F91
:10038000331F280F391F329522952F7023273F7076
:100390002327AAE6B3E00E945C04A0E0B0E08093CB
:1003A000360490933704A0933804B09339048091B5
:1003B000360490913704A0913804B0913904BF936A
:1003C000AF939F938F9385E292E09F938F9388E8FA
:1003D00093E09F938F930E9474048DB79EB7089605
:1003E0000FB6F8949EBF0FBE8DBF80914703882340
:1003F00009F4ADC188E893E00E948800A8C180910B
:100400003004909131049C01220F331F220F331FBF
:10041000280F391F329522952F7023273F702327ED
:10042000AAE6B3E00E945C04A0E0B0E08093280458
:1004300090932904A0932A04B0932B04809128045C
:1004400090912904A0912A04B0912B04BF93AF93FB
:100450009F938F9381E392E09F938F9388E893E03B
:100460009F938F930E9474048DB79EB708960FB622
:10047000F8949EBF0FBE8DBF80914703882309F477
:1004800066C188E893E00E94880061C180913004D1
:10049000909131049C01220F331F220F331F280F2C
:1004A000391F329522952F7023273F702327AAE604
:1004B000B3E00E945C04A0E0B0E08093320490932B
:1004C0003304A0933404B0933504809132049091A6
:1004D0003304A0913404B0913504BF93AF939F933C
:1004E0008F938DE392E09F938F9388E893E09F939F
:1004F0008F930E9474048DB79EB708960FB6F89438
:100500009EBF0FBE8DBF80914703882309F41FC192
:1005100088E893E00E9488001AC18091300490918D
:1005200031049C01220F331F220F331F280F391F64
:10053000329522952F7023273F702327AAE6B3E038
:100540000E945C04A0E0B0E080930C0490930D0442
:10055000A0930E04B0930F0480910C0490910D04AD
:10056000A0910E04B0910F04BF93AF939F938F930C
:1005700089E492E09F938F9388E893E09F938F9311
:100580000E9474048DB79EB708960FB6F8949EBF6C
:100590000FBE8DBF80914703882309F4D8C088E837
:1005A00093E00E948800D3C0809130049091310480
:1005B0009C01220F331F220F331F280F391F329542
:1005C00022952F7023273F702327AAE6B3E00E94CD
:1005D0005C04A0E0B0E080933E0490933F04A093BD
:1005E0004004B093410480913E0490913F04A09157
:1005F0004004B0914104BF93AF939F938F9385E5DF
:1006000092E09F938F9388E893E09F938F930E944B
:1006100074048DB79EB708960FB6F8949EBF0FBEB0
:100620008DBF80914703882309F491C088E893E047
:100630000E9488008CC080913004909131049C010C
:10064000220F331F220F331F280F391F3295229597
:100650002F7023273F702327AAE6B3E00E945C0493
:10066000A0E0B0E080932C0490932D04A0932E047E
:10067000B0932F0480912C0490912D04A0912E040E
:10068000B0912F04BF93AF939F938F9381E692E035
:100690009F938F9388E893E09F938F930E947404B5
:1006A0008DB79EB708960FB6F8949EBF0FBE8DBF4C
:1006B00080914703882309F44AC088E893E00E94A8
:1006C000880045C080913004909131049C01220F34
:1006D000331F220F331F280F391F329522952F7099
:1006E00023273F702327AAE6B3E00E945C04A0E022
:1006F000B0E080933A0490933B04A0933C04B09301
:100700003D0480913A0490913B04A0913C04B09147
:100710003D04BF93AF939F938F938DE692E09F9399
:100720008F9388E893E09F938F930E9474048DB712
:100730009EB708960FB6F8949EBF0FBE8DBF8091EE
:100740004703882321F088E893E00E948800809185
:1007500043038F5F883018F48093430302C01092E4
:10076000430387B1887F87B997B180914303892B71
:1007700087B9369AFF91EF91BF91AF919F918F9179
:100780007F916F915F914F913F912F910F900FBE8D
:100790000F901F9018951F920F920FB60F92112471
:1007A0002F933F934F935F936F937F938F939F9379
:1007B000AF93BF93EF93FF938CB18B3139F08F37A9
:1007C00009F446C08D3009F051C00BC08091470339
:1007D000813019F41092470358C081E08093470399
:1007E00054C08091440390914503009729F489E710
:1007F00092E00E94880049C0FC01E853FC4F10823F
:100800008091C803882391F0A9ECB3E0E8E4F3E019
:1008100020E030E0803211F0808301C010822F5F31
:100820003F4F8D9131968111F5CF02C020E030E02D
:10083000F901E85BFC4F10821092450310924403CB
:1008400084EE91E00E94880081E0809346031DC001
:100850008091440390914503009729F0019790936C
:100860004503809344038FE78CB90FC02091440364
:1008700030914503F901E853FC4F80832F5F3F4FD0
:1008800030934503209344038CB9FF91EF91BF91BE
:10089000AF919F918F917F916F915F914F913F9118
:1008A0002F910F900FBE0F901F901895EE0FFF1F06
:1008B0000590F491E02D0994A29FB001B39FC0016F
:1008C000A39F700D811D1124911DB29F700D811D7C
:1008D0001124911D0895FB01DC018D910190801977
:1008E0000110D9F3990B0895AEE0B0E0EAE7F4E027
:1008F0000C9435070D891E8986E08C831A83098341
:100900008FEF9FE79E838D83AE01475E5F4F6F89B8
:10091000788DCE0101960E949604EF81F885E00F54
:10092000F11F10822E96E4E00C945107ABE0B0E08A
:10093000ECE9F4E00C9427076C017B018A01FC01CF
:1009400017821682838181FFCCC1CE0101963C01C2
:10095000F6019381F70193FD859193FF81917F01CA
:10096000882309F4BAC1853239F493FD859193FF48
:1009700081917F01853229F4B60190E00E948D06B5
:10098000E7CF912C212C312CFFE1F315D8F08B32DD
:1009900079F038F4803279F08332A1F4232D20618C
:1009A0001DC08D3261F0803369F4232D216016C0A3
:1009B000832D8260382EE32DE4603E2E2AC0F32D75
:1009C000F8601DC037FC2DC020ED280F2A3040F004
:1009D0008E32B9F436FC81C1232D2064322E19C029
:1009E00036FE06C08AE0989E200D1124922E11C07A
:1009F000EAE02E9E200D1124222EF32DF0623F2ED0
:100A000008C08C3621F4832D8068382E02C08836C9
:100A100041F4F70193FD859193FF81917F0181114D
:100A2000B3CF982F9F7D9554933028F40C5F1F4FC0
:100A30009FE399830DC0833631F0833771F083359E
:100A400009F059C021C0F801808189830E5F1F4FD2
:100A500088248394912C530113C02801F2E04F0E97
:100A6000511CF801A080B18036FE03C0692D70E0F2
:100A700002C06FEF7FEFC5010E9482064C01820128
:100A8000F32DFF773F2E16C0280122E0420E511CA5
:100A9000F801A080B18036FE03C0692D70E002C06D
:100AA0006FEF7FEFC5010E9477064C01F32DF068D0
:100AB0003F2E820133FC1BC0822D90E088169906E0
:100AC000B0F4B60180E290E00E948D062A94F4CF43
:100AD000F50137FC859137FE81915F01B60190E009
:100AE0000E948D0621102A9421E0821A9108811417
:100AF000910471F7E8C0843611F0893641F5F801A8
:100B000037FE07C060817181828193810C5F1F4F26
:100B100008C060817181072E000C880B990B0E5F55
:100B20001F4FF32DFF763F2E97FF09C090958095BC
:100B3000709561957F4F8F4F9F4FF0683F2E2AE051
:100B400030E0A3010E94C906882E861845C085376B
:100B500031F4232D2F7EB22E2AE030E025C0932DD4
:100B6000997FB92E8F36C1F018F4883579F0B5C069
:100B7000803719F0883721F0B0C0E92FE061BE2E30
:100B8000B4FE0DC0FB2DF460BF2E09C034FE0AC0B8
:100B9000292F2660B22E06C028E030E005C020E1F3
:100BA00030E002C020E132E0F801B7FE07C060810A
:100BB0007181828193810C5F1F4F06C060817181BA
:100BC00080E090E00E5F1F4FA3010E94C906882EAF
:100BD0008618FB2DFF773F2E36FE0DC0232D2E7F6E
:100BE000A22E891458F434FE0BC032FC09C0832DA8
:100BF0008E7EA82E05C0B82CA32C03C0B82C01C033
:100C0000B92CA4FE0FC0FE01E80DF11D80818033D8
:100C100021F49A2D997EA92E09C0A2FE06C0B39494
:100C2000B39404C08A2D867809F0B394A3FC11C054
:100C3000A0FE06C0B21488F4280C922C9B180EC09B
:100C4000B21460F4B60180E290E00E948D06B39485
:100C5000F7CFB21418F42B1802C0982C212CA4FE44
:100C600010C0B60180E390E00E948D06A2FE17C07E
:100C7000A1FC03C088E790E002C088E590E0B601DF
:100C80000CC08A2D867859F0A1FE02C08BE201C00B
:100C900080E2A7FC8DE2B60190E00E948D068914E7
:100CA00038F4B60180E390E00E948D069A94F7CF65
:100CB0008A94F301E80DF11D8081B60190E00E9455
:100CC0008D068110F5CF222009F442CEB60180E2D4
:100CD00090E00E948D062A94F6CFF60186819781D6
:100CE00002C08FEF9FEF2B96E2E10C944307FC01CB
:100CF0000590615070400110D8F7809590958E0F47
:100D00009F1F0895FC016150704001900110D8F7B9
:100D1000809590958E0F9F1F08950F931F93CF93EB
:100D2000DF93FB01238121FD03C08FEF9FEF2CC0D8
:100D300022FF16C04681578124813581421753070F
:100D400044F4A081B1819D012F5F3F4F3183208307
:100D50008C93268137812F5F3F4F3783268314C0C2
:100D60008B01EC01FB010084F185E02D0995892BB5
:100D7000E1F6D80116968D919C91179701961796DA
:100D80009C938E931697CE01DF91CF911F910F9177
:100D90000895FA01AA27283051F1203181F1E89411
:100DA0006F936E7F6E5F7F4F8F4F9F4FAF4FB1E05E
:100DB0003ED0B4E03CD0670F781F891F9A1FA11D59
:100DC000680F791F8A1F911DA11D6A0F711D811D5A
:100DD000911DA11D20D009F468943F912AE0269F1F
:100DE00011243019305D3193DEF6CF010895462F7E
:100DF0004770405D4193B3E00FD0C9F7F6CF462F5F
:100E00004F70405D4A3318F0495D31FD40524193C7
:100E100002D0A9F7EACFB4E0A69597958795779584
:100E20006795BA95C9F700976105710508959B010B
:100E3000AC010A2E06945795479537952795BA9594
:100E4000C9F7620F731F841F951FA01D08952F926D
:100E50003F924F925F926F927F928F929F92AF924A
:100E6000BF92CF92DF92EF92FF920F931F93CF9397
:100E7000DF93CDB7DEB7CA1BDB0B0FB6F894DEBF2E
:100E80000FBECDBF09942A88398848885F846E8454
:100E90007D848C849B84AA84B984C884DF80EE809E
:100EA000FD800C811B81AA81B981CE0FD11D0FB6A7
:100EB000F894DEBF0FBECDBFED010895F894FFCFCB
:100EC000F4018E0200980201A10202AA0203B202FA
:100ED00004BA0205C70206D70207E20208ED0209BA
:100EE000F9020A02030B0B030C15030D1E030E2758
:100EF000030F2F0310380311000012476976652095
:100F00006D6520626174746572790D0A00506F77A7
:100F1000657220737570706C7920436F6E74726F98
:100F20006C6C65722076657220302E310D0A0028B7
:100F30006329204E4E54552C20323031380D0A0092
:100F40004563686F206D6F6465204F4E0D0A005237
:100F5000656164790D0A00536561726368696E6743
:100F60003A2000436F6D6D616E6420666F756E642C
:100F7000210D0A00434D445F53544152545F505772
:100F80004D2066696E6973686564210D0A00434DE2
:100F9000445F53544F505F50574D2066696E6973DC
:100FA000686564210D0A00434D445F535441525417
:100FB0005F5A552066696E6973686564210D0A0081
:100FC000434D445F53544F505F5A552066696E69D4
:100FD00073686564210D0A004E6F7420666F756E2C
:100FE00064210D0A00556F736E313D256C640D0A46
:100FF00000556F7374313D256C640D0A00556F7395
:101000006E323D256C640D0A00556F7374353D25B5
:101010006C640D0A00556F7374343D256C640D0AC1
:1010200000556F7374333D256C640D0A00556F7362
:1010300074323D256C640D0A004E6F20436F6D6D58
:10104000616E6420656E74657265640D0A00737468
:101050006172742D70776D0073746F702D70776D81
:101060000073746172742D7A750073746F702D7AC9
:10107000750076657273696F6E006765742D626FB7
:101080006172642D6964007365742D757064617498
:10109000652D74696D650073746172742D6261747D
:1010A000310073746172742D626174320073746103
:1010B00072742D6261743132006765742D626174DF
:1010C00031006765742D62617432006765742D624A
:1010D00061743132006765742D756F7374006765D4
:1010E000742D756F736E007365742D757A74007549
:1010F000737469722D6F6E0075737469722D6F66EB
:02110000660087
:00000001FF
