:100000000C945D000C947A000C947A000C947A00A5
:100010000C947A000C947A000C947A000C947A0078
:100020000C947A000C947A000C947A000C947A0068
:100030000C94CC010C947A000C947A000C947A0005
:100040000C947A000C947A000C9443040C947A007B
:100050000C947A000C9401020C947A000C947A00AF
:100060000C947A000C947A000C947A000C947A0028
:100070000C947A000C947A000C947A000C947A0018
:100080000C947A000C947A000C947A004B01530182
:100090005B0163016B017001BA01BA01BA01BA01D7
:1000A000BA01BA01BA01BA01BA0175013002770288
:1000B000BE0205034C039303DA0311241FBECFEFE6
:1000C000D0E1DEBFCDBF13E0A0E0B1E0ECEFFFE098
:1000D00002C005900D92AC38B107D9F724E0ACE826
:1000E000B3E001C01D92AC38B207E1F70E94D50021
:1000F0000C94FC070C94000081E880938B0089E04D
:1001000080938A0010928C008FE790E09093870094
:100110008093860008951ABA14BA17BA1092610033
:1001200088E1809364008AEE82B90895E5E6F0E004
:10013000908180E18927808308951BB828E92AB936
:1001400026E0209395009093900089B90895FC01D2
:1001500010928C0390819923A1F05D9BFECF9CB9F6
:1001600090918C03DF01A90FB11D8C918A3049F069
:100170009F5F90938C03DF01A90FB11D9C9191119A
:10018000ECCF089580E487B98FEC86B9089593B1D8
:100190009F7D813009F4906293B9089593B19F7760
:1001A000813009F4906893B908950E948B000E94F1
:1001B0007C000E94960080E090E00E949D000E94DA
:1001C000C200369A8BE391E00E94A7008DE491E093
:1001D0000E94A7008FE691E00E94A70080E891E0CE
:1001E0000E94A7008FE891E00E94A70078940F2E4C
:1001F000F2E0EF2EF1E0FF2EF02D0F2EF9E5AF2EFD
:10020000F2E0BF2EF02D0F2EF2EDCF2EF3E0DF2E19
:10021000F02D0F2EF6E88F2E912CF02D809190036B
:100220008130E1F784EE91E00E94A70087E991E038
:100230000E94A70082E993E00E94A70084EE91E06B
:100240000E94A700F701608171816115710509F4B1
:100250009CC005E011E0C0E0D0E082E993E00E949C
:100260000105892B09F07AC083EA91E00E94A7007A
:10027000FE01EE0FFF1FEC0FFD1FEE5FFE4FE28150
:100280008E2F90E08031910508F074C0FC01EA5B8C
:10029000FF4F0C94CE0481E00E94C70084EB91E0F4
:1002A0000E94A70067C080E00E94C7008EEC91E02A
:1002B0000E94A7005FC081E00E94CE0087EE91E01F
:1002C0000E94A70057C080E00E94CE0080E092E02C
:1002D0000E94A7004FC088E192E00E94A7004AC098
:1002E00087E392E00E94A70045C088E492E00E9464
:1002F000A70080919203882341F083E993E0FC01F9
:10030000019620812111FBCF02C0E2E9F3E08F01C9
:100310000F5F1F4FC8010E94A70084EE91E00E946A
:10032000A700C8010E94E3048C011F938F93BF9222
:10033000AF92DF92CF920E941205C6010E94A700E1
:1003400084EE91E00E94A700F401118300830F90D6
:100350000F900F900F900F900F900CC021960D5F93
:100360001F4FF8013397608171816115710509F0A4
:1003700074CF0BC0CE01880F991FC80FD91FCE5F55
:10038000DE4F88819981892B21F482E692E00E94D8
:10039000A7001092900342CF1F920F920FB60F92B8
:1003A00011242F933F934F935F936F937F938F937A
:1003B0009F93AF93BF93EF93FF9380910001909130
:1003C000010101979093010180930001892B41F471
:1003D0000E94960084EF91E09093010180930001C8
:1003E000FF91EF91BF91AF919F918F917F916F910D
:1003F0005F914F913F912F910F900FBE0F901F90E3
:1004000018951F920F920FB60F9211242F933F93BE
:100410004F935F936F937F938F939F93AF93BF930C
:10042000EF93FF9384B190E090937B0480937A04E0
:1004300025B180917A0490917B04922B90937B0458
:1004400080937A04E0918D038E2F90E0FC01319728
:10045000E730F10508F0F3C1EA5AFF4F0C94CE04DF
:1004600080917A0490917B049C01220F331F220F0C
:10047000331F280F391F329522952F7023273F7085
:100480002327AAE6B3E00E94D404A0E0B0E0809362
:10049000800490938104A0938204B093830480919C
:1004A000800490918104A0918204B0918304BF9351
:1004B000AF939F938F938FE692E09F938F9382EDFC
:1004C00093E09F938F930E9412058DB79EB7089675
:1004D0000FB6F8949EBF0FBE8DBF80919103882305
:1004E00009F4ADC182ED93E00E94A700A8C18091FC
:1004F0007A0490917B049C01220F331F220F331F3B
:10050000280F391F329522952F7023273F702327FC
:10051000AAE6B3E00E94D404A0E0B0E080937204A5
:1005200090937304A0937404B09375048091720443
:1005300090917304A0917404B0917504BF93AF932C
:100540009F938F938BE792E09F938F9382ED93E03D
:100550009F938F930E9412058DB79EB708960FB692
:10056000F8949EBF0FBE8DBF80919103882309F43C
:1005700066C182ED93E00E94A70061C180917A0478
:1005800090917B049C01220F331F220F331F280FF1
:10059000391F329522952F7023273F702327AAE613
:1005A000B3E00E94D404A0E0B0E080937C04909378
:1005B0007D04A0937E04B0937F0480917C0490918D
:1005C0007D04A0917E04B0917F04BF93AF939F936D
:1005D0008F9387E892E09F938F9382ED93E09F93B0
:1005E0008F930E9412058DB79EB708960FB6F894A8
:1005F0009EBF0FBE8DBF80919103882309F41FC158
:1006000082ED93E00E94A7001AC180917A04909134
:100610007B049C01220F331F220F331F280F391F29
:10062000329522952F7023273F702327AAE6B3E047
:100630000E94D404A0E0B0E0809356049093570445
:10064000A0935804B0935904809156049091570494
:10065000A0915804B0915904BF93AF939F938F9387
:1006600083E992E09F938F9382ED93E09F938F9322
:100670000E9412058DB79EB708960FB6F8949EBFDC
:100680000FBE8DBF80919103882309F4D8C082EDFD
:1006900093E00E94A700D3C080917A0490917B04DC
:1006A0009C01220F331F220F331F280F391F329551
:1006B00022952F7023273F702327AAE6B3E00E94DC
:1006C000D404A0E0B0E08093880490938904A093C0
:1006D0008A04B0938B048091880490918904A0913E
:1006E0008A04B0918B04BF93AF939F938F938FE94C
:1006F00092E09F938F9382ED93E09F938F930E945C
:1007000012058DB79EB708960FB6F8949EBF0FBE20
:100710008DBF80919103882309F491C082ED93E00D
:100720000E94A7008CC080917A0490917B049C0168
:10073000220F331F220F331F280F391F32952295A6
:100740002F7023273F702327AAE6B3E00E94D4042A
:10075000A0E0B0E08093760490937704A0937804AF
:10076000B09379048091760490917704A0917804F5
:10077000B0917904BF93AF939F938F938BEA92E0EC
:100780009F938F9382ED93E09F938F930E94120526
:100790008DB79EB708960FB6F8949EBF0FBE8DBF5B
:1007A00080919103882309F44AC082ED93E00E946E
:1007B000A70045C080917A0490917B049C01220F90
:1007C000331F220F331F280F391F329522952F70A8
:1007D00023273F702327AAE6B3E00E94D404A0E0B9
:1007E000B0E08093840490938504A0938604B09332
:1007F00087048091840490918504A0918604B0912F
:100800008704BF93AF939F938F9387EB92E09F935F
:100810008F9382ED93E09F938F930E9412058DB783
:100820009EB708960FB6F8949EBF0FBE8DBF8091FD
:100830009103882321F082ED93E00E94A70080912C
:100840008D038F5F883018F480938D0302C010925F
:100850008D0387B1887F87B997B180918D03892BEC
:1008600087B9369AFF91EF91BF91AF919F918F9188
:100870007F916F915F914F913F912F910F900FBE9C
:100880000F901F9018951F920F920FB60F92112480
:100890002F933F934F935F936F937F938F939F9388
:1008A000AF93BF93EF93FF938CB18B3139F08F37B8
:1008B00009F446C08D3009F051C00BC080919103FE
:1008C000813019F41092910358C081E08093910314
:1008D00054C080918E0390918F03009729F483EC8C
:1008E00092E00E94A70049C0FC01EE5EFB4F10821F
:1008F00080911204882391F0A3E1B4E0E2E9F3E0EF
:1009000020E030E0803211F0808301C010822F5F40
:100910003F4F8D9131968111F5CF02C020E030E03C
:10092000F901EE56FC4F108210928F0310928E0345
:1009300084EE91E00E94A70081E0809390031DC0A7
:1009400080918E0390918F03009729F001979093E7
:100950008F0380938E038FE78CB90FC020918E0395
:1009600030918F03F901EE5EFB4F80832F5F3F4F85
:1009700030938F0320938E038CB9FF91EF91BF9139
:10098000AF919F918F917F916F915F914F913F9127
:100990002F910F900FBE0F901F901895EE0FFF1F15
:1009A0000590F491E02D0994A29FB001B39FC0017E
:1009B000A39F700D811D1124911DB29F700D811D8B
:1009C0001124911D0895FC0188279927E89421910D
:1009D0002032E9F3293010F02E30C8F32B3241F0E9
:1009E0002D3239F4689404C00E940A05820F911DCB
:1009F000219120532A30C0F31EF4909581959F4F8A
:100A00000895FB01DC018D91019080190110D9F34B
:100A1000990B08957AE0979F902D879F802D910DD7
:100A200011240895AEE0B0E0E8E1F5E00C94D307BE
:100A30000D891E8986E08C831A8309838FEF9FE7D7
:100A40009E838D83AE01475E5F4F6F89788DCE01A7
:100A500001960E943405EF81F885E00FF11F1082A6
:100A60002E96E4E00C94EF07ABE0B0E0EAE3F5E0AB
:100A70000C94C5076C017B018A01FC011782168268
:100A8000838181FFCCC1CE0101963C01F6019381A7
:100A9000F70193FD859193FF81917F01882309F4EC
:100AA000BAC1853239F493FD859193FF81917F011D
:100AB000853229F4B60190E00E942B07E7CF912CF4
:100AC000212C312CFFE1F315D8F08B3279F038F47A
:100AD000803279F08332A1F4232D20611DC08D3244
:100AE00061F0803369F4232D216016C0832D82606C
:100AF000382EE32DE4603E2E2AC0F32DF8601DC091
:100B000037FC2DC020ED280F2A3040F08E32B9F48A
:100B100036FC81C1232D2064322E19C036FE06C05A
:100B20008AE0989E200D1124922E11C0EAE02E9E9C
:100B3000200D1124222EF32DF0623F2E08C08C369A
:100B400021F4832D8068382E02C0883641F4F701E5
:100B500093FD859193FF81917F018111B3CF982FF0
:100B60009F7D9554933028F40C5F1F4F9FE399832A
:100B70000DC0833631F0833771F0833509F059C0E9
:100B800021C0F801808189830E5F1F4F88248394E0
:100B9000912C530113C02801F2E04F0E511CF801B3
:100BA000A080B18036FE03C0692D70E002C06FEFF7
:100BB0007FEFC5010E9420074C018201F32DFF77D2
:100BC0003F2E16C0280122E0420E511CF801A080E1
:100BD000B18036FE03C0692D70E002C06FEF7FEF79
:100BE000C5010E9415074C01F32DF0683F2E8201CC
:100BF00033FC1BC0822D90E088169906B0F4B60134
:100C000080E290E00E942B072A94F4CFF50137FC94
:100C1000859137FE81915F01B60190E00E942B071C
:100C200021102A9421E0821A91088114910471F70D
:100C3000E8C0843611F0893641F5F80137FE07C067
:100C400060817181828193810C5F1F4F08C0608138
:100C50007181072E000C880B990B0E5F1F4FF32D2F
:100C6000FF763F2E97FF09C090958095709561950E
:100C70007F4F8F4F9F4FF0683F2E2AE030E0A30157
:100C80000E946707882E861845C0853731F4232DCA
:100C90002F7EB22E2AE030E025C0932D997FB92E09
:100CA0008F36C1F018F4883579F0B5C0803719F067
:100CB000883721F0B0C0E92FE061BE2EB4FE0DC030
:100CC000FB2DF460BF2E09C034FE0AC0292F266018
:100CD000B22E06C028E030E005C020E130E002C0BE
:100CE00020E132E0F801B7FE07C0608171818281A6
:100CF00093810C5F1F4F06C06081718180E090E09E
:100D00000E5F1F4FA3010E946707882E8618FB2DD8
:100D1000FF773F2E36FE0DC0232D2E7FA22E891485
:100D200058F434FE0BC032FC09C0832D8E7EA82EF1
:100D300005C0B82CA32C03C0B82C01C0B92CA4FE4C
:100D40000FC0FE01E80DF11D8081803321F49A2D42
:100D5000997EA92E09C0A2FE06C0B394B39404C024
:100D60008A2D867809F0B394A3FC11C0A0FE06C0BA
:100D7000B21488F4280C922C9B180EC0B21460F4A4
:100D8000B60180E290E00E942B07B394F7CFB21433
:100D900018F42B1802C0982C212CA4FE10C0B60108
:100DA00080E390E00E942B07A2FE17C0A1FC03C0C5
:100DB00088E790E002C088E590E0B6010CC08A2D7B
:100DC000867859F0A1FE02C08BE201C080E2A7FC48
:100DD0008DE2B60190E00E942B07891438F4B60129
:100DE00080E390E00E942B079A94F7CF8A94F30156
:100DF000E80DF11D8081B60190E00E942B07811063
:100E0000F5CF222009F442CEB60180E290E00E94A4
:100E10002B072A94F6CFF6018681978102C08FEFC7
:100E20009FEF2B96E2E10C94E107FC0105906150E5
:100E300070400110D8F7809590958E0F9F1F0895F0
:100E4000FC016150704001900110D8F78095909599
:100E50008E0F9F1F08950F931F93CF93DF93FB0176
:100E6000238121FD03C08FEF9FEF2CC022FF16C00E
:100E700046815781248135814217530744F4A0816C
:100E8000B1819D012F5F3F4F318320838C93268159
:100E900037812F5F3F4F3783268314C08B01EC01CE
:100EA000FB010084F185E02D0995892BE1F6D8013D
:100EB00016968D919C911797019617969C938E93F9
:100EC0001697CE01DF91CF911F910F910895FA01EE
:100ED000AA27283051F1203181F1E8946F936E7F79
:100EE0006E5F7F4F8F4F9F4FAF4FB1E03ED0B4E06A
:100EF0003CD0670F781F891F9A1FA11D680F791FAB
:100F00008A1F911DA11D6A0F711D811D911DA11DBB
:100F100020D009F468943F912AE0269F11243019CB
:100F2000305D3193DEF6CF010895462F4770405D66
:100F30004193B3E00FD0C9F7F6CF462F4F70405D15
:100F40004A3318F0495D31FD4052419302D0A9F770
:100F5000EACFB4E0A6959795879577956795BA956A
:100F6000C9F700976105710508959B01AC010A2E30
:100F700006945795479537952795BA95C9F7620F07
:100F8000731F841F951FA01D08952F923F924F92AB
:100F90005F926F927F928F929F92AF92BF92CF9209
:100FA000DF92EF92FF920F931F93CF93DF93CDB712
:100FB000DEB7CA1BDB0B0FB6F894DEBF0FBECDBF8A
:100FC00009942A88398848885F846E847D848C845B
:100FD0009B84AA84B984C884DF80EE80FD800C8164
:100FE0001B81AA81B981CE0FD11D0FB6F894DEBF47
:0C0FF0000FBECDBFED010895F894FFCFB7
:100FFC00F401D80200E20201EB0202F40203FC024B
:10100C00040403051103062103072C030837030905
:10101C0043030A4C030B55030C5F030D68030E715D
:10102C00030F7903108203110000124769766520C3
:10103C006D6520626174746572790D0A00506F776A
:10104C00657220737570706C7920436F6E74726F5B
:10105C006C6C65722076657220302E310D0A00287A
:10106C006329204E4E54552C20323031380D0A0055
:10107C004563686F206D6F6465204F4E0D0A0052FA
:10108C00656164790D0A00536561726368696E6706
:10109C003A2000436F6D6D616E6420666F756E64EF
:1010AC00210D0A00434D445F53544152545F505735
:1010BC004D2066696E6973686564210D0A00434DA5
:1010CC00445F53544F505F50574D2066696E69739F
:1010DC00686564210D0A00434D445F5354415254DA
:1010EC005F5A552066696E6973686564210D0A0044
:1010FC00434D445F53544F505F5A552066696E6997
:10110C0073686564210D0A004669726D77617265BA
:10111C002076657273696F6E3A20323031392E3019
:10112C00332E32360D0A00426F6172642049443A04
:10113C0020303030310D0A0053657474696E6720AD
:10114C00557A7420746F3A200076616C75653D2574
:10115C0064004E6F7420666F756E64210D0A005525
:10116C006F736E313D256C640D0A00556F737431CD
:10117C003D256C640D0A00556F736E323D256C6411
:10118C000D0A00556F7374353D256C640D0A0055BE
:10119C006F7374343D256C640D0A00556F73743392
:1011AC003D256C640D0A00556F7374323D256C64DB
:1011BC000D0A004E6F20436F6D6D616E6420656E7D
:1011CC0074657265640D0A0073746172742D7077A6
:1011DC006D0073746F702D70776D00737461727421
:1011EC002D7A750073746F702D7A75007665727335
:1011FC00696F6E006765742D626F6172642D69642E
:10120C00007365742D7570646174652D74696D65FA
:10121C000073746172742D62617431007374617245
:10122C00742D626174320073746172742D62617416
:10123C003132006765742D62617431006765742DFD
:10124C0062617432006765742D62617431320067BB
:10125C0065742D756F7374006765742D756F736E7F
:10126C00007365742D757A740075737469722D6FC3
:0C127C006E0075737469722D6F66660059
:00000001FF
