:100000000C945C000C9479000C9479000C947900A9
:100010000C9479000C9479000C9479000C9479007C
:100020000C9479000C9479000C9479000C9479006C
:100030000C94EB090C9479000C9479000C947900E1
:100040000C9479000C9479000C949C0C0C9479001D
:100050000C9479000C945A0A0C9479000C94790051
:100060000C9479000C9479000C9479000C9479002C
:100070000C9479000C9479000C9479000C9479001C
:100080000C9479000C9479000C94790025082D08C3
:1000900035083D0845084A084F08520855085808D1
:1000A0005B08A808A8089F085A0CAD0AE80A2A0BA2
:1000B0006C0BA70BE20B1D0C11241FBECFEFD0E180
:1000C000DEBFCDBF14E0A0E0B1E0EEEEF1E202C091
:1000D00005900D92AC3AB107D9F726E0ACEAB4E04E
:1000E00001C01D92A232B207E1F70E9474070C947E
:1000F000F5100C940000CF93DF9300D0CDB7DEB79E
:100100009A8389838BE290E0FC0110828AE290E07E
:1001100028E9FC01208385E990E026E0FC012083AA
:1001200080E990E029813A81232F3327FC01208345
:1001300089E290E02981FC01208300000F900F905C
:10014000DF91CF910895CF93DF9300D0CDB7DEB785
:100150009A8389831092BB042AC000008BE290E04E
:10016000FC018081882F90E080729927892BB1F360
:100170008CE290E02091BB04222F30E049815A812B
:10018000240F351FF9012081FC0120838091BB04DD
:10019000882F90E029813A81820F931FFC01808192
:1001A0008A3091F08091BB048F5F8093BB04809173
:1001B000BB04882F90E029813A81820F931FFC01B4
:1001C0008081882351F601C0000000000F900F903D
:1001D000DF91CF910895CF93DF93CDB7DEB78FE452
:1001E00090E0FC0110828EE490E02CE0FC01208382
:1001F00087E590E020E1FC0120838AE490E021E79C
:1002000032E0FC01318320830000DF91CF9108951B
:10021000CF93DF93CDB7DEB78BE890E021E8FC0108
:1002200020838AE890E029E0FC0120838CE890E0BC
:10023000FC01108286E890E02FE730E0FC0131837A
:1002400020830000DF91CF910895CF93DF931F9219
:10025000CDB7DEB719828AE390E02981FC012083C3
:1002600084E390E02981FC01208387E390E02981E9
:10027000FC01208381E690E02981FC0120838BE34F
:1002800090E02FEFFC01208388E390E02FEFFC014A
:10029000208385E390E02FEFFC01208388E18983B0
:1002A00084E690E02981FC0120838AEE898382E242
:1002B00090E02981FC01208300000F90DF91CF9115
:1002C0000895CF93DF931F92CDB7DEB785E690E018
:1002D000FC0180818983998180E18927898385E672
:1002E00090E02981FC01208300000F90DF91CF91E5
:1002F0000895CF93DF93CDB7DEB787E290E020E497
:10030000FC01208386E290E02FECFC0120830000BA
:10031000DF91CF910895CF93DF9300D0CDB7DEB7B3
:100320008A8383E290E0FC018081898389818F7DCB
:1003300089838A81813019F489818062898383E28B
:1003400090E02981FC01208300000F900F90DF9145
:10035000CF910895CF93DF931F92CDB7DEB783E29D
:1003600090E0FC018081898389818072898381E0AA
:100370009981992309F480E00F90DF91CF9108953E
:10038000CF93DF9300D0CDB7DEB78A8383E290E0CE
:10039000FC018081898389818F7789838A8181307B
:1003A00019F489818068898383E290E02981FC01C6
:1003B000208300000F900F90DF91CF910895CF938D
:1003C000DF931F92CDB7DEB783E290E0FC0180811E
:1003D000898389818078898381E09981992309F4CF
:1003E00080E00F90DF91CF910895CF93DF9300D0FD
:1003F000CDB7DEB79A83898346E850E089819A8138
:1004000096958795969587959C01ABE7B4E10E94F8
:10041000AE0D96958795982F8827969587959C0180
:10042000ABE7B4E10E94AE0D96958795FA019183F2
:10043000808300000F900F90DF91CF910895CF93AC
:10044000DF93CDB7DEB781E08093AD040000DF918C
:10045000CF910895CF93DF93CDB7DEB78091AD04F0
:10046000813029F41092AD0481E08093AE04000045
:10047000DF91CF910895CF93DF93CDB7DEB7C45608
:10048000D1090FB6F894DEBF0FBECDBF1C821B8210
:1004900089E390E0FC018081282F30E083E390E045
:1004A000FC018081882F90E08F709927982F8827F2
:1004B000820F931F9C838B83CE01059629E0EAEB84
:1004C000F2E0DC0101900D922A95E1F71A8219827F
:1004D00043C081E090E0098002C0880F991F0A9410
:1004E000E2F79C018B819C8182239323892BC1F4A9
:1004F000CE0105969C01F90101900020E9F7CF019A
:100500000197821B930B9E012B5F3F4F820F931F1E
:1005100020E330E2FC0131832083FC01128217C00A
:10052000CE0105969C01F90101900020E9F7CF0169
:100530000197821B930B9E012B5F3F4F820F931FEE
:1005400021E330E2FC0131832083FC0112828981A6
:100550009A8101969A83898389819A810C9708F4FC
:10056000B8CFCE0105969C01F90101900020E9F772
:10057000CF010197821B930B9E012B5F3F4F820F90
:10058000931F2BE33DE0FC01318320832AE030E020
:10059000FC0133832283CE0105960E94A300000054
:1005A000CC59DF4F0FB6F894DEBF0FBECDBFDF9141
:1005B000CF910895CF93DF93CDB7DEB7C456D1095D
:1005C0000FB6F894DEBF0FBECDBF1C821B8283E343
:1005D00090E0FC01808182958F70282F30E086E3C7
:1005E00090E0FC018081882F90E082959295907F29
:1005F0009827807F9827822B932B9C838B83CE0117
:10060000059629E0E3ECF2E0DC0101900D922A95D9
:10061000E1F71A82198243C081E090E0098002C0AC
:10062000880F991F0A94E2F79C018B819C81822399
:100630009323892BC1F4CE0105969C01F901019009
:100640000020E9F7CF010197821B930B9E012B5FDE
:100650003F4F820F931F20E330E2FC013183208360
:10066000FC01128217C0CE0105969C01F901019090
:100670000020E9F7CF010197821B930B9E012B5FAE
:100680003F4F820F931F21E330E2FC01318320832F
:10069000FC01128289819A8101969A8389838981DA
:1006A0009A810C9708F4B8CFCE0105969C01F90108
:1006B00001900020E9F7CF010197821B930B9E0167
:1006C0002B5F3F4F820F931F2BE33DE0FC013183F3
:1006D00020832AE030E0FC0133832283CE0105969B
:1006E0000E94A3000000CC59DF4F0FB6F894DEBF84
:1006F0000FBECDBFDF91CF910895CF93DF93CDB7DC
:10070000DEB7C156D1090FB6F894DEBF0FBECDBF1C
:10071000809102069091030624E630E0B9010E9420
:10072000720D898399818DEC989F812D1124869576
:1007300086958695880F282F220F220F820F292F4A
:10074000281B822FE82FF0E099818DEC989F812D56
:100750001124869586958695282F30E08091020693
:100760009091030644E650E0BA010E94720DCB015D
:100770004F2F4F934E2F4F93432F4F932F93292F4C
:100780002F938F938CEC92E0892F8F938CEC92E0D7
:100790008F93CE010296292F2F938F930E940B0ED9
:1007A0008DB79EB70A960FB6F894DEBF0FBECDBFC9
:1007B000CE0102969C01F90101900020E9F7CF01DA
:1007C0000197821B930B9E012E5F3F4F820F931F59
:1007D0002BE339E0FC0131832083FC011282CE013E
:1007E00002960E94A30080911E0690911F0624E6A7
:1007F00030E0B9010E94720D898399818DEC989F38
:10080000812D1124869586958695880F282F220F95
:10081000220F820FF92FF81B8F2FE82FF0E099811C
:100820008DEC989F812D1124869586958695282F8D
:1008300030E080911E0690911F0644E650E0BA0118
:100840000E94720DCB014F2F4F934E2F4F93432F8A
:100850004F932F93292F2F938F938BED92E0892F16
:100860008F938BED92E08F93CE010296292F2F93D9
:100870008F930E940B0E8DB79EB70A960FB6F89411
:10088000DEBF0FBECDBFCE0102969C01F9010190E3
:100890000020E9F7CF010197821B930B9E012E5F89
:1008A0003F4F820F931F2BE339E0FC0131832083FC
:1008B000FC011282CE0102960E94A30080910606DE
:1008C0009091070624E630E0B9010E94720D8983F9
:1008D00099818DEC989F812D11248695869586951A
:1008E000880F282F220F220F820FF92FF81B8F2F2E
:1008F000E82FF0E099818DEC989F812D1124869549
:1009000086958695282F30E08091060690910706FF
:1009100044E650E0BA010E94720DCB014F2F4F9375
:100920004E2F4F93432F4F932F93292F2F938F9316
:100930008AEE92E0892F8F938AEE92E08F93CE0118
:100940000296292F2F938F930E940B0E8DB79EB77F
:100950000A960FB6F894DEBF0FBECDBFCE01029649
:100960009C01F90101900020E9F7CF010197821B5A
:10097000930B9E012E5F3F4F820F931F2BE339E0B5
:10098000FC0131832083FC011282CE0102960E9479
:10099000A300809120069091210624E630E0B90161
:1009A0000E94720D898399818DEC989F812D11246D
:1009B000869586958695880F282F220F220F820F05
:1009C000F92FF81B8F2FE82FF0E099818DEC989F7D
:1009D000812D1124869586958695282F30E080916B
:1009E00020069091210644E650E0BA010E94720D63
:1009F000CB014F2F4F934E2F4F93432F4F932F9356
:100A0000292F2F938F9389EF92E0892F8F9389EF6E
:100A100092E08F93CE010296292F2F938F930E94FD
:100A20000B0E8DB79EB70A960FB6F894DEBF0FBEB9
:100A3000CDBFCE0102969C01F90101900020E9F79B
:100A4000CF010197821B930B9E012E5F3F4F820FB8
:100A5000931F2BE339E0FC0131832083FC011282D8
:100A6000CE0102960E94A3008091E4059091E505D5
:100A700024E630E0B9010E94720D898399818DECE2
:100A8000989F812D1124869586958695880F282F0D
:100A9000220F220F820FF92FF81B8F2FE82FF0E083
:100AA00099818DEC989F812D112486958695869548
:100AB000282F30E08091E4059091E50544E650E070
:100AC000BA010E94720DCB014F2F4F934E2F4F93BF
:100AD000432F4F932F93292F2F938F9388E093E0E9
:100AE000892F8F9388E093E08F93CE010296292F70
:100AF0002F938F930E940B0E8DB79EB70A960FB659
:100B0000F894DEBF0FBECDBFCE0102969C01F90165
:100B100001900020E9F7CF010197821B930B9E0102
:100B20002E5F3F4F820F931F2BE33DE0FC0131838B
:100B300020832AE030E0FC0133832283CE01029639
:100B40000E94A3000000CF59DF4F0FB6F894DEBF1C
:100B50000FBECDBFDF91CF910895CF93DF93CDB777
:100B6000DEB7C156D1090FB6F894DEBF0FBECDBFB8
:100B7000809116069091170624E630E0B9010E9494
:100B8000720D898399818DEC989F812D1124869512
:100B900086958695880F282F220F220F820F292FE6
:100BA000281B822FE82FF0E099818DEC989F812DF2
:100BB0001124869586958695282F30E0809116061B
:100BC0009091170644E650E0BA010E94720DCB01E5
:100BD0004F2F4F934E2F4F93432F4F932F93292FE8
:100BE0002F938F9387E193E0892F8F9387E193E091
:100BF0008F93CE010296292F2F938F930E940B0E75
:100C00008DB79EB70A960FB6F894DEBF0FBECDBF64
:100C1000CE0102969C01F90101900020E9F7CF0175
:100C20000197821B930B9E012E5F3F4F820F931FF4
:100C30002BE339E0FC0131832083FC011282CE01D9
:100C400002960E94A300809114069091150624E656
:100C500030E0B9010E94720D898399818DEC989FD3
:100C6000812D1124869586958695880F282F220F31
:100C7000220F820FF92FF81B8F2FE82FF0E09981B8
:100C80008DEC989F812D1124869586958695282F29
:100C900030E0809114069091150644E650E0BA01C8
:100CA0000E94720DCB014F2F4F934E2F4F93432F26
:100CB0004F932F93292F2F938F9386E293E0892FC1
:100CC0008F9386E293E08F93CE010296292F2F9384
:100CD0008F930E940B0E8DB79EB70A960FB6F894AD
:100CE000DEBF0FBECDBFCE0102969C01F90101907F
:100CF0000020E9F7CF010197821B930B9E012E5F25
:100D00003F4F820F931F2BE33DE0FC013183208393
:100D10002AE030E0FC0133832283CE0102960E9458
:100D2000A3000000CF59DF4F0FB6F894DEBF0FBE0F
:100D3000CDBFDF91CF910895CF93DF9300D01F9265
:100D4000CDB7DEB789837B836A8385E393E00E9416
:100D5000A3008981882F90E0880F991F80509F4FB2
:100D6000FC01808191810E94A3008A819B81892B53
:100D700059F08981882F90E0039709F005C08A8196
:100D80009B810E94A300000087E393E00E94A300E0
:100D900000000F900F900F90DF91CF910895CF93A7
:100DA000DF9300D0CDB7DEB79A83898380913B0172
:100DB000882361F08BE393E00E94A30089819A81EC
:100DC0000E94A3008DE393E00E94A30000000F9017
:100DD0000F90DF91CF910895CF93DF9300D0CDB7DF
:100DE000DEB79A83898380913B01882361F08BE38E
:100DF00093E00E94A30089819A810E94A3008FE35F
:100E000093E00E94A30000000F900F90DF91CF911C
:100E10000895CF93DF93CDB7DEB760E070E080E058
:100E20000E949C0680E00E94C00180E00E948B012D
:100E300080EA9FE00E94F5010000DF91CF910895C4
:100E4000CF93DF93CDB7DEB7C256D1090FB6F89472
:100E5000DEBF0FBECDBF9E012F593F4FF9019183D9
:100E60008083CE018F599F4FFC0121812F93FC017C
:100E700080818F9383E493E0892F8F9383E493E0C1
:100E80008F93CE0101969F938F930E940B0E0F902C
:100E90000F900F900F900F900F90CE0101960E942F
:100EA000EC06CE018F599F4FFC01808191819C01FE
:100EB000ADECBCEC0E94AE0D969587959695879506
:100EC000969587959093B8048093B70481E08093BA
:100ED000AF040000CE59DF4F0FB6F894DEBF0FBE4F
:100EE000CDBFDF91CF910895CF93DF93CDB7DEB71C
:100EF000C157D1090FB6F894DEBF0FBECDBFCE01EA
:100F000082599F4F2BE1FC012083CE0182599F4FD4
:100F10002BE5FC012183CE0182599F4F21E4FC0186
:100F20002283CE0182599F4FFC0113820E9425012A
:100F30000E9408010E94EB000E94610180E090E0A5
:100F40000E947B000E94790186E290E026E230E078
:100F5000F90120812064FC0120830E940907789414
:100F60008CE291E09093B6048093B5048DE593E014
:100F70000E94EC068091B3049091B40403970CF0A6
:100F800028C28091B5049091B60484369105B9F0D9
:100F90008536910518F40197B9F01BC0883C91057E
:100FA00049F08C32914009F014C083E793E00E942D
:100FB000EC060FC089E793E00E94EC060AC08FE7B9
:100FC00093E00E94EC0605C085E893E00E94EC06E1
:100FD00000008091AC04813009F0E5C01A821982CA
:100FE000BEC029813A81C901880F991F820F931FC2
:100FF000825F9E4FFC0180819181BC018CEB94E06B
:101000000E94FA0D892B09F0A5C029813A81C901F6
:10101000880F991F820F931F805F9E4FFC01808174
:10102000882F90E0092E000CAA0BBB0B40E050E08B
:101030002DE030E0841B950B2817390708F486C093
:101040008A5B9F4FFC010C94A80D81E00E948B01EC
:101050008BE893E00E94EC067CC080E00E948B014C
:101060008BEA93E00E94EC0674C081E00E94C0010C
:1010700087EB93E00E94EC066CC080E00E94C00108
:1010800087ED93E00E94EC0664C086EF93E00E9437
:10109000A3005FC088E094E00E94A3005AC00E94B1
:1010A0003B0257C00E94DA0254C00E947D0351C027
:1010B0000E94AD054EC083E194E00E94CF068CEB08
:1010C00094E09C838B8305C08B819C8101969C83DB
:1010D0008B838B819C81FC0180818823A9F78B8184
:1010E0009C8101969C838B838B819C810E94EC0662
:1010F0008B819C810E94DC0D9987888789858F93DD
:1011000088858F9384E294E0892F8F9384E294E022
:101110008F93CE010E96292F2F938F930E940B0E43
:101120000F900F900F900F900F900F90CE010E9692
:101130000E94EC06888599850E94F5010AC08DE21F
:1011400094E00E94EC060E941F0203C0000016C03B
:10115000000014C089819A8101969A83898329812C
:101160003A81C901880F991F820F931F825F9E4F9A
:10117000FC0180819181892B09F033CF29813A814B
:10118000C901880F991F820F931F825F9E4FFC0138
:1011900080819181892B29F460E070E084E00E94D5
:1011A0009C061092AC040E94AA01813029F00E9492
:1011B000DF01813009F0A6C01F8289E390E0FC01C5
:1011C0008081282F30E083E390E0FC018081882F2C
:1011D00090E08F709927982F8827820F931F9B8705
:1011E0008A8783E390E0FC01808182958F70282FAD
:1011F00030E086E390E0FC018081882F90E08295CA
:101200009295907F9827807F9827822B932B9D879C
:101210008C871E821D8269C081E090E00D8002C033
:10122000880F991F0A94E2F79C018A859B85822387
:101230009323892B19F58D818F5F8F838F81882F61
:1012400090E0292F2F938F9387E494E0892F8F9339
:1012500087E494E08F93CE010E96292F2F938F93DE
:101260000E940B0E0F900F900F900F900F900F9009
:10127000CE010E96BC0183E00E949C0681E090E0C6
:101280000D8002C0880F991F0A94E2F79C018C859B
:101290009D8582239323892B19F58D818F5F8F8301
:1012A0008F81882F90E0292F2F938F938CE494E0E7
:1012B000892F8F938CE494E08F93CE010E96292F83
:1012C0002F938F930E940B0E0F900F900F900F9003
:1012D0000F900F90CE010E96BC0183E00E949C06F9
:1012E0008D819E8101969E838D838D819E810C9739
:1012F0000CF492CF8F81882329F080E090E00E9447
:10130000200768C08091AE048130B1F41092AE0421
:1013100081E594E00E94A30081E594E00E94A3008F
:1013200081E594E00E94A30081E594E00E94A3007F
:1013300081E594E00E94A3008091AD048130E1F446
:101340000E943B020E94DA020E94AD050E947D03CA
:10135000CE0182599F4F0E94A300CE0182599F4F18
:101360000E94A300CE0182599F4F0E94A300CE018C
:1013700082599F4F0E94A3008091AF04813009F0F1
:10138000F9CD8091B7049091B804892B09F0F2CD82
:1013900084E594E00E94EC068091B3049091B4043B
:1013A00001969093B4048093B3048091B304909118
:1013B000B40403972CF060E070E085E00E949C0686
:1013C00080E00E94C00180E00E948B011092AF0477
:1013D000D1CD0000CFCD1F920F9200905F000F92F1
:1013E00011242F933F934F935F936F937F938F932A
:1013F0009F93AF93BF93EF93FF93CF93DF93CDB7BB
:10140000DEB780913C0190913D01019790933D01A1
:1014100080933C0180913C0190913D01892B41F4E6
:101420000E94610184E690E090933D0180933C012D
:101430008091B5049091B604892B49F08091B50450
:101440009091B60401979093B6048093B50480916F
:10145000B7049091B804892B49F08091B70490911A
:10146000B80401979093B8048093B7048091B904AD
:101470009091BA04892B49F08091B9049091BA04F3
:1014800001979093BA048093B9040000DF91CF9143
:10149000FF91EF91BF91AF919F918F917F916F914C
:1014A0005F914F913F912F910F9000925F000F90AD
:1014B0001F9018951F920F9200905F000F921124B9
:1014C0002F933F934F935F936F937F938F939F934C
:1014D000AF93BF93EF93FF93CF93DF9300D000D0F0
:1014E000CDB7DEB784E290E0FC018081882F90E0E8
:1014F000A0E0B0E089839A83AB83BC8385E290E06F
:10150000FC018081882F90E0982F8827092E000CFD
:10151000AA0BBB0B29813A814B815C81822B932BD7
:10152000A42BB52B89839A83AB83BC838091B204AF
:10153000882F90E0092E000CAA0BBB0B40E050E076
:1015400027E030E0841B950B2817390708F4B0C159
:101550008C5A9F4FFC010C94A80D29813A814B8134
:101560005C8184EF91E0DC010E94BD0DDC01CB01C8
:101570002FEF33E040E050E0BC01CD010E94860D2A
:10158000DA01C9019093170680931606809116061A
:1015900090911706292F2F938F938EE594E0892F32
:1015A0008F938EE594E08F938EE195E0892F8F9352
:1015B0008EE195E08F930E940B0E0F900F900F908D
:1015C0000F900F900F908EE195E00E94CF0673C1AF
:1015D00029813A814B815C8184EF91E0DC010E949A
:1015E000BD0DDC01CB012FEF33E040E050E0BC014A
:1015F000CD010E94860DDA01C9019C0144E1429FA0
:10160000C001439F900D112490930306809302061E
:101610008091020690910306292F2F938F9389E6DC
:1016200094E0892F8F9389E694E08F938EE195E083
:10163000892F8F938EE195E08F930E940B0E0F9070
:101640000F900F900F900F900F908EE195E00E94F9
:10165000CF0631C129813A814B815C8184EF91E0D1
:10166000DC010E94BD0DDC01CB012FEF33E040E037
:1016700050E0BC01CD010E94860DDA01C9019C0138
:1016800044E1429FC001439F900D112490931506A1
:10169000809314068091140690911506292F2F939C
:1016A0008F9384E794E0892F8F9384E794E08F935E
:1016B0008EE195E0892F8F938EE195E08F930E94C4
:1016C0000B0E0F900F900F900F900F900F908EE1D8
:1016D00095E00E94CF06EFC029813A814B815C8161
:1016E00084EF91E0DC010E94BD0DDC01CB012FEF06
:1016F00033E040E050E0BC01CD010E94860DDA01EC
:10170000C9019093E5058093E4058091E4059091EB
:10171000E505292F2F938F938FE794E0892F8F93DF
:101720008FE794E08F938EE195E0892F8F938EE180
:1017300095E08F930E940B0E0F900F900F900F90DB
:101740000F900F908EE195E00E94CF06B4C02981E2
:101750003A814B815C8184EF91E0DC010E94BD0DF8
:10176000DC01CB012FEF33E040E050E0BC01CD01C4
:101770000E94860DDA01C90190932106809320060C
:101780008091200690912106292F2F938F938AE82C
:1017900094E0892F8F938AE894E08F938EE195E00F
:1017A000892F8F938EE195E08F930E940B0E0F90FF
:1017B0000F900F900F900F900F908EE195E00E9488
:1017C000CF0679C029813A814B815C8184EF91E019
:1017D000DC010E94BD0DDC01CB012FEF33E040E0C6
:1017E00050E0BC01CD010E94860DDA01C901909341
:1017F0000706809306068091060690910706292F1A
:101800002F938F9385E994E0892F8F9385E994E056
:101810008F938EE195E0892F8F938EE195E08F93E2
:101820000E940B0E0F900F900F900F900F900F9043
:101830008EE195E00E94CF063EC029813A814B811E
:101840005C8184EF91E0DC010E94BD0DDC01CB01E5
:101850002FEF33E040E050E0BC01CD010E94860D47
:10186000DA01C90190931F0680931E0680911E061F
:1018700090911F06292F2F938F9380EA94E0892F50
:101880008F9380EA94E08F938EE195E0892F8F9378
:101890008EE195E08F930E940B0E0F900F900F90AA
:1018A0000F900F900F908EE195E00E94CF0603C03D
:1018B000000001C000008091B2048F5F8093B204E9
:1018C0008091B204883010F01092B20487E290E068
:1018D00027E230E0F9012081287FFC01208387E2A4
:1018E00090E027E230E0F90130812091B204232B0F
:1018F000FC01208386E290E026E230E0F9012081BD
:101900002064FC01208300000F900F900F900F9037
:10191000DF91CF91FF91EF91BF91AF919F918F9107
:101920007F916F915F914F913F912F910F90009216
:101930005F000F901F9018951F920F9200905F000C
:101940000F9211242F933F934F935F936F937F9345
:101950008F939F93AF93BF93EF93FF93CF93DF93B7
:1019600000D01F92CDB7DEB78CE290E0FC01808101
:101970008B838B81882F90E08B31910539F08F37E5
:10198000910509F45AC00D9721F06CC00E942A02FB
:1019900091C08091B0049091B104892B29F481E524
:1019A00094E00E94A30086C08091B0049091B1049D
:1019B00082589A4FFC0110821A8219821FC08981B5
:1019C0009A8182589A4FFC01208189819A8184549E
:1019D0009B4FFC01208389819A8184549B4FFC0199
:1019E0008081803231F489819A8184549B4FFC013B
:1019F000108289819A8101969A83898389819A814B
:101A000082589A4FFC018081882329F089819A812C
:101A100080369105A0F289819A8184549B4FFC0104
:101A200010821092B1041092B00481E594E00E94FB
:101A3000A30081E08093AC043DC08091B0049091FC
:101A4000B104892B49F08091B0049091B1040197C1
:101A50009093B1048093B0048CE290E02B81FC0160
:101A6000208328C08091B0049091B10482589A4F8D
:101A70002B81FC0120838091B0049091B1040196E8
:101A80009093B1048093B0048091B0049091B1041C
:101A90008136910548F08091B0049091B10401978E
:101AA0009093B1048093B0048CE290E02B81FC0110
:101AB0002083000000000F900F900F90DF91CF91D6
:101AC000FF91EF91BF91AF919F918F917F916F9116
:101AD0005F914F913F912F910F9000925F000F9077
:101AE0001F90189597FB072E16F4009407D077FDEA
:101AF00009D00E94C80D07FC05D03EF49095819551
:101B00009F4F0895709561957F4F0895A1E21A2E19
:101B1000AA1BBB1BFD010DC0AA1FBB1FEE1FFF1F91
:101B2000A217B307E407F50720F0A21BB30BE40BE1
:101B3000F50B661F771F881F991F1A9469F7609528
:101B40007095809590959B01AC01BD01CF010895E2
:101B5000EE0FFF1F0590F491E02D0994A29FB001B4
:101B6000B39FC001A39F700D811D1124911DB29FD1
:101B7000700D811D1124911D08950E94AE0DA59F29
:101B8000900DB49F900DA49F800D911D1124089578
:101B9000AA1BBB1B51E107C0AA1FBB1FA617B70793
:101BA00010F0A61BB70B881F991F5A95A9F78095AF
:101BB0009095BC01CD010895FC0188279927E894F0
:101BC00021912032E9F3293010F02E30C8F32B3266
:101BD00041F02D3239F4689404C00E94030E820F44
:101BE000911D219120532A30C0F31EF490958195C8
:101BF0009F4F0895FB01DC018D9101908019011028
:101C0000D9F3990B08957AE0979F902D879F802DA7
:101C1000910D11240895AEE0B0E0E1E1FEE00C94F6
:101C2000CC100D891E8986E08C831A8309838FEF7F
:101C30009FE79E838D83AE01475E5F4F6F89788DEE
:101C4000CE0101960E942D0EEF81F885E00FF11F65
:101C500010822E96E4E00C94E810ABE0B0E0E3E3F1
:101C6000FEE00C94BE106C017B018A01FC0117821E
:101C70001682838181FFCCC1CE0101963C01F60121
:101C80009381F70193FD859193FF81917F018823D3
:101C900009F4BAC1853239F493FD859193FF81919E
:101CA0007F01853229F4B60190E00E942410E7CF2D
:101CB000912C212C312CFFE1F315D8F08B3279F0E7
:101CC00038F4803279F08332A1F4232D20611DC0D5
:101CD0008D3261F0803369F4232D216016C0832D8D
:101CE0008260382EE32DE4603E2E2AC0F32DF8608A
:101CF0001DC037FC2DC020ED280F2A3040F08E3259
:101D0000B9F436FC81C1232D2064322E19C036FE71
:101D100006C08AE0989E200D1124922E11C0EAE0A0
:101D20002E9E200D1124222EF32DF0623F2E08C08E
:101D30008C3621F4832D8068382E02C0883641F419
:101D4000F70193FD859193FF81917F018111B3CFBD
:101D5000982F9F7D9554933028F40C5F1F4F9FE37D
:101D600099830DC0833631F0833771F0833509F0E4
:101D700059C021C0F801808189830E5F1F4F8824DC
:101D80008394912C530113C02801F2E04F0E511C93
:101D9000F801A080B18036FE03C0692D70E002C05A
:101DA0006FEF7FEFC5010E9419104C018201F32DE6
:101DB000FF773F2E16C0280122E0420E511CF80189
:101DC000A080B18036FE03C0692D70E002C06FEFC5
:101DD0007FEFC5010E940E104C01F32DF0683F2EDD
:101DE000820133FC1BC0822D90E088169906B0F466
:101DF000B60180E290E00E9424102A94F4CFF5010D
:101E000037FC859137FE81915F01B60190E00E9419
:101E1000241021102A9421E0821A9108811491043F
:101E200071F7E8C0843611F0893641F5F80137FEC4
:101E300007C060817181828193810C5F1F4F08C050
:101E400060817181072E000C880B990B0E5F1F4F6C
:101E5000F32DFF763F2E97FF09C0909580957095E2
:101E600061957F4F8F4F9F4FF0683F2E2AE030E003
:101E7000A3010E946010882E861845C0853731F472
:101E8000232D2F7EB22E2AE030E025C0932D997F9E
:101E9000B92E8F36C1F018F4883579F0B5C0803787
:101EA00019F0883721F0B0C0E92FE061BE2EB4FEF2
:101EB0000DC0FB2DF460BF2E09C034FE0AC0292FCF
:101EC0002660B22E06C028E030E005C020E130E0F8
:101ED00002C020E132E0F801B7FE07C060817181E5
:101EE000828193810C5F1F4F06C06081718180E009
:101EF00090E00E5F1F4FA3010E946010882E86188D
:101F0000FB2DFF773F2E36FE0DC0232D2E7FA22EF8
:101F1000891458F434FE0BC032FC09C0832D8E7E28
:101F2000A82E05C0B82CA32C03C0B82C01C0B92C16
:101F3000A4FE0FC0FE01E80DF11D8081803321F465
:101F40009A2D997EA92E09C0A2FE06C0B394B3941F
:101F500004C08A2D867809F0B394A3FC11C0A0FEBA
:101F600006C0B21488F4280C922C9B180EC0B21430
:101F700060F4B60180E290E00E942410B394F7CFA1
:101F8000B21418F42B1802C0982C212CA4FE10C0F7
:101F9000B60180E390E00E942410A2FE17C0A1FCCD
:101FA00003C088E790E002C088E590E0B6010CC06D
:101FB0008A2D867859F0A1FE02C08BE201C080E232
:101FC000A7FC8DE2B60190E00E942410891438F439
:101FD000B60180E390E00E9424109A94F7CF8A948F
:101FE000F301E80DF11D8081B60190E00E942410FC
:101FF0008110F5CF222009F442CEB60180E290E0B4
:102000000E9424102A94F6CFF6018681978102C09F
:102010008FEF9FEF2B96E2E10C94DA10FC01059014
:10202000615070400110D8F7809590958E0F9F1FDA
:102030000895FC016150704001900110D8F780951F
:1020400090958E0F9F1F08950F931F93CF93DF934B
:10205000FB01238121FD03C08FEF9FEF2CC022FFE6
:1020600016C046815781248135814217530744F4B5
:10207000A081B1819D012F5F3F4F318320838C93DD
:10208000268137812F5F3F4F3783268314C08B0112
:10209000EC01FB010084F185E02D0995892BE1F627
:1020A000D80116968D919C911797019617969C933F
:1020B0008E931697CE01DF91CF911F910F910895C6
:1020C000FA01AA27283051F1203181F1E8946F9369
:1020D0006E7F6E5F7F4F8F4F9F4FAF4FB1E03ED00F
:1020E000B4E03CD0670F781F891F9A1FA11D680FAD
:1020F000791F8A1F911DA11D6A0F711D811D911DE0
:10210000A11D20D009F468943F912AE0269F112454
:102110003019305D3193DEF6CF010895462F4770B8
:10212000405D4193B3E00FD0C9F7F6CF462F4F7013
:10213000405D4A3318F0495D31FD4052419302D071
:10214000A9F7EACFB4E0A695979587957795679517
:10215000BA95C9F700976105710508959B01AC0117
:102160000A2E06945795479537952795BA95C9F73E
:10217000620F731F841F951FA01D08952F923F9219
:102180004F925F926F927F928F929F92AF92BF9287
:10219000CF92DF92EF92FF920F931F93CF93DF9333
:1021A000CDB7DEB7CA1BDB0B0FB6F894DEBF0FBE90
:1021B000CDBF09942A88398848885F846E847D84DD
:1021C0008C849B84AA84B984C884DF80EE80FD80DF
:1021D0000C811B81AA81B981CE0FD11D0FB6F89455
:0E21E000DEBF0FBECDBFED010895F894FFCF16
:1021EE003E014C016E019201B601E0010802380277
:1021FE00004102014902025202035A020462020520
:10220E006F02067802078102088A020993020A9B6E
:10221E00020BA4020CAE020D00000E016400303061
:10222E0020D093D09ED0A2D09ED09200303120D01C
:10223E009DD095D098D0A1D09FD0A0D090D092D044
:10224E009DD0A1D0A2D0AC20D098D0A22100303207
:10225E0020D09DD095D098D0A1D09FD0A0D090D096
:10226E0092D09DD09ED0A1D0A2D0AC20D097D0A39A
:10227E002100303320D09DD095D098D0A1D09FD0C2
:10228E00A0D090D092D09DD09ED0A1D0A2D0AC2084
:10229E00D090D0912000303420D09DD095D098D0C1
:1022AE0097D092D095D0A1D0A2D09DD090D0AF2073
:1022BE00D09AD09ED09CD090D09DD094D09021001A
:1022CE00303520D0A1D098D0A1D0A2D095D09CD01E
:1022DE009020D09DD095D098D0A1D09FD0A0D09056
:1022EE00D092D09DD0902100303620D09DD095D068
:1022FE0098D0A1D09FD0A0D090D092D09DD09ED07B
:10230E00A1D0A2D0AC20D09DD090D093D0A0D0A3FD
:10231E00D097D09AD098210073746172742D69741D
:10232E000073746F702D69740073746172742D7AFA
:10233E00750073746F702D7A750076657273696FA0
:10234E006E006765742D626F6172642D696400673B
:10235E0065742D62617431006765742D626174322B
:10236E00006765742D756F7374006765742D756FD6
:10237E00736E007365742D757A740075737469725B
:10238E002D6F6E0075737469722D6F6666007374AF
:10239E006172742D646961676E0040424154312050
:1023AE003D20004042415432203D200040556F7385
:1023BE0074313D25642E256425640040556F737479
:1023CE00323D25642E256425640040556F737433A9
:1023DE003D25642E256425640040556F7374343D8D
:1023EE0025642E256425640040556F7374353D2594
:1023FE00642E256425640040556F736E313D25644F
:10240E002E256425640040556F736E323D25642E73
:10241E0025642564002200220D0A005B005D005D2C
:10242E000D0A004661696C75726520737461727471
:10243E00656420666F72202564206D73005374618D
:10244E0072742033207365636F6E647320636F75CF
:10245E006E74003320736563003220736563003140
:10246E002073656300302073656300434D445F53F2
:10247E00544152545F495420D0B2D18BD0BFD0BEFC
:10248E00D0BBD0BDD0B5D0BDD0BE00434D445F5300
:10249E00544F505F495400434D445F53544152547E
:1024AE005F5A5520D0B2D18BD0BFD0BED0BBD0BDDD
:1024BE00D0B5D0BDD0BE00434D445F53544F505F96
:1024CE005A5520D0B2D18BD0BFD0BED0BBD0BDD04C
:1024DE00B5D0BDD0BE00405645523D323031392EBA
:1024EE0030332E32360D0A004049443D3030303103
:1024FE000D0A0053657474696E6720557A742074E2
:10250E006F3A200076616C75653D256400537461E9
:10251E007274696E6720646961676E6F7374696344
:10252E00206D6F64652100313A256400323A2564CE
:10253E00000D0A0046696E69736865642000556F68
:10254E00736E313D25640D0A00556F7374313D2550
:10255E00640D0A00556F736E323D25640D0A0055E9
:10256E006F7374353D25640D0A00556F7374343DD9
:10257E0025640D0A00556F7374333D25640D0A00F2
:0C258E00556F7374323D25640D0A000087
:00000001FF
