:100000000C9458000C9475000C9475000C947500B9
:100010000C9475000C9475000C9475000C9475008C
:100020000C9475000C9475000C9475000C9475007C
:100030000C9482020C9475000C9475000C9475005D
:100040000C9475000C9475000C94F9040C947500D4
:100050000C9475000C94B7020C9475000C94750008
:100060000C9475000C9475000C9475000C9475003C
:100070000C9475000C9475000C9475000C9475002C
:100080000C9475000C9475000C947500F801000236
:100090000802100218021D02220225026F026F02DE
:1000A0002802E6022D037403BB03020449049004F2
:1000B00011241FBECFEFD0E1DEBFCDBF13E0A0E023
:1000C000B1E0E0E5F1E102C005900D92AE39B10773
:1000D000D9F724E0AEE9B3E001C01D92AE39B20712
:1000E000E1F70E948F010C94A6080C94000081E8AF
:1000F00080938B0089E080938A0010928C008FE7B8
:1001000090E0909387008093860008951ABA14BAFD
:1001100017BA1092610088E1809364008AEE82B978
:100120000895E5E6F0E0908180E1892780830895D5
:100130001BB828E92AB926E02093950090939000F7
:1001400089B90895FC0110929E0390819923A1F032
:100150005D9BFECF9CB990919E03DF01A90FB11D5D
:100160008C918A3049F09F5F90939E03DF01A90F25
:10017000B11D9C919111ECCF089580E487B98FEC6B
:1001800086B9089593B19F7D813009F4906293B947
:10019000089593B19F77813009F4906893B90895D9
:1001A0009C013695279536952795ABE7B4E10E94DB
:1001B0007E0596958795382F2227369527950E949C
:1001C0007E05969587959093870080938600089585
:1001D0000F931F93CF93DF9389B343B34F7050E0D6
:1001E000542F4427480F511D87E0EFE2F1E0A4EEC1
:1001F000B3E001900D928A95E1F780E090E061E034
:1002000070E0A4EEB3E001E310E2C0E3D0E29B01B2
:10021000082E02C0220F331F0A94E2F7242335234D
:10022000232B49F4FD0101900020E9F73197D18398
:10023000C083128208C0FD0101900020E9F73197C8
:1002400011830083128201968C30910501F7E4EE50
:10025000F3E001900020E9F731978DE09AE0918377
:100260008083128284EE93E00E94A200DF91CF91FE
:100270001F910F9108950F931F93CF93DF9383B333
:1002800046B382958F7090E1499FA0011124482BBD
:1002900087E0E6E3F1E0A4EEB3E001900D928A95E9
:1002A000E1F780E090E061E070E0A4EEB3E001E30C
:1002B00010E2C0E3D0E29B01082E02C0220F331FE0
:1002C0000A94E2F724233523232B49F4FD010190FE
:1002D0000020E9F73197D183C083128208C0FD0165
:1002E00001900020E9F73197118300831282019673
:1002F0008C30910501F7E4EEF3E001900020E9F77E
:1003000031978DE09AE091838083128284EE93E0AE
:100310000E94A200DF91CF911F910F9108950E943A
:1003200086000E9477000E94910080E090E00E9489
:1003300098000E94BD00369A8DE391E00E94A200D1
:100340008FE491E00E94A20081E791E00E94A20068
:1003500078940F2EF2E0EF2EF1E0FF2EF02D0F2E0D
:10036000F9E3AF2EF2E0BF2EF02D0F2EF4EECF2EDC
:10037000F3E0DF2EF02D8091A2038130E1F784ECD1
:1003800091E00E94A20089E791E00E94A20084EA25
:1003900093E00E94A20084EC91E00E94A200F70189
:1003A000608171816115710509F4A5C0C5E0D1E0D6
:1003B00000E010E084EA93E00E94AB05892B09F08D
:1003C00082C085E891E00E94A200F801EE0FFF1FB5
:1003D000E00FF11FEE5FFE4FE2818E2F90E08B3039
:1003E000910508F07CC0FC01EA5BFF4F0C94780596
:1003F00081E00E94C20086E991E00E94A2006FC0E5
:1004000080E00E94C2008FEA91E00E94A20067C0D3
:1004100081E00E94C90087EC91E00E94A2005FC0C9
:1004200080E00E94C90080EE91E00E94A20057C0C7
:1004300088EF91E00E94A20052C087E192E00E9402
:10044000A2004DC00E94E8004AC00E943B0147C084
:1004500088E292E00E94A2008091A403882349F0E0
:1004600025EA33E0F9012F5F3F4F80818111FACFF8
:1004700002C0E4EAF3E0EF012196CE010E94A2005F
:1004800084EC91E00E94A200CE010E948D05D82F3D
:10049000C92F9F938F93BF92AF92DF92CF920E940A
:1004A000BC05C6010E94A20084EC91E00E94A2005B
:1004B0008D2F9C2F0E94D0000F900F900F900F90C7
:1004C0000F900F900CC00F5F1F4F2396FE013397C4
:1004D000608171816115710509F06CCF0CC0F80164
:1004E000EE0FFF1F0E0F1F1FF801EE5FFE4F808102
:1004F0009181892B21F482E492E00E94A200109263
:10050000A20339CF1F920F920FB60F9211242F938F
:100510003F934F935F936F937F938F939F93AF938B
:10052000BF93EF93FF938091000190910101019798
:100530009093010180930001892B41F40E94910066
:1005400084EF91E09093010180930001FF91EF917E
:10055000BF91AF919F918F917F916F915F914F91DB
:100560003F912F910F900FBE0F901F9018951F92E3
:100570000F920FB60F9211242F933F934F935F93D7
:100580006F937F938F939F93AF93BF93EF93FF935B
:1005900084B190E090938D0480938C0425B1809178
:1005A0008C0490918D04922B90938D0480938C04F5
:1005B000E0919F038E2F90E0FC013197E730F10529
:1005C00008F0F3C1EF5AFF4F0C94780580918C042A
:1005D00090918D049C01220F331F220F331F280F8F
:1005E000391F329522952F7023273F702327AAE6C3
:1005F000B3E00E947E05A0E0B0E080939204909367
:100600009304A0939404B0939504809192049091E4
:100610009304A0919404B0919504BF93AF939F93DA
:100620008F938FE492E09F938F9384EE93E09F9358
:100630008F930E94BC058DB79EB708960FB6F894AD
:100640009EBF0FBE8DBF8091A303882309F4ADC167
:1006500084EE93E00E94A200A8C180918C04909146
:100660008D049C01220F331F220F331F280F391FC7
:10067000329522952F7023273F702327AAE6B3E0F7
:100680000E947E05A0E0B0E08093840490938504EE
:10069000A0938604B093870480918404909185048C
:1006A000A0918604B0918704BF93AF939F938F93DB
:1006B0008BE592E09F938F9384EE93E09F938F93CB
:1006C0000E94BC058DB79EB708960FB6F8949EBFE2
:1006D0000FBE8DBF8091A303882309F466C184EE09
:1006E00093E00E94A20061C180918C0490918D04DE
:1006F0009C01220F331F220F331F280F391F329501
:1007000022952F7023273F702327AAE6B3E00E948B
:100710007E05A0E0B0E080938E0490938F04A093B8
:100720009004B093910480918E0490918F04A091D5
:100730009004B0919104BF93AF939F938F9387E6FA
:1007400092E09F938F9384EE93E09F938F930E9408
:10075000BC058DB79EB708960FB6F8949EBF0FBE26
:100760008DBF8091A303882309F41FC184EE93E019
:100770000E94A2001AC180918C0490918D049C016A
:10078000220F331F220F331F280F391F3295229556
:100790002F7023273F702327AAE6B3E00E947E052F
:1007A000A0E0B0E08093680490936904A0936A0489
:1007B000B0936B048091680490916904A0916A04DD
:1007C000B0916B04BF93AF939F938F9383E792E0B5
:1007D0009F938F9384EE93E09F938F930E94BC0529
:1007E0008DB79EB708960FB6F8949EBF0FBE8DBF0B
:1007F0008091A303882309F4D8C084EE93E00E947B
:10080000A200D3C080918C0490918D049C01220F92
:10081000331F220F331F280F391F329522952F7057
:1008200023273F702327AAE6B3E00E947E05A0E0BD
:10083000B0E080939A0490939B04A0939C04B0939F
:100840009D0480919A0490919B04A0919C04B09186
:100850009D04BF93AF939F938F938FE792E09F93F5
:100860008F9384EE93E09F938F930E94BC058DB786
:100870009EB708960FB6F8949EBF0FBE8DBF8091AD
:10088000A303882309F491C084EE93E00E94A200A0
:100890008CC080918C0490918D049C01220F331F99
:1008A000220F331F280F391F329522952F702327CF
:1008B0003F702327AAE6B3E00E947E05A0E0B0E0E7
:1008C0008093880490938904A0938A04B0938B0446
:1008D0008091880490918904A0918A04B0918B043E
:1008E000BF93AF939F938F938BE892E09F938F93E7
:1008F00084EE93E09F938F930E94BC058DB79EB7C3
:1009000008960FB6F8949EBF0FBE8DBF8091A303CB
:10091000882309F44AC084EE93E00E94A20045C0F7
:1009200080918C0490918D049C01220F331F220F23
:10093000331F280F391F329522952F7023273F70C0
:100940002327AAE6B3E00E947E05A0E0B0E08093F2
:10095000960490939704A0939804B093990480917F
:10096000960490919704A0919804B0919904BF9334
:10097000AF939F938F9387E992E09F938F9384EE39
:1009800093E09F938F930E94BC058DB79EB7089606
:100990000FB6F8949EBF0FBE8DBF8091A30388232E
:1009A00021F084EE93E00E94A20080919F038F5F6C
:1009B000883018F480939F0302C010929F0387B180
:1009C000887F87B997B180919F03892B87B9369A21
:1009D000FF91EF91BF91AF919F918F917F916F9117
:1009E0005F914F913F912F910F900FBE0F901F90ED
:1009F00018951F920F920FB60F9211242F933F93C9
:100A00004F935F936F937F938F939F93AF93BF9316
:100A1000EF93FF938CB18B3109F459C08F37D1F12B
:100A20008D3009F045C08091A0039091A1030097FB
:100A300029F483EA92E00E94A20049C0FC01EC5D27
:100A4000FB4F108280912404882391F0A5E2B4E04A
:100A5000E4EAF3E020E030E0803211F0808301C06E
:100A600010822F5F3F4F8D9131968111F5CF02C0DB
:100A700020E030E0F901EC55FC4F10821092A10308
:100A80001092A00384EC91E00E94A20081E0809388
:100A9000A2031DC08091A0039091A103009729F0AB
:100AA00001979093A1038093A0038FE78CB90FC0A7
:100AB0002091A0033091A103F901EC5DFB4F8083ED
:100AC0002F5F3F4F3093A1032093A0038CB9FF9178
:100AD000EF91BF91AF919F918F917F916F915F91B6
:100AE0004F913F912F910F900FBE0F901F9018952F
:100AF000EE0FFF1F0590F491E02D0994A29FB00125
:100B0000B39FC001A39F700D811D1124911DB29F41
:100B1000700D811D1124911D0895FC0188279927CE
:100B2000E89421912032E9F3293010F02E30C8F3F7
:100B30002B3241F02D3239F4689404C00E94B40580
:100B4000820F911D219120532A30C0F31EF49095FD
:100B500081959F4F0895FB01DC018D9101908019D3
:100B60000110D9F3990B08957AE0979F902D879FF4
:100B7000802D910D11240895AEE0B0E0E2ECF5E097
:100B80000C947D080D891E8986E08C831A83098365
:100B90008FEF9FE79E838D83AE01475E5F4F6F8926
:100BA000788DCE0101960E94DE05EF81F885E00F79
:100BB000F11F10822E96E4E00C949908ABE0B0E0AF
:100BC000E4EEF5E00C946F086C017B018A01FC01F6
:100BD00017821682838181FFCCC1CE0101963C0130
:100BE000F6019381F70193FD859193FF81917F0138
:100BF000882309F4BAC1853239F493FD859193FFB6
:100C000081917F01853229F4B60190E00E94D507D9
:100C1000E7CF912C212C312CFFE1F315D8F08B324A
:100C200079F038F4803279F08332A1F4232D2061F9
:100C30001DC08D3261F0803369F4232D216016C010
:100C4000832D8260382EE32DE4603E2E2AC0F32DE2
:100C5000F8601DC037FC2DC020ED280F2A3040F071
:100C60008E32B9F436FC81C1232D2064322E19C096
:100C700036FE06C08AE0989E200D1124922E11C0E7
:100C8000EAE02E9E200D1124222EF32DF0623F2E3D
:100C900008C08C3621F4832D8068382E02C0883637
:100CA00041F4F70193FD859193FF81917F018111BB
:100CB000B3CF982F9F7D9554933028F40C5F1F4F2E
:100CC0009FE399830DC0833631F0833771F083350C
:100CD00009F059C021C0F801808189830E5F1F4F40
:100CE00088248394912C530113C02801F2E04F0E05
:100CF000511CF801A080B18036FE03C0692D70E060
:100D000002C06FEF7FEFC5010E94CA074C0182014C
:100D1000F32DFF773F2E16C0280122E0420E511C12
:100D2000F801A080B18036FE03C0692D70E002C0DA
:100D30006FEF7FEFC5010E94BF074C01F32DF068F4
:100D40003F2E820133FC1BC0822D90E0881699064D
:100D5000B0F4B60180E290E00E94D5072A94F4CF67
:100D6000F50137FC859137FE81915F01B60190E076
:100D70000E94D50721102A9421E0821A910881143B
:100D8000910471F7E8C0843611F0893641F5F80115
:100D900037FE07C060817181828193810C5F1F4F94
:100DA00008C060817181072E000C880B990B0E5FC3
:100DB0001F4FF32DFF763F2E97FF09C0909580952A
:100DC000709561957F4F8F4F9F4FF0683F2E2AE0BF
:100DD00030E0A3010E941108882E861845C085378F
:100DE00031F4232D2F7EB22E2AE030E025C0932D42
:100DF000997FB92E8F36C1F018F4883579F0B5C0D7
:100E0000803719F0883721F0B0C0E92FE061BE2E9D
:100E1000B4FE0DC0FB2DF460BF2E09C034FE0AC025
:100E2000292F2660B22E06C028E030E005C020E160
:100E300030E002C020E132E0F801B7FE07C0608177
:100E40007181828193810C5F1F4F06C06081718127
:100E500080E090E00E5F1F4FA3010E941108882ED2
:100E60008618FB2DFF773F2E36FE0DC0232D2E7FDB
:100E7000A22E891458F434FE0BC032FC09C0832D15
:100E80008E7EA82E05C0B82CA32C03C0B82C01C0A0
:100E9000B92CA4FE0FC0FE01E80DF11D8081803346
:100EA00021F49A2D997EA92E09C0A2FE06C0B39402
:100EB000B39404C08A2D867809F0B394A3FC11C0C2
:100EC000A0FE06C0B21488F4280C922C9B180EC009
:100ED000B21460F4B60180E290E00E94D507B394AA
:100EE000F7CFB21418F42B1802C0982C212CA4FEB2
:100EF00010C0B60180E390E00E94D507A2FE17C0A3
:100F0000A1FC03C088E790E002C088E590E0B6014C
:100F10000CC08A2D867859F0A1FE02C08BE201C078
:100F200080E2A7FC8DE2B60190E00E94D50789140B
:100F300038F4B60180E390E00E94D5079A94F7CF89
:100F40008A94F301E80DF11D8081B60190E00E94C2
:100F5000D5078110F5CF222009F442CEB60180E2F8
:100F600090E00E94D5072A94F6CFF60186819781FA
:100F700002C08FEF9FEF2B96E2E10C948B08FC01EF
:100F80000590615070400110D8F7809590958E0FB4
:100F90009F1F0895FC016150704001900110D8F727
:100FA000809590958E0F9F1F08950F931F93CF9359
:100FB000DF93FB01238121FD03C08FEF9FEF2CC046
:100FC00022FF16C04681578124813581421753077D
:100FD00044F4A081B1819D012F5F3F4F3183208375
:100FE0008C93268137812F5F3F4F3783268314C030
:100FF0008B01EC01FB010084F185E02D0995892B23
:10100000E1F6D80116968D919C9117970196179647
:101010009C938E931697CE01DF91CF911F910F91E4
:101020000895FA01AA27283051F1203181F1E8947E
:101030006F936E7F6E5F7F4F8F4F9F4FAF4FB1E0CB
:101040003ED0B4E03CD0670F781F891F9A1FA11DC6
:10105000680F791F8A1F911DA11D6A0F711D811DC7
:10106000911DA11D20D009F468943F912AE0269F8C
:1010700011243019305D3193DEF6CF010895462FEB
:101080004770405D4193B3E00FD0C9F7F6CF462FCC
:101090004F70405D4A3318F0495D31FD4052419335
:1010A00002D0A9F7EACFB4E0A695979587957795F2
:1010B0006795BA95C9F700976105710508959B0179
:1010C000AC010A2E06945795479537952795BA9502
:1010D000C9F7620F731F841F951FA01D08952F92DB
:1010E0003F924F925F926F927F928F929F92AF92B8
:1010F000BF92CF92DF92EF92FF920F931F93CF9305
:10110000DF93CDB7DEB7CA1BDB0B0FB6F894DEBF9B
:101110000FBECDBF09942A88398848885F846E84C1
:101120007D848C849B84AA84B984C884DF80EE800B
:10113000FD800C811B81AA81B981CE0FD11D0FB614
:10114000F894DEBF0FBECDBFED010895F894FFCF38
:10115000F401B80200C10201C90202D20203DA029C
:1011600004E20205EF0206F802070103080A030978
:1011700013030A1B030B24030C2E030D00000E4067
:10118000424154313D0040424154323D004769766E
:1011900065206D6520626174746572790D0A005076
:1011A0006F77657220737570706C7920436F6E7401
:1011B000726F6C6C65722076657220312E300D0A6C
:1011C0000052656164790D0A005365617263686954
:1011D0006E673A2000436F6D6D616E6420666F75B7
:1011E0006E64210D0A00434D445F53544152545FD5
:1011F00049542066696E6973686564210D0A00436D
:101200004D445F53544F505F49542066696E697373
:10121000686564210D0A00434D445F5354415254A4
:101220005F5A552066696E6973686564210D0A000E
:10123000434D445F53544F505F5A552066696E6961
:1012400073686564210D0A004669726D7761726585
:101250002076657273696F6E3A20323031392E30E4
:10126000332E32360D0A00426F6172642049443ACF
:1012700020303030310D0A0053657474696E672078
:10128000557A7420746F3A200076616C75653D253F
:1012900064004E6F7420666F756E64210D0A0055F0
:1012A0006F736E313D256C640D0A00556F73743198
:1012B0003D256C640D0A00556F736E323D256C64DC
:1012C0000D0A00556F7374353D256C640D0A005589
:1012D0006F7374343D256C640D0A00556F7374335D
:1012E0003D256C640D0A00556F7374323D256C64A6
:1012F0000D0A004E6F20436F6D6D616E6420656E48
:1013000074657265640D0A0073746172742D69747A
:101310000073746F702D69740073746172742D7A28
:10132000750073746F702D7A750076657273696FCE
:101330006E006765742D626F6172642D6964006769
:1013400065742D62617431006765742D6261743259
:10135000006765742D756F7374006765742D756F04
:10136000736E007365742D757A7400757374697289
:101370002D6F6E0075737469722D6F6666007374DD
:101380006172742D646961676E00303020C3CED203
:10139000CEC200303120CDC5C8D1CFD0C0C2CDCE55
:1013A000D1D2DC20C8D1D2CED7CDC8CAC020D2CEAF
:1013B000CAC000303220CDC5C8D1CFD0C0C2CDCE3A
:1013C000D1D2DC20C7C0D0DFC4CDCEC3CE20D3D194
:1013D000D2D0CEC9D1D2C2C000303320CDC5C8D101
:0E13E000CFD0C0C2CDCED1D2DC20C0C1200003
:00000001FF
