:100000000C945C000C9479000C9479000C947900A9
:100010000C9479000C9479000C9479000C9479007C
:100020000C9479000C9479000C9479000C9479006C
:100030000C943D0A0C9479000C9479000C9479008E
:100040000C9479000C9479000C941E0D0C9479009A
:100050000C9479000C94AC0A0C9479000C947900FF
:100060000C9479000C9479000C9479000C9479002C
:100070000C9479000C9479000C9479000C9479001C
:100080000C9479000C9479000C94790095089D08E3
:10009000A508AD08B508BA08BF08C208C508C80851
:1000A000CB08180918090F09CE0CFF0A8D0C460B56
:1000B0008D0BCD0B0D0C4D0C11241FBECFEFD0E1DD
:1000C000DEBFCDBF14E0A0E0B1E0E2EFF2E202C09B
:1000D00005900D92A63BB107D9F726E0A6EBB4E058
:1000E00001C01D92AD32B207E1F70E9496070C9451
:1000F00077110C940000CF93DF9300D0CDB7DEB71B
:100100009A8389838BE290E0FC0110828AE290E07E
:1001100028E9FC01208385E990E026E0FC012083AA
:1001200080E990E029813A81232F3327FC01208345
:1001300089E290E02981FC01208300000F900F905C
:10014000DF91CF910895CF93DF9300D0CDB7DEB785
:100150009A8389831092C6042AC000008BE290E043
:10016000FC018081882F90E080729927892BB1F360
:100170008CE290E02091C604222F30E049815A8120
:10018000240F351FF9012081FC0120838091C604D2
:10019000882F90E029813A81820F931FFC01808192
:1001A0008A3091F08091C6048F5F8093C60480915D
:1001B000C604882F90E029813A81820F931FFC01A9
:1001C0008081882351F601C0000000000F900F903D
:1001D000DF91CF910895CF93DF93CDB7DEB78FE452
:1001E00090E0FC0110828EE490E02CE0FC01208382
:1001F00087E590E020E1FC0120838AE490E021E79C
:1002000032E0FC01318320830000DF91CF9108951B
:10021000CF93DF93CDB7DEB78BE890E021E8FC0108
:1002200020838AE890E029E0FC0120838CE890E0BC
:10023000FC01108286E890E02FE730E0FC0131837A
:1002400020830000DF91CF910895CF93DF931F9219
:10025000CDB7DEB719828AE390E02981FC012083C3
:1002600084E390E02981FC01208387E390E02981E9
:10027000FC01208381E690E02981FC0120838BE34F
:1002800090E02FEFFC01208388E390E02FEFFC014A
:10029000208385E390E02FEFFC01208385E690E04A
:1002A0002FEFFC01208388E1898384E690E0298197
:1002B000FC0120838AEE898382E290E02981FC019F
:1002C000208300000F90DF91CF910895CF93DF93AB
:1002D0001F92CDB7DEB785E690E0FC01808189836F
:1002E000998180E18927898385E690E02981FC0155
:1002F000208300000F90DF91CF910895CF93DF937B
:10030000CDB7DEB787E290E020E4FC01208386E2EF
:1003100090E02FECFC0120830000DF91CF91089545
:10032000CF93DF9300D0CDB7DEB78A8383E290E02E
:10033000FC018081898389818F7D89838A818130D5
:1003400019F489818062898383E290E02981FC012C
:10035000208300000F900F90DF91CF910895CF93ED
:10036000DF931F92CDB7DEB783E290E0FC0180817E
:10037000898389818072898381E09981992309F435
:1003800080E00F90DF91CF910895CF93DF9300D05D
:10039000CDB7DEB78A8383E290E0FC018081898358
:1003A00089818F7789838A81813019F48981806876
:1003B000898383E290E02981FC01208300000F9073
:1003C0000F90DF91CF910895CF93DF931F92CDB718
:1003D000DEB783E290E0FC018081898389818078A7
:1003E000898381E09981992309F480E00F90DF915E
:1003F000CF910895CF93DF9300D0CDB7DEB79A8326
:10040000898346E850E089819A81969587959695EB
:1004100087959C01ABE7B4E10E94300E96958795D5
:10042000982F8827969587959C01ABE7B4E10E94A9
:10043000300E96958795FA019183808300000F9086
:100440000F90DF91CF910895CF93DF93CDB7DEB7B3
:1004500081E08093B8040000DF91CF910895CF939D
:10046000DF93CDB7DEB78091B804813029F41092C4
:10047000B80481E08093B9040000DF91CF91089522
:10048000CF93DF93CDB7DEB7C456D1090FB6F8943A
:10049000DEBF0FBECDBF1C821B8289E390E0FC0152
:1004A0008081282F30E083E390E0FC018081882F59
:1004B00090E08F709927982F8827820F931F9C8335
:1004C0008B83CE01059629E0EAEBF2E0DC01019096
:1004D0000D922A95E1F71A82198243C081E090E0DB
:1004E000098002C0880F991F0A94E2F79C018B8152
:1004F0009C8182239323892BC1F4CE0105969C0114
:10050000F90101900020E9F7CF010197821B930BBD
:100510009E012B5F3F4F820F931F20E330E2FC01CF
:1005200031832083FC01128217C0CE0105969C0105
:10053000F90101900020E9F7CF010197821B930B8D
:100540009E012B5F3F4F820F931F21E330E2FC019E
:1005500031832083FC01128289819A8101969A83DA
:10056000898389819A810C9708F4B8CFCE010596CA
:100570009C01F90101900020E9F7CF010197821B4E
:10058000930B9E012B5F3F4F820F931F2BE33DE0A8
:10059000FC01318320832AE030E0FC013383228395
:1005A000CE0105960E94A3000000CC59DF4F0FB684
:1005B000F894DEBF0FBECDBFDF91CF910895CF93EA
:1005C000DF93CDB7DEB7C456D1090FB6F894DEBFBE
:1005D0000FBECDBF1C821B8283E390E0FC018081B3
:1005E00082958F70282F30E086E390E0FC018081B7
:1005F000882F90E0817F992782959295907F982708
:10060000807F9827282B392B83E690E0FC0180819E
:10061000882F90E0880F991F82959295907F982758
:10062000807F98279927822B932B9C838B83CE01E5
:10063000059629E0E3ECF2E0DC0101900D922A95A9
:10064000E1F71A82198243C081E090E0098002C07C
:10065000880F991F0A94E2F79C018B819C81822369
:100660009323892BC1F4CE0105969C01F9010190D9
:100670000020E9F7CF010197821B930B9E012B5FAE
:100680003F4F820F931F20E330E2FC013183208330
:10069000FC01128217C0CE0105969C01F901019060
:1006A0000020E9F7CF010197821B930B9E012B5F7E
:1006B0003F4F820F931F21E330E2FC0131832083FF
:1006C000FC01128289819A8101969A8389838981AA
:1006D0009A810C9708F4B8CFCE0105969C01F901D8
:1006E00001900020E9F7CF010197821B930B9E0137
:1006F0002B5F3F4F820F931F2BE33DE0FC013183C3
:1007000020832AE030E0FC0133832283CE0105966A
:100710000E94A3000000CC59DF4F0FB6F894DEBF53
:100720000FBECDBFDF91CF910895CF93DF93CDB7AB
:10073000DEB7C156D1090FB6F894DEBF0FBECDBFEC
:1007400080910D0690910E068A5F910924E630E0B3
:10075000B9010E94F40D898399818DEC989F812DB8
:100760001124869586958695880F282F220F220FB3
:10077000820F292F281B822FE82FF0E099818DEC22
:10078000989F812D1124869586958695282F30E097
:1007900080910D0690910E0644E650E0BA010E9449
:1007A000F40DCB014F2F4F934E2F4F93432F4F9369
:1007B0002F93292F2F938F938CEC92E0892F8F9377
:1007C0008CEC92E08F93CE010296292F2F938F937A
:1007D0000E948D0E8DB79EB70A960FB6F894DEBFB5
:1007E0000FBECDBFCE0102969C01F9010190002001
:1007F000E9F7CF010197821B930B9E012E5F3F4FBC
:10080000820F931F2BE339E0FC0131832083FC012D
:100810001282CE0102960E94A30080912906909137
:100820002A068A5F910924E630E0B9010E94F40D9E
:10083000898399818DEC989F812D112486958695C9
:100840008695880F282F220F220F820FF92FF81B71
:100850008F2FE82FF0E099818DEC989F812D112446
:10086000869586958695282F30E08091290690916F
:100870002A0644E650E0BA010E94F40DCB014F2F46
:100880004F934E2F4F93432F4F932F93292F2F93F7
:100890008F938DED92E0892F8F938DED92E08F9362
:1008A000CE010296292F2F938F930E948D0E8DB724
:1008B0009EB70A960FB6F894DEBF0FBECDBFCE012D
:1008C00002969C01F90101900020E9F7CF01019700
:1008D000821B930B9E012E5F3F4F820F931F2BE3D2
:1008E00039E0FC0131832083FC011282CE010296A3
:1008F0000E94A30080911106909112068A5F9109CF
:1009000024E630E0B9010E94F40D898399818DECD1
:10091000989F812D1124869586958695880F282F7E
:10092000220F220F820FF92FF81B8F2FE82FF0E0F4
:1009300099818DEC989F812D1124869586958695B9
:10094000282F30E0809111069091120644E650E085
:10095000BA010E94F40DCB014F2F4F934E2F4F93AE
:10096000432F4F932F93292F2F938F938AEE92E04B
:10097000892F8F938AEE92E08F93CE010296292FD2
:100980002F938F930E948D0E8DB79EB70A960FB648
:10099000F894DEBF0FBECDBFCE0102969C01F901D7
:1009A00001900020E9F7CF010197821B930B9E0174
:1009B0002E5F3F4F820F931F2BE339E0FC01318301
:1009C0002083FC011282CE0102960E94A300809136
:1009D0002B0690912C068A5F910924E630E0B9013C
:1009E0000E94F40D898399818DEC989F812D1124AB
:1009F000869586958695880F282F220F220F820FC5
:100A0000F92FF81B8F2FE82FF0E099818DEC989F3C
:100A1000812D1124869586958695282F30E080912A
:100A20002B0690912C0644E650E0BA010E94F40D8A
:100A3000CB014F2F4F934E2F4F93432F4F932F9315
:100A4000292F2F938F9387EF92E0892F8F9387EF32
:100A500092E08F93CE010296292F2F938F930E94BD
:100A60008D0E8DB79EB70A960FB6F894DEBF0FBEF7
:100A7000CDBFCE0102969C01F90101900020E9F75B
:100A8000CF010197821B930B9E012E5F3F4F820F78
:100A9000931F2BE339E0FC0131832083FC01128298
:100AA000CE0102960E94A3008091EF059091F0057F
:100AB0008A5F910924E630E0B9010E94F40D898330
:100AC00099818DEC989F812D112486958695869528
:100AD000880F282F220F220F820FF92FF81B8F2F3C
:100AE000E82FF0E099818DEC989F812D1124869557
:100AF00086958695282F30E08091EF059091F0053E
:100B000044E650E0BA010E94F40DCB014F2F4F9301
:100B10004E2F4F93432F4F932F93292F2F938F9324
:100B200084E093E0892F8F9384E093E08F93CE014C
:100B30000296292F2F938F930E948D0E8DB79EB70B
:100B40000A960FB6F894DEBF0FBECDBFCE01029657
:100B50009C01F90101900020E9F7CF010197821B68
:100B6000930B9E012E5F3F4F820F931F2BE33DE0BF
:100B7000FC01318320832AE030E0FC0133832283AF
:100B8000CE0102960E94A3000000CF59DF4F0FB69E
:100B9000F894DEBF0FBECDBFDF91CF910895CF9304
:100BA000DF93CDB7DEB7C156D1090FB6F894DEBFDB
:100BB0000FBECDBF809121069091220624E630E041
:100BC000B9010E94F40D898399818DEC989F812D44
:100BD0001124869586958695880F282F220F220F3F
:100BE000820F292F281B822FE82FF0E099818DECAE
:100BF000989F812D1124869586958695282F30E023
:100C0000809121069091220644E650E0BA010E94AC
:100C1000F40DCB014F2F4F934E2F4F93432F4F93F4
:100C20002F93292F2F938F9385E193E0892F8F9313
:100C300085E193E08F93CE010296292F2F938F9316
:100C40000E948D0E8DB79EB70A960FB6F894DEBF40
:100C50000FBECDBFCE0102969C01F901019000208C
:100C6000E9F7CF010197821B930B9E012E5F3F4F47
:100C7000820F931F2BE339E0FC0131832083FC01B9
:100C80001282CE0102960E94A30080911F069091CD
:100C9000200624E630E0B9010E94F40D8983998191
:100CA0008DEC989F812D1124869586958695880FC9
:100CB000282F220F220F820FF92FF81B8F2FE82FDA
:100CC000F0E099818DEC989F812D11248695869571
:100CD0008695282F30E080911F069091200644E6EB
:100CE00050E0BA010E94F40DCB014F2F4F934E2FCD
:100CF0004F93432F4F932F93292F2F938F9384E25A
:100D000093E0892F8F9384E293E08F93CE01029634
:100D1000292F2F938F930E948D0E8DB79EB70A9621
:100D20000FB6F894DEBF0FBECDBFCE0102969C0178
:100D3000F90101900020E9F7CF010197821B930B85
:100D40009E012E5F3F4F820F931F2BE33DE0FC017E
:100D5000318320832AE030E0FC0133832283CE01FB
:100D600002960E94A3000000CF59DF4F0FB6F894FF
:100D7000DEBF0FBECDBFDF91CF910895CF93DF933C
:100D800000D01F92CDB7DEB789837B836A8387E368
:100D900093E00E94A3008981882F90E0880F991F1B
:100DA00080509F4FFC01808191810E94A3008A8125
:100DB0009B81892B59F08981882F90E0039709F056
:100DC00005C08A819B810E94A300000089E393E013
:100DD0000E94A30000000F900F900F90DF91CF9121
:100DE0000895CF93DF9300D0CDB7DEB79A83898380
:100DF00080913B01882361F08DE393E00E94A30082
:100E000089819A810E94A3008FE393E00E94A3004E
:100E100000000F900F90DF91CF910895CF93DF9353
:100E200000D0CDB7DEB79A83898380913B018823B8
:100E300061F08DE393E00E94A30089819A810E9472
:100E4000A30081E493E00E94A30000000F900F90A4
:100E5000DF91CF910895CF93DF93CDB7DEB760E0F8
:100E600070E080E00E94BE0680E00E94C50180E044
:100E70000E94900180EA9FE00E94FA010000DF9149
:100E8000CF910895CF93DF93CDB7DEB7C256D10986
:100E90000FB6F894DEBF0FBECDBF9E012F593F4F56
:100EA000F90191838083CE018F599F4FFC012181ED
:100EB0002F93FC0180818F9385E493E0892F8F939A
:100EC00085E493E08F93CE0101969F938F930E94C8
:100ED0008D0E0F900F900F900F900F900F90CE01EE
:100EE00001960E940E07CE018F599F4FFC01808111
:100EF00091819C01ADECBCEC0E94300E96958795DB
:100F000096958795969587959093C3048093C20490
:100F100081E08093BA040000CE59DF4F0FB6F894F9
:100F2000DEBF0FBECDBFDF91CF910895CF93DF938A
:100F3000CDB7DEB7C157D1090FB6F894DEBF0FBEEB
:100F4000CDBFCE0182599F4F2BE1FC012083CE0102
:100F500082599F4F2BE5FC012183CE0182599F4F7F
:100F600021E4FC012283CE0182599F4FFC011382B0
:100F70000E9425010E9408010E94EB000E94660168
:100F800080E090E00E947B000E947E0186E290E07B
:100F900026E230E0F90120812064FC0120830E94D8
:100FA0002B0778948CE291E09093C1048093C00465
:100FB0008FE593E00E940E078091BE049091BF04DC
:100FC00003970CF058C28091C0049091C1048436FC
:100FD000910549F18536910518F4019791F13FC0CB
:100FE000883C910591F08C32914009F038C085E73A
:100FF00093E00E940E078091C0049091C104019774
:101000009093C1048093C0042AC08BE793E00E94B0
:101010000E078091C0049091C10401979093C10480
:101020008093C0041CC081E893E00E940E07809169
:10103000C0049091C10401979093C1048093C004AF
:101040000EC087E893E00E940E078091C004909143
:10105000C10401979093C1048093C0040000809163
:10106000BA04813031F58091C2049091C304892B78
:1010700001F58DE893E00E940E078091BE049091E7
:10108000BF0401969093BF048093BE048091BE0478
:101090009091BF0403972CF060E070E085E00E941F
:1010A000BE0680E00E94C50180E00E94900110927F
:1010B000BA048091B704813009F0E5C01A82198220
:1010C000BEC029813A81C901880F991F820F931FE1
:1010D000825F9E4FFC0180819181BC0187EC94E08E
:1010E0000E947C0E892B09F0A5C029813A81C90193
:1010F000880F991F820F931F805F9E4FFC01808194
:10110000882F90E0092E000CAA0BBB0B40E050E0AA
:101110002DE030E0841B950B2817390708F486C0B2
:101120008A5B9F4FFC010C942A0E81E00E94900183
:101130008FE993E00E940E077CC080E00E9490013E
:101140008FEB93E00E940E0774C081E00E94C501FE
:101150008BEC93E00E940E076CC080E00E94C501FA
:101160008BEE93E00E940E0764C08AE094E00E9438
:10117000A3005FC08CE194E00E94A3005AC00E94CB
:10118000400257C00E94DF0254C00E94950351C024
:101190000E94CF054EC087E294E00E94F10687ECE2
:1011A00094E09C838B8305C08B819C8101969C83FA
:1011B0008B838B819C81FC0180818823A9F78B81A3
:1011C0009C8101969C838B838B819C810E940E075E
:1011D0008B819C810E945E0E9987888789858F9379
:1011E00088858F9388E394E0892F8F9388E394E038
:1011F0008F93CE010E96292F2F938F930E948D0EE1
:101200000F900F900F900F900F900F90CE010E96B1
:101210000E940E07888599850E94FA010AC081E420
:1012200094E00E940E070E94240203C0000016C032
:10123000000014C089819A8101969A83898329814B
:101240003A81C901880F991F820F931F825F9E4FB9
:10125000FC0180819181892B09F033CF29813A816A
:10126000C901880F991F820F931F825F9E4FFC0157
:1012700080819181892B29F460E070E084E00E94F4
:10128000BE061092B7040E94AF01813029F00E947F
:10129000E401813009F0A6C01F8289E390E0FC01DF
:1012A0008081282F30E083E390E0FC018081882F4B
:1012B00090E08F709927982F8827820F931F9B8724
:1012C0008A8783E390E0FC01808182958F70282FCC
:1012D00030E086E390E0FC018081882F90E08295E9
:1012E0009295907F9827807F9827822B932B9D87BC
:1012F0008C871E821D8269C081E090E00D8002C053
:10130000880F991F0A94E2F79C018A859B858223A6
:101310009323892B19F58D818F5F8F838F81882F80
:1013200090E0292F2F938F938BE594E0892F8F9353
:101330008BE594E08F93CE010E96292F2F938F93F8
:101340000E948D0E0F900F900F900F900F900F90A6
:10135000CE010E96BC0183E00E94BE0681E090E0C3
:101360000D8002C0880F991F0A94E2F79C018C85BA
:101370009D8582239323892B19F58D818F5F8F8320
:101380008F81882F90E0292F2F938F9380E694E010
:10139000892F8F9380E694E08F93CE010E96292FAC
:1013A0002F938F930E948D0E0F900F900F900F90A0
:1013B0000F900F90CE010E96BC0183E00E94BE06F6
:1013C0008D819E8101969E838D838D819E810C9758
:1013D0000CF492CF8F81882329F080E090E00E9466
:1013E00042074AC08091B9048130B1F41092B90427
:1013F00085E694E00E94A30085E694E00E94A300A5
:1014000085E694E00E94A30085E694E00E94A30094
:1014100085E694E00E94A3008091B804813009F031
:10142000CBCD8091C4049091C504892B09F0C4CD23
:1014300082E390E09093C5048093C4040E9440022C
:101440000E94DF020E94CF050E949503CE018259BF
:101450009F4F0E94A300CE0182599F4F0E94A3007C
:10146000CE0182599F4F0E94A300CE0182599F4F07
:101470000E94A300A1CD00009FCD1F920F9200906B
:101480005F000F9211242F933F934F935F936F93BD
:101490007F938F939F93AF93BF93EF93FF93CF93DC
:1014A000DF93CDB7DEB780913C0190913D0101976C
:1014B00090933D0180933C0180913C0190913D01CE
:1014C000892B41F40E94660184E690E090933D01EF
:1014D00080933C018091C0049091C104892B49F014
:1014E0008091C0049091C10401979093C1048093AE
:1014F000C0048091C2049091C304892B49F080916B
:10150000C2049091C30401979093C3048093C204D2
:101510008091C4049091C504892B49F08091C40442
:101520009091C50401979093C5048093C404000072
:10153000DF91CF91FF91EF91BF91AF919F918F91EB
:101540007F916F915F914F913F912F910F900092FA
:101550005F000F901F9018951F920F9200905F00F0
:101560000F9211242F933F934F935F936F937F9329
:101570008F939F93AF93BF93EF93FF93CF93DF939B
:1015800000D000D0CDB7DEB784E290E0FC018081CE
:10159000882F90E0A0E0B0E089839A83AB83BC837E
:1015A00085E290E0FC018081882F90E0982F8827C9
:1015B000092E000CAA0BBB0B29813A814B815C815F
:1015C000822B932BA42BB52B89839A83AB83BC836B
:1015D0008091BD04882F90E0092E000CAA0BBB0B54
:1015E00040E050E027E030E0841B950B28173907D6
:1015F00008F4D2C18C5A9F4FFC010C942A0E298109
:101600003A814B815C8184EF91E0DC010E943F0EC6
:10161000DC01CB012FEF33E040E050E0BC01CD0115
:101620000E94080EDA01C9019C0144E1429FC001F9
:10163000439F900D11249093220680932106809160
:10164000210690912206292F2F938F9388E694E00C
:10165000892F8F9388E694E08F9389E295E0892F14
:101660008F9389E295E08F930E948D0E0F900F90DB
:101670000F900F900F900F908091B604882309F47B
:101680008FC189E295E00E94F1068AC129813A81E1
:101690004B815C8184EF91E0DC010E943F0EDC0114
:1016A000CB012FEF33E040E050E0BC01CD010E94C0
:1016B000080EDA01C9019C0144E1429FC001439F29
:1016C000900D11249093200680931F0680911F0691
:1016D00090912006292F2F938F9383E794E0892FF1
:1016E0008F9383E794E08F9389E295E0892F8F931E
:1016F00089E295E08F930E948D0E0F900F900F90CE
:101700000F900F900F908091B604882309F44AC17E
:1017100089E295E00E94F10645C129813A814B8119
:101720005C8184EF91E0DC010E943F0EDC01CB0183
:101730002FEF33E040E050E0BC01CD010E94080EE5
:10174000DA01C9019093F0058093EF058091EF05D0
:101750009091F005292F2F938F938EE794E0892F96
:101760008F938EE794E08F9389E295E0892F8F9392
:1017700089E295E08F930E948D0E0F900F900F904D
:101780000F900F900F908091B604882309F40CC13C
:1017900089E295E00E94F10607C129813A814B81D7
:1017A0005C8184EF91E0DC010E943F0EDC01CB0103
:1017B0002FEF33E040E050E0BC01CD010E94080E65
:1017C000DA01C90190932C0680932B0680912B0699
:1017D00090912C06292F2F938F9389E894E0892FDD
:1017E0008F9389E894E08F9389E295E0892F8F9316
:1017F00089E295E08F930E948D0E0F900F900F90CD
:101800000F900F900F908091B604882309F4CEC0FA
:1018100089E295E00E94F106C9C029813A814B8195
:101820005C8184EF91E0DC010E943F0EDC01CB0182
:101830002FEF33E040E050E0BC01CD010E94080EE4
:10184000DA01C90190931206809311068091110666
:1018500090911206292F2F938F9384E994E0892F7A
:101860008F9384E994E08F9389E295E0892F8F9399
:1018700089E295E08F930E948D0E0F900F900F904C
:101880000F900F900F908091B604882309F490C0B8
:1018900089E295E00E94F1068BC029813A814B8153
:1018A0005C8184EF91E0DC010E943F0EDC01CB0102
:1018B0002FEF33E040E050E0BC01CD010E94080E64
:1018C000DA01C90190932A0680932906809129069E
:1018D00090912A06292F2F938F938FE994E0892FD7
:1018E0008F938FE994E08F9389E295E0892F8F930E
:1018F00089E295E08F930E948D0E0F900F900F90CC
:101900000F900F900F908091B604882309F452C075
:1019100089E295E00E94F1064DC029813A814B8110
:101920005C8184EF91E0DC010E943F0EDC01CB0181
:101930002FEF33E040E050E0BC01CD010E94080EE3
:10194000DA01C90190930E0680930D0680910D0671
:1019500090910E06292F2F938F938AEA94E0892F76
:101960008F938AEA94E08F9389E295E0892F8F9391
:1019700089E295E08F930E948D0E0F900F900F904B
:101980000F900F900F908091B6048823A9F089E200
:1019900095E00E94F10610C000000FC000000DC0CD
:1019A00000000BC0000009C0000007C0000005C017
:1019B000000003C0000001C000008091BD048F5FE3
:1019C0008093BD048091BD04883010F01092BD0456
:1019D00087E290E027E230E0F9012081287FFC01D6
:1019E000208387E290E027E230E0F9013081209106
:1019F000BD04232BFC01208386E290E026E230E048
:101A0000F90120812064FC01208300000F900F90D9
:101A10000F900F90DF91CF91FF91EF91BF91AF9118
:101A20009F918F917F916F915F914F913F912F91F6
:101A30000F9000925F000F901F9018951F920F92C9
:101A400000905F000F9211242F933F934F935F9369
:101A50006F937F938F939F93AF93BF93EF93FF9376
:101A6000CF93DF9300D01F92CDB7DEB78CE290E02A
:101A7000FC0180818B838B81882F90E08B319105D5
:101A800039F08F37910509F45AC00D9721F06CC0D9
:101A90000E942F0291C08091BB049091BC04892BBD
:101AA00029F485E694E00E94A30086C08091BB04DF
:101AB0009091BC0487579A4FFC0110821A821982B8
:101AC0001FC089819A8187579A4FFC0120818981A3
:101AD0009A8189539B4FFC01208389819A81895384
:101AE0009B4FFC018081803231F489819A81895336
:101AF0009B4FFC01108289819A8101969A83898388
:101B000089819A8187579A4FFC018081882329F027
:101B100089819A8180369105A0F289819A818953C1
:101B20009B4FFC0110821092BC041092BB0485E60E
:101B300094E00E94A30081E08093B7043DC08091AF
:101B4000BB049091BC04892B49F08091BB04909117
:101B5000BC0401979093BC048093BB048CE290E09A
:101B60002B81FC01208328C08091BB049091BC0490
:101B700087579A4F2B81FC0120838091BB04909161
:101B8000BC0401969093BC048093BB048091BB0479
:101B90009091BC048136910548F08091BB049091EE
:101BA000BC0401979093BC048093BB048CE290E04A
:101BB0002B81FC012083000000000F900F900F90FC
:101BC000DF91CF91FF91EF91BF91AF919F918F9155
:101BD0007F916F915F914F913F912F910F90009264
:101BE0005F000F901F90189597FB072E16F4009436
:101BF00007D077FD09D00E944A0E07FC05D03EF4BD
:101C0000909581959F4F0895709561957F4F0895A8
:101C1000A1E21A2EAA1BBB1BFD010DC0AA1FBB1FF0
:101C2000EE1FFF1FA217B307E407F50720F0A21B62
:101C3000B30BE40BF50B661F771F881F991F1A94CF
:101C400069F760957095809590959B01AC01BD01F9
:101C5000CF010895EE0FFF1F0590F491E02D099438
:101C6000A29FB001B39FC001A39F700D811D1124DD
:101C7000911DB29F700D811D1124911D08950E9428
:101C8000300EA59F900DB49F900DA49F800D911DC7
:101C900011240895AA1BBB1B51E107C0AA1FBB1F3B
:101CA000A617B70710F0A61BB70B881F991F5A95E8
:101CB000A9F780959095BC01CD010895FC01882776
:101CC0009927E89421912032E9F3293010F02E3041
:101CD000C8F32B3241F02D3239F4689404C00E94CD
:101CE000850E820F911D219120532A30C0F31EF4DE
:101CF000909581959F4F0895FB01DC018D91019096
:101D000080190110D9F3990B08957AE0979F902DCF
:101D1000879F802D910D11240895AEE0B0E0E3E996
:101D2000FEE00C944E110D891E8986E08C831A8387
:101D300009838FEF9FE79E838D83AE01475E5F4FE0
:101D40006F89788DCE0101960E94AF0EEF81F885E4
:101D5000E00FF11F10822E96E4E00C946A11ABE0C4
:101D6000B0E0E5EBFEE00C9440116C017B018A01D0
:101D7000FC0117821682838181FFCCC1CE010196BE
:101D80003C01F6019381F70193FD859193FF8191C9
:101D90007F01882309F4BAC1853239F493FD859116
:101DA00093FF81917F01853229F4B60190E00E9472
:101DB000A610E7CF912C212C312CFFE1F315D8F0A0
:101DC0008B3279F038F4803279F08332A1F4232D0C
:101DD00020611DC08D3261F0803369F4232D2160B4
:101DE00016C0832D8260382EE32DE4603E2E2AC07B
:101DF000F32DF8601DC037FC2DC020ED280F2A30D0
:101E000040F08E32B9F436FC81C1232D2064322E8D
:101E100019C036FE06C08AE0989E200D1124922E2D
:101E200011C0EAE02E9E200D1124222EF32DF06227
:101E30003F2E08C08C3621F4832D8068382E02C0D6
:101E4000883641F4F70193FD859193FF81917F01DD
:101E50008111B3CF982F9F7D9554933028F40C5F58
:101E60001F4F9FE399830DC0833631F0833771F0A4
:101E7000833509F059C021C0F801808189830E5F44
:101E80001F4F88248394912C530113C02801F2E042
:101E90004F0E511CF801A080B18036FE03C0692DA1
:101EA00070E002C06FEF7FEFC5010E949B104C01F4
:101EB0008201F32DFF773F2E16C0280122E0420E4B
:101EC000511CF801A080B18036FE03C0692D70E07E
:101ED00002C06FEF7FEFC5010E9490104C01F32DFF
:101EE000F0683F2E820133FC1BC0822D90E08816E3
:101EF0009906B0F4B60180E290E00E94A6102A9400
:101F0000F4CFF50137FC859137FE81915F01B60171
:101F100090E00E94A61021102A9421E0821A9108D4
:101F20008114910471F7E8C0843611F0893641F5C7
:101F3000F80137FE07C060817181828193810C5F57
:101F40001F4F08C060817181072E000C880B990B10
:101F50000E5F1F4FF32DFF763F2E97FF09C0909520
:101F60008095709561957F4F8F4F9F4FF0683F2E02
:101F70002AE030E0A3010E94E210882E861845C0B6
:101F8000853731F4232D2F7EB22E2AE030E025C094
:101F9000932D997FB92E8F36C1F018F4883579F0DA
:101FA000B5C0803719F0883721F0B0C0E92FE06163
:101FB000BE2EB4FE0DC0FB2DF460BF2E09C034FE52
:101FC0000AC0292F2660B22E06C028E030E005C0E6
:101FD00020E130E002C020E132E0F801B7FE07C0A6
:101FE00060817181828193810C5F1F4F06C0608187
:101FF000718180E090E00E5F1F4FA3010E94E2100C
:10200000882E8618FB2DFF773F2E36FE0DC0232D20
:102010002E7FA22E891458F434FE0BC032FC09C066
:10202000832D8E7EA82E05C0B82CA32C03C0B82CFF
:1020300001C0B92CA4FE0FC0FE01E80DF11D808186
:10204000803321F49A2D997EA92E09C0A2FE06C0E4
:10205000B394B39404C08A2D867809F0B394A3FC9A
:1020600011C0A0FE06C0B21488F4280C922C9B1854
:102070000EC0B21460F4B60180E290E00E94A61097
:10208000B394F7CFB21418F42B1802C0982C212C5B
:10209000A4FE10C0B60180E390E00E94A610A2FE4C
:1020A00017C0A1FC03C088E790E002C088E590E07B
:1020B000B6010CC08A2D867859F0A1FE02C08BE2D1
:1020C00001C080E2A7FC8DE2B60190E00E94A6105C
:1020D000891438F4B60180E390E00E94A6109A9427
:1020E000F7CF8A94F301E80DF11D8081B60190E0ED
:1020F0000E94A6108110F5CF222009F442CEB6012D
:1021000080E290E00E94A6102A94F6CFF601868124
:10211000978102C08FEF9FEF2B96E2E10C945C1148
:10212000FC010590615070400110D8F780959095A2
:102130008E0F9F1F0895FC016150704001900110A7
:10214000D8F7809590958E0F9F1F08950F931F933A
:10215000CF93DF93FB01238121FD03C08FEF9FEF1E
:102160002CC022FF16C04681578124813581421739
:10217000530744F4A081B1819D012F5F3F4F31830C
:1021800020838C93268137812F5F3F4F37832683AF
:1021900014C08B01EC01FB010084F185E02D099551
:1021A000892BE1F6D80116968D919C91179701968F
:1021B00017969C938E931697CE01DF91CF911F9126
:1021C0000F910895FA01AA27283051F1203181F1A9
:1021D000E8946F936E7F6E5F7F4F8F4F9F4FAF4F2F
:1021E000B1E03ED0B4E03CD0670F781F891F9A1F42
:1021F000A11D680F791F8A1F911DA11D6A0F711DF6
:10220000811D911DA11D20D009F468943F912AE001
:10221000269F11243019305D3193DEF6CF010895E9
:10222000462F4770405D4193B3E00FD0C9F7F6CF1A
:10223000462F4F70405D4A3318F0495D31FD4052E2
:10224000419302D0A9F7EACFB4E0A6959795879578
:1022500077956795BA95C9F7009761057105089557
:102260009B01AC010A2E0694579547953795279503
:10227000BA95C9F7620F731F841F951FA01D08959B
:102280002F923F924F925F926F927F928F929F9286
:10229000AF92BF92CF92DF92EF92FF920F931F9374
:1022A000CF93DF93CDB7DEB7CA1BDB0B0FB6F89425
:1022B000DEBF0FBECDBF09942A88398848885F8465
:1022C0006E847D848C849B84AA84B984C884DF80D6
:1022D000EE80FD800C811B81AA81B981CE0FD11DBA
:1022E0000FB6F894DEBF0FBECDBFED010895F89490
:0222F000FFCF1E
:1022F2003E014C016E019201B601E0010802380272
:10230200004102014902025202035A02046202051A
:102312006F02067802078102088A020993020A9B69
:10232200020BA4020CAE020D00000E01640030305C
:1023320020D093D09ED0A2D09ED09200303120D017
:102342009DD095D098D0A1D09FD0A0D090D092D03F
:102352009DD0A1D0A2D0AC20D098D0A22100303202
:1023620020D09DD095D098D0A1D09FD0A0D090D091
:1023720092D09DD09ED0A1D0A2D0AC20D097D0A395
:102382002100303320D09DD095D098D0A1D09FD0BD
:10239200A0D090D092D09DD09ED0A1D0A2D0AC207F
:1023A200D090D0912000303420D09DD095D098D0BC
:1023B20097D092D095D0A1D0A2D09DD090D0AF206E
:1023C200D09AD09ED09CD090D09DD094D090210015
:1023D200303520D0A1D098D0A1D0A2D095D09CD019
:1023E2009020D09DD095D098D0A1D09FD0A0D09051
:1023F200D092D09DD0902100303620D09DD095D063
:1024020098D0A1D09FD0A0D090D092D09DD09ED075
:10241200A1D0A2D0AC20D09DD090D093D0A0D0A3F8
:10242200D097D09AD098210073746172742D697418
:102432000073746F702D69740073746172742D7AF5
:10244200750073746F702D7A750076657273696F9B
:102452006E006765742D626F6172642D6964006736
:1024620065742D62617431006765742D6261743226
:10247200006765742D756F7374006765742D756FD1
:10248200736E007365742D757A7400757374697256
:102492002D6F6E0075737469722D6F6666007374AA
:1024A2006172742D646961676E004042415431204B
:1024B2003D20004042415432203D20004049D0B7E7
:1024C200D0B0D0B13D25642E256425640040496B0F
:1024D200313D25642E256425640040496B323D253B
:1024E200642E256425640040496B333D25642E2506
:1024F200642564004049D18ED181D1823D25642E6C
:1025020025642564004055D0B0D0B13D25642E2508
:10251200642564004055D0BDD0B0D0B3D1803D25F4
:10252200642E25642564002200220D0A005B005DF2
:10253200005D0D0A004661696C75726520737461F5
:102542007274656420666F72202564206D73005377
:10255200746172742033207365636F6E64732063D9
:102562006F756E7400332073656300322073656388
:102572000031207365630030207365630046616932
:102582006C7572652066696E6973686564200043C4
:102592004D445F53544152545F495420D0B2D18BC1
:1025A200D0BFD0BED0BBD0BDD0B5D0BDD0BE004311
:1025B2004D445F53544F505F495400434D445F5361
:1025C200544152545F5A5520D0B2D18BD0BFD0BEA5
:1025D200D0BBD0BDD0B5D0BDD0BE00434D445F53BB
:1025E200544F505F5A5520D0B2D18BD0BFD0BED0FD
:1025F200BBD0BDD0B5D0BDD0BE00405645523D3255
:102602003031392E30332E32360D0A004049443DE6
:10261200303030310D0A0053657474696E6720558D
:102622007A7420746F3A200076616C75653D25647A
:10263200005374617274696E6720646961676E6FBA
:1026420073746963206D6F64652100313A256400FB
:10265200323A2564000D0A00556F736E313D2564D0
:102662000D0A00556F736E323D25640D0A00556FD9
:102672007374353D25640D0A00556F7374343D251E
:10268200640D0A00556F7374333D25640D0A0055BD
:102692006F7374323D25640D0A00556F7374313DBA
:0626A20025640D0A000092
:00000001FF
